:2000000000400020D90A010001C9011001C9011001C9011001C9011001C9011001C901107A
:1C00200001C9011001C9011001C9011001C9011001C9011001C901103FC9011089
:20003C002DE9F04F9B4CA01C04F11401ADF11C0D10F08EF898491020FB2240F6480308F0AE
:20005C0001F904F14C0004F158010CF0FDFD06210122E06111F00EFB04F1400500212846A7
:20007C0000F0F4FB8D49202204F19400A56110F0F5FA8B4D05F1180005F10C010CF0E4FD29
:20009C008849A86013F080FC874EA8684FF4E0213246521E11F0F8FCA8684FF4E02132461A
:2000BC0011F0F2FC814EA8684FF0C0513246521E11F0EAFCA8684FF0C051324611F0E4FC7E
:2000DC007B4905F12400002210F0C8FA7948002168604FF0FF300FF065FA00216CA320611B
:2000FC000A4612F06DFA744F4FF00809102002224FF47A63714E87F80190314608F0A2F8CC
:20011C00102003224FF47A63314608F09BF86C48002215236B490090102008F093F8022025
:20013C008DF8170000238DF8183098468DF81980654D8DF81A800DF117002946424601231A
:20015C000090102008F07EF806A840F20242012300902946102008F075F80DF1190040F230
:20017C000342012300902946102008F06BF80DF11A0040F20642012300902946102008F093
:20019C0061F85249102008F05DF8A07812F04AF8E5490246102008F055F8314610201522AD
:2001BC004B4608F04FF83146102016224B4608F049F8314610201A22434608F043F8314694
:2001DC0010201922C82308F03DF8D84910204FF0FF3208F037F8D64910204FF0FF3208F0E1
:2001FC0031F804F12000B860387812F01BF80246787807F1160507F126064B460090DD4912
:20021C0001951020029607F10C05039508F01AF8D94904F12C02102008F014F8A07812F026
:20023C0001F8D6490246102008F00CF8A07811F0F9FFD3490246102008F004F8206941466D
:20025C00E1A30A4612F0BCF9E54D2069A861E54FEF61E548686112F0DDFF10F07FFDE34E2E
:20027C0006F1080A504613F06DFA47460120307451463772384610F091FD706040B338467A
:20029C0013F03AFC012001460EF070FE26E0C0460C00C0460802002021B1001021370100B2
:2002BC00A0110020591601000E0005800E000010A9350100C53A0100B0060020BD84011029
:2002DC008A59010025E90000D55600006DD90000A86906213A46DAA312F072F9384613F07C
:2002FC000BFC1B2039460EF041FE384613F004FC042003210EF03AFE0520F1210EF036FE7C
:20031C0006202B210EF032FE072039460EF02EFE0B2088210EF02AFE0C2081210EF026FE67
:20033C000D2001210EF022FE0E2080210EF01EFE12208C210EF01AFE132082210EF016FE6E
:20035C00142080210EF012FE012013F0D5FB012049460EF00BFE022001210EF007FE472045
:20037C0032210EF003FE7B2001210EF0FFFD384613F0C2FB3C2002210EF0F8FD2C2013F059
:20039C00BBFB012004210EF0F1FD012013F0B4FB142025210EF0EAFD0C2049460EF0E6FD8B
:2003BC000D2049460EF0E2FD092030210EF0DEFD102039460EF0DAFD112039460EF0D6FD30
:2003DC00384613F099FB412080210EF0CFFD422080210EF0CBFD384613F08EFB3F20D621F7
:2003FC000EF0C4FD402039460EF0C0FD484613F083FB012004210EF0B9FD384613F07CFB87
:20041C003D2002210EF0B2FD012013F075FB332040210EF0ABFD342039460EF0A7FD3620DA
:20043C0010210EF0A3FD372010210EF09FFD392040210EF09BFD3A2010210EF097FD3B20E7
:20045C0039460EF093FD3C2039460EF08FFD384613F052FB532068210EF088FD54206821C4
:20047C000EF084FD384613F047FB5120C0210EF07DFD522039460EF079FDB94E30788000C0
:20049C0013F0B4FBDFF8DC920146C9F80410D9B14FF6FF7011F0AAFA3078800013F0A6FB7E
:2004BC004E460146B16079B14FF6FF7011F09EFA10200090AC490191AC4906F170020723EE
:2004DC0007F0C0FEC0B228B1A86906213A46AAA312F076F8DFF89C926069A54A41464FF008
:2004FC00FF3300F0B7F95FEA000AF5D0CDF8108005A80DF1160104AA11F0B0FB78B9BDF89F
:20051C001400102807D1A0789DF81610884202D1049800F0FFFE049808B113F027FB5FEADF
:20053C00DA70C0F0098101E14D3A0100B5290100E52C0100A069054600F090F9854208BF65
:20055C00474602D0876810F053FA381C00F0EE8039882069227A491E00F0DF80491E7BD0E4
:20057C00891F45D008390DD0B1F1300000F0D180D9E0C046D9FF0000F92E010051880110C8
:20059C003181011078686589067841460A460BF003FCB0FBF9F101FB09F1401A834636B1CA
:2005BC0000902069042142467BA312F009F8A349CDF800B010202A46434607F043FE786896
:2005DC0010F016FAAFE0C046417564696F2043656E7472616C207769746820444C4500C0EE
:2005FC00E00F0020CF3A0100485A0100B01300207968BE780D7805210A4613F09BF9C6B120
:20061C00012E0ED0032E05D0022ED8D1206935B965A310E02069002D08BF6EA30BD067A3F0
:20063C0005E02069002D08BF6DA304D070A3009501E0206973A30221424611F0C1FFBEE71F
:20065C004661696C3A2043616E2774206F70656E20636F64656300C0B9788A4257D0667948
:20067C000A0937D2480952D312F08EFA00285AD06179022957D07348007801290CD1032166
:20069C00617111F0CFFD02464FF6FE7313206A490090102007F0D6FD6B49CDF80080102008
:2006BC0040F20942434607F0CDFD20690521424658A311F085FFE0690721012210F0DAFF33
:2006DC004CF2503000F0CEF8E0690721424610F0D1FF28E03EBB2179012924D0012146465A
:2006FC002171424650A3E670022111F069FF20690321052213F01EF9E0690621324610F019
:20071C00B9FF11F059F94E4813F08CFA0BE0217209E0B87802F05AFB05E0786800F0FAFD09
:20073C00786813F023FA384610F062F9A06900F09DF800283FF4FEAE5FEA9A10FFF4CCAECF
:20075C003F4813F06FFAE569072012F03DFF464600B9012607213246284610F08BFFBBE632
:20077C00694F0020900D0020605701002D210100010000C040420F004661696C3A204361F5
:20079C006E27742061646420417564696F205365727669636500C04650617373636F6465B0
:2007BC003A20256400C046C0426F6E642073617665207375636365737300C046426F6E6480
:2007DC002073617665206661696C65643A20256400C046C0426F6E6420536176656400C0AA
:2007FC0050616972696E6720737563636573730050616972696E67206661696C3A20256491
:20081C0000C046C050616972696E67207374617274656400457261736520426F6E642069F9
:20083C006E666F2000C046C0446973636F766572696E672E2E2E00C0E5140110111D010073
:20085C009C020020B0060020D5560000DFF800F0A1B60110DFF800F0F99B0110DFF800F05B
:20087C0019BD0110DFF800F0A5A50110DFF800F04FBF01102DE9F84FDFF82085DFF8201588
:20089C0088F80000002008600821DFF8180501700D2141804FF408718180DFF80C05DFF83B
:2008BC000C1501608A7EDFF808050270FF2ACB7E437008BFFF2B0D7F85704E7FC6708F7F94
:2008DC000771C97F417115D1FF2D08BFFF2E11D1FF2F08BFFF290DD1DFF8D8140A780270F0
:2008FC004A7842708A788270CA78C2700A79027149794171DFF8C01402780A70FF25427819
:20091C004A7082788A70C278CA7002790A714079DFF8A82448710021DFF8A40405704570C4
:20093C008570C570057145711180DFF89804DFF89814466BDFF894247078087031781170F4
:20095C00B078DFF88C140870B1680879DFF88414421E0A70F078DFF880140870F068DFF807
:20097C007C14086008B912F06FFB3069DFF87044206008B912F068FB2068DFF868740168C8
:20099C008847216851F8042F38469047DFF85804DFF858143862DFF85804786270690860B4
:2009BC0008B912F051FBB069DFF84814086008B912F04AFBDFF840B4DFF840649BF8040073
:2009DC0012F028FF306008B900F049B99BF80500DFF82C7412F01EFF386008B930683BE154
:2009FC009BF80600DFF81C4412F014FF206020B9306812F017FF38682EE19BF80700DFF8CD
:200A1C00089412F007FFC9F8000038B9306812F009FF386812F006FF20681DE1DFF8AC13FF
:200A3C000A789BF80000DFF8E4A3921C504380B212F0F0FECAF8080058B9306812F0F2FE5F
:200A5C00386812F0EFFE206812F0ECFED9F8000002E1DFF878030078002800F00581BBF8A8
:200A7C000210DFF8ACB3484380B212F0D3FECBF8040078B9306812F0D5FE386812F0D2FEAB
:200A9C00206812F0CFFED9F8000012F0CBFEDAF80800E1E0CD48007812F0BCFEDD490860D5
:200ABC0098B9306812F0BEFE386812F0BBFE206812F0B8FED9F8000012F0B4FEDAF8080079
:200ADC0012F0B0FEDBF80400C6E0C04800781821484312F09FFED04A1060B0B9306812F05D
:200AFC00A1FE386812F09EFE206812F09BFED9F8000012F097FEDAF8080012F093FEDBF832
:200B1C00040012F08FFEC348A5E0B0480078400112F080FEC1490860D8B9306812F082FE48
:200B3C00386812F07FFE206812F07CFED9F8000012F078FEDAF8080012F074FEDBF8040008
:200B5C0012F070FEB348006812F06CFEB249086882E09E480078000112F05CFEB049086051
:200B7C00F0B9306812F05EFE386812F05BFE206812F058FED9F8000012F054FEDAF80800E0
:200B9C0012F050FEDBF8040012F04CFEA148006812F048FEA049086812F044FE9F485AE06F
:200BBC008A480078000112F035FE9E49086018BB306812F037FE386812F034FE206812F04A
:200BDC0031FED9F8000012F02DFEDAF8080012F029FEDBF8040012F025FE8E48006812F08D
:200BFC0021FE8D49086812F01DFE8C48006812F019FE8B4908682FE074480078302148439F
:200C1C0012F008FE884A106070BB306812F00AFE386812F007FE206812F004FED9F800009D
:200C3C0012F000FEDAF8080012F0FCFDDBF8040012F0F8FD7748006812F0F4FD76490868AC
:200C5C0012F0F0FD7548006812F0ECFD7449086812F0E8FD7348006812F0E4FD002012F03D
:200C7C00F3F94FF4804192E03168012008713068057331684D73306885733168CD73306859
:200C9C000574002031684D743268D072A0223168487103213068C28001720720316848726A
:200CBC000020326890722821306841820121C176002031684877326882F85E0001203168BB
:200CDC000877326882F85D00396808713868057339684D73386885733968CD7338680574E3
:200CFC00002039684D743A68D072396848713A6890724FF4207039680022C88008818A740F
:200D1C0001213A68D17421680D732268557321688D732268D57321680D740021226855747A
:200D3C002368D9720121226811710021236859712168C880088100208872216888740520FF
:200D5C002268D0743948016888472A490A6805461068804727490A6852F8043F0020984713
:200D7C0018481D4BC16818780A88314902430A80284630490A6890470C212F4800F05EF8E1
:200D9C000F4800F05FF800F061F84FF4005198F80000BDE8F44F0AF02FBE00BF6E4F0020C1
:200DBC00044F0020604E0020084F0020B63F00502C4E0020E81200503C4E00200C4F002011
:200DDC00344E0020405B01006D4F00207B4F00206B4F0020724F00206C4F0020F04E0020FF
:200DFC00F44E00207C4B002031380100F84E002041380100FC4E00208C140020104F00209B
:200E1C00144F0020184F00201C4F0020BC290020684E0020004F0020804E0020844E0020F7
:200E3C00884E00208C4E0020904E0020340F0020544F0020380F0020F84D0020DFF800F0EF
:200E5C00E5710110DFF800F01D6E0110DFF800F04D7101102DE9F843614C5A4D5A4EDFF8F2
:200E7C0070815E4F94F8E4100846401E0B2864D8DFE800F07B2C43062343062343067664C4
:200E9C00042907D001220A2945F8212C14BF0220032004E0202045F8210C0120024684F8C7
:200EBC00E200002045F8390C0827C5F8FF7FC5F8F37F45F8392CBDE8F883052914BF09200D
:200EDC000620002784F8E400376075E094F8E170383D0120002FC5F81B0004BF06200021D9
:200EFC0002D00021F160032084F8E400032045F8010C3160306880085ED294F8E4103348C6
:200F1C00012703290ED00068456800216022052300914046A84794F8E400062814BF0A2002
:200F3C000720CFE700684568002160220523022000904046A8470420C4E7FEE72548264F1B
:200F5C000026012506600E203D600AF0B5FD022010F0B4FD84F8E45084F8E360BDE8F883EA
:200F7C00002038600C25786024E04FF08059D9F8A0010168202088472C3D0F2045F8010CAC
:200F9C0041F61D56C5F80360D9F8A401466800214FF4C0720723022540460095B047D9F87D
:200FBC00A401C66800214FF4C07207234046B0470120386084F8E45004F1780012F004FE2B
:200FDC00BDE8F88339400C4038600C40A401001000A00C402C500C4004800C4034600C4013
:040FFC007C0C002049
:20100000B41200001810000015AB0110FDB301106DC00110FDAE011099B5011000000000F7
:08102000000000002D0000009B
:20102800B01200003C100000B1C00110A9BF011067C0011069B80110000000000000000035
:041048003000000074
:20104C00B012000060100000BDC00110CDB30110D9BD01106DB3011000000000000000005B
:04106C00310000004F
:20107000000000009C14002004000000000000000000000020000000E8C90110300000007A
:2010900028100000A41400200400000000000000000000000C000000D8CA01101800000055
:2010B0004C100000AC14002004000000000000000000000024000000F0CA011018000000D9
:2010D00000000000B41400200400000000000000000000001000000018CA01102C000000E5
:2010F00000100000C4140020040000000000000000000000200000006CCA01102400000049
:20111000FFFFFFFFCC1400200400000000000000000000002800000090CA01102400000008
:20113000FFFFFFFFD41400200400000000000000000000001400000008CB01101800000087
:20115000FFFFFFFFDC14002004000000000000000000000058000000B4C901103400000055
:20117000FFFFFFFFE41400200400000000000000000000001000000020CB01101800000023
:20119000FFFFFFFFEC1400200400000000000000000000001C000000B4CA01102400000050
:2011B000FFFFFFFFF41400200400000000000000000000003800000044CA01102800000078
:2011D000FFFFFFFFFC1400200400000000000000000000005400000078C901103C000000ED
:0811F000010000002C5B01006E
:0411F80001000000F2
:0411FC0000000E00E1
:0412000000000F00DB
:0412040032000000B4
:0412080001000000E1
:04120C00C8130020E3
:0412100000020000D8
:0412140000000000D6
:0412180001C90110F7
:04121C0000000000CE
:0412200000000000CA
:0412240008000000BE
:0412280000002200A0
:04122C00301200205C
:0412300000000000BA
:0412340000000000B6
:0412380008000000AA
:04123C005413002027
:0412400000000000AA
:0412440000000000A6
:04124800080000009A
:04124C00000000009E
:04125000000000009A
:041254000000000096
:041258000000000092
:04125C00010000008D
:04126000C812002090
:041264000600000080
:041268000100000081
:04126C0054110020F9
:04127000000000007A
:041274000000000076
:041278000002000070
:04127C00000000006E
:02128000290043
:02128200010069
:02128400250043
:02128600300036
:02128800310033
:02128A002D0035
:02128C0001005F
:01128E00015E
:0812900003000000C05A010038
:0812980000000000000000004E
:0412A0000000010049
:0412A4000000030043
:0412A80013C401105A
:0412AC007D3501008B
:0412B000B812000070
:0412B400B81200006C
:0412B8000000000032
:0412BC0050140020AA
:0412C0000D370100E5
:0412C4002000000006
:0412C800105A0100B7
:0412CC004058010085
:0412D00029C101101F
:0412D4000F1D0100E9
:0412D80013220100DC
:0412DC00A1C7011095
:0412E000A3C701108F
:0412E4000000000006
:0412E800355A010072
:0412EC00AC560100FB
:0412F000C4560100DF
:0412F400945601000B
:0212F8000200F2
:0212FA000900E9
:0212FC000100EF
:0212FE000000EE
:0113000001EB
:04130400AD36010001
:041308003119010096
:04130C00F92A0100B9
:04131000451C010077
:041314009F1901001C
:04131800290801009F
:04131C0061E7000085
:041320003739010058
:0413240059F9000073
:0413280015C70110D4
:04132C0025C70110C0
:201330002DE9F04F0546CF4C28786179ADF1240D913800F09E83DFF830831F3800F0A681C7
:20135000203840F09D83A878002800F06681401E00F04881001FCAA700F0F780401E00F05A
:20137000B980401E00F08281801F40F089832A69287B1118491E1018401E904225D912F8D2
:20139000017B07B31078022805D0032803D0FF2818BF3A4417D17F1E521CFFB2022F0FDB47
:2013B000781091420CD9167826B95378B02B08BF01200BD0BF1E401E02F10202FFB2F0D163
:2013D000012F08BF521C9142D9D8002094F8038090B395F804A0B8F1080F05F1050B05F1B5
:2013F000050920DA5FEA08000CD004F1BA07064648463946062211F0F9FAA0B1761E07F1A0
:201410000807F5D14A46136804EBC800B830811C0B6092888A8008F1010780F801A0F8B24D
:20143000E07095F804A084F806A059460A6804F12400026089888180E878042840F02083FC
:2014500028692E7B00F102090027B01E5FFA80F8B8F1090F0ED0B8F1100F1CBF3E1C26704E
:2014700014D104F174004946102211F0BFFA3E4648B907E004F134004946092211F0B6FA93
:201490003E4600B90126012E267009D0A8F1090104F18400CAB2494611F0A8FA00B901278F
:2014B00057EA0600677000F0EB82C748007810F0BFFEC6490246102006F0CAFE0120E071A6
:2014D00028796F1DA071BB8804F12406B38038683060D5E2002666714FF6FE706081206928
:2014F0000221B5A3324611F071F8A8790090206903213B46324611F069F8206904213246A0
:2015100012F01EFA20690621324612F019FA08F043FCE0690721324610F0B2F8E06906212A
:20153000012210F0ADF811F035FB10BB0FF018FE424650680680967046808680C68006815D
:20155000468186813446C68149E06878B0B111F021FB70B94FF6FE7060810FF001FE206921
:2015700002210022BCA311F031F8687803213B467FE0A17901200EF043FA81E202216889BC
:201590006171BC4A6081688910802069B6A3002211F01CF8281D0EF031FE03462069032180
:2015B000002211F013F8E0690721012210F068F8E0690621002210F063F8A0896589001FD6
:2015D000ADF80800A07810F033FEC049009002AB2A46102006F03CFE012664344246167022
:2015F00054604DE212F0EEF9E0690721002210F047F800252571E279E078A179012A06D0B4
:20161000F8B1401EC0B2E07010F0DCF938E228460EF0F6F9E571E57032E26889A081E81CD2
:201630000EF0ECFD034620690121002210F0CEFF206902210022ADA310F0C8FF11F0AAFA46
:2016500010B90FF08DFD1BE2AB490025102040F2094200952B4606F0FBFD0521BAA32A467E
:2016700009E0C0460802002064140020E8780221C0A300900022206910F0A8FF00E2C046F9
:20169000526561736F6E3A20256400C00229059540F0E88128464078162807D12879009064
:2016B000206904210022B8A310F090FF42469778002F40F09D811278A078DFF8E0A22946E2
:2016D0004FF00008521E00F06B81521E00F01681521E7DD0521E40F07781A946049048460A
:2016F000007909F1080B052814D14846807A012814BF1220042045460795BBF80070069088
:20171000AF4221DC99F80400052803D199F801001A2803D099F8040001280AD1C048416844
:20173000088930B1C88920B1BD4940460870012001E06FF002008046B8F1010F40F044812A
:20175000B749012088703FE1B548DBF8046090F801A0BE4902227019801C11F047F940BB57
:20177000AF4906984F68BAF1010F00FB05F0C0B206D08119305C497800EB0120F88116E0B7
:201790008119305C4978434600EB01203881A44904984B7010F04CFD798900910190C54945
:2017B000BB89B9F8022010205B1C06F051FDBBF800706D1CEDB2A3E7446973636F6E6E650F
:2017D0006374656400C046C0B0060020711701000690A9460879CDF81C8009F10805092895
:2017F00012D1B9F808703FB1887AB5F80080DDF81CA00890D0453FDC99F80400092803D1BB
:2018100099F801001A2803D099F8040001281FD183484568EF88AFB1A88998B180490420AD
:201830000870069810F004FDA98800910190A149B9F802207B1C102006F00AFD78490120CB
:20185000487005E007986FF00207079774490870DDF81C80B8E0C046436F6E6E6563742008
:201870004661696C656400C0436F6E6E656374656400C046E40F0020694B0898D5F804B0D2
:201890005F689049102200FB0AF0C6B20BEB0603581D049011F0AAF8D0B140490498102276
:2018B0002C3111F0A3F8E0B978887881686831184978805D00EB0120B880686880190179AF
:2018D000C07800EB0120B88109E0C046A91701000BEB06000179C07800EB0120F880B5F8EC
:2018F00000800AF101005FFA80FA83E7496E697469616C697A656400D55600000A79072ACA
:2019100015D1474A0F8956685FB1CA685378127802EB03223280C968CA78897801EB02210C
:2019300071802979072902D169781A2904D02979012949D13A494E68378877B938494046F4
:201950006FF0020808703FE0457261736520426F6E6420696E666F2000C0314A0321117018
:2019700010F066FC71883B46009153490190102027E0C046506172616D205570646174650C
:201990003A20256400C046C0415454205273702064726F7070656420256400C06057010021
:2019B0000979032918BF7F290ED11D4A0221117010F03EFC01465346102000900C33019155
:2019D0003E496A8806F044FCB8F1010F10D12069052100222CA310F0F9FD059DB4F86C104E
:2019F00068880DF097FCB4F8721068880DF092FC0598B4F87010077938461B381CD0801E0A
:201A100010D062382ED17F2F2CD105980089009020690421002223A310F0D8FD22E0C04669
:201A30006414002005984078E0B9059824494288102006F00DFC15E005980089814207D058
:201A5000B4F86A1081420DD1002002E0CE5B0100012005994A89ADF80820C968039102A9B4
:201A700003F09CFB059901F10800097912F008FD06E06878102803D10820002107F038FB66
:201A900009B0BDE8F08FC0465365727669636520446973636F7665727920436F6D706C652A
:201AB000746500C04D54552053697A653A20256400C046C05D3601000726010001ED000073
:201AD000252401007C5701002DE9F04F85B011F801ABDFF82C35DFF82CB5804608F5BC70BA
:201AF000009008F1FD02AAF10200132808F1660608F1F40708F59C7408F1860908F5AC756A
:201B100000F26C82DFE810F0C8006A0214004000430051026A0290006A0270009C00730009
:201B30007800CE008601CB01BF005902D201D20108F1A0040822204612F09EFC06460821FE
:201B5000204612F095FC08F1980704223146384612F092FC0421384612F08AFC002041426B
:201B7000414408EB000291F89F1082F8BF10401C0828F4DB08F1C702214608F1D70005B051
:201B9000BDE8F04F12F070BC0120B87135E23978787A012900F010000DD130B10020607046
:201BB000396CA07849080DF0EBFA98F80600002112F056FC0FE040B13A6CDFF84C0408F570
:201BD0009D735208414611F05DFF98F806000122002112F041FC01203070404612F038FC11
:201BF0000120B071B87008E20120F87005E2087878700120F87100E2B07918B93D20387737
:201C10000120F876787A000701D40E212DE100205C1C0E5C245C34401454401C0828F7DB5E
:201C3000404612F011FCDEE100205C1C0D5C245C2C401454401C0828F7DB02203872DCE104
:201C5000B07920B93D2101203977F876D5E1787C012803D10C2179770721D5E011F8010B1F
:201C70003875022208F5857012F006FC0146022208F5867012F000FC01207874F87C002888
:201C9000E4D10C21C0E0787AC10601D41221ECE0404612F0D5FBA6E108783877F0210020E6
:201CB000F876F6E07B7A980704D413F0110F1CD01A22E0E0307C012804BF707C0F2808D0C6
:201CD000707D08B1727C12B1327F012A03D158070BD52322CFE010B1707C012803D099F880
:201CF0000A00012806D1590702D40F20787777E12A22C0E008784A7800EB02202081CA7800
:201D1000887800EB022060814A79087900EB0220A081CA79887900EB0220E081087A20748B
:201D30008A7A487A00EB022060820A7BC87A00EB0220A0828A7B487B00EB0220E0820A7C2B
:201D5000C87B00EB022020838A7C487C00EB022060830A7DC87C00EB0220A083487D897D00
:201D700000EB0120E08308F5A6700490608A0390207C0290B8F808000190E0890090A38924
:201D90006289218940460CF0A9FC18B1787A410770D469E06089A9F80400A089A9F8060089
:201DB000E089A9F80800022089F800000020A9F80200B8F83400C01DF083B8F83210B9F8C4
:201DD0000400884202BFB9F80600B8F83410884202BFB9F80800B8F83610884213D0707DE5
:201DF00018B10F21B176FE210EE0FC21404612F023FBE0890090A3896289218998F8060093
:201E100012F016FBF9E00021404605B0BDE8F04F12F012BB8A78C8780E798C7902EB0025D7
:201E3000487906EB0026C87901F10B0204EB00240492B3B2487A8A7A00EB022080B20390D4
:201E5000AAB2087A0290B8F808000190A0B200900878497800EB012081B240460CF03EFC9B
:201E700080B1787A410702D40F217977B8E0404612F0DAFA1E22404605B0BDE8F04F0F216E
:201E900012F0CEBAA9F80450A9F80660A9F808400021404605B0BDE8F04F12F0BDBA08788A
:201EB00028704878687001206071A6E008784A7800EB02206882CA78887800EB0220E88278
:201ED0004A79087900EB022028828879C97900EB0120A882E98AA889AA8B884288BF084646
:201EF000A88390422889698A2A8B14BF01260026884288BF0846904214BF012100210E43C4
:201F1000288308F5BC70A98B0079012212F080FA0146288B884206D308F5BC70A98B00791E
:201F3000012212F075FA08F5BC7148806889298A884288BF0846698B6883884214BF012269
:201F50000022164381429241E889A98AEB8BD20F884288BF0846984214BF012100210E43C5
:201F7000E88312B1404612F04FFABAF1140F10D146B1E88B00906B8BAA8B298B98F8060034
:201F900012F03EFA404605B0BDE8F04F15210BF0CBBE26B10098017841F0080101700098F3
:201FB000017841F02001017027E008780F2807D0122802D0142806D01FE0002020701CE077
:201FD0000120207119E000980099007840F00200087040F01000009908700EE087F81DA078
:201FF000404612F009FA40B99BF8000005B0BDE8F04F4FF4804109F005BD05B0BDE8F08F89
:20201000EC4D00206E4F0020018B00102DE9F04F0F46CD4C0168616441688068ADF11C0D95
:20203000E060CE48A1608047CD48616C0160A168DFF83CB34160E168DFF830838160C949F9
:20205000002FA146C16064D03D68E8788DF80C0028798DF80D0003A812F0CAF9A86808B103
:20207000C1490160E86808B1CD490160CD4C2878207068786070A878BE68A0703178736892
:20209000E170B26863602E69A2607968E6610868E06068692062A8696062287F84F8280020
:2020B0002A6AE262786886681EB9002010F0D2FF00E066617868C06818B9002010F0CAFF39
:2020D00000E0A0617868406818B9002010F0C2FF00E020612869E061F86881680E6806B924
:2020F000B24EB1494FF0010A4E60C66881F801A036B9002010F0AEFF45462E68F86801E078
:2021100045462E6000685C46FB68A0615868E06107E0002010F09EFF45462E684FF0010A18
:202130005C46361DCF493668621C04F114035020B04710B1286880688047D9F80800804753
:2021500083460023CF4ECD48CD4F2061984633714246B370380BF270C7B2401CC1B23770F3
:2021700018467170B94280F28F8198B9B8F1000F08D1307810F082FC0420F080317900202D
:20219000A1B912E086F802800FF0F2FE404608F083FB07E0B8F1000F02D040460EF0D0FA39
:2021B0000FF0E6FE3179002001B9504610B9002010F050FF0020D14E2B68A0600746B760A4
:2021D000986980477060C54880F800A039464180142011F025FBFF211422A06211F032FD15
:2021F000E01CFF21022211F02DFD142011F018FBBB4F386038680021142211F023FD002042
:20221000FEF73EFB50460FF09BF8B6480188FF2906D1022101807822001D002111F012FD46
:20223000032012F0E1F8042012F0DAF8052012F0D3F8062012F0CCF807200DF029FBAA4E7A
:202250000820307006F1240012F0BEF80DF090FD06F1360805200A21424610F075F938B1E5
:202270000020C0F10901401C08F8011B0A28F8DB3078102109F0C6FB2B689C4909200DF1C4
:202290000E025E68087001AB10200021B047A06AD9F80C10E2690A260A309DF80E30761ED9
:2022B00000F8013BF9D1921E5846E261884704F12000DFF83C822B68626A1E690590414604
:2022D000504604F12003B04710B1286880688047B84610F099FA5FEA000B03D00AF082FE17
:2022F0004FF0FF3B002647E00298216910F8062CA0F10C07032A03D100293DD088473BE0E5
:20231000A16A9DF810C00A223046491E11F8013F9C4506D0521E00F10100F7D14FF0FF0AC2
:2023300001E05FFA80FA2868BAF1FF0F00F1080020D038790FF0A0FAB979012906D0022900
:2023500004BF0299887003E02C0F0020029908700299504610F02EFD0EE0C04641490010DC
:20237000F844002098440100CD2301001415002028130020006880472868C36904A902AA3B
:202390000DF10F0098470028AED0D8F800007700C35B6BB9761CF6B20A2EF8DB2BE0C046BC
:2023B00009330100681200207C14002087FE00000A2E20DAD9F808008047D8F8001000222D
:2023D00031F807A0CA53D9F80C108847494850F8262026705146304690470646FF202070B0
:2023F000D9F808008047D8F800107A5A16437E52D9F80C10884710F007FA0746BB451AD05C
:20241000D9F8080007B93C4FE169B94238BF0F1C804782462868016A206A8847626A2868E2
:202430003349059B521C6262C6683846B047D9F80C1050468847A7682968606914319FB943
:20245000D8F800000A270026835B33B10969606988472968D8F8000014317F1E06F1020637
:20247000F2D105E0452A0100096988472968143109684FF0FF3088472BE7C046E133010042
:2024900000D00100DC290020384600216A4604230FF04EFC009BB078B3F5801F0ED043B993
:2024B000B8F1000F03D040460EF04AF9B078B84610E038460EF044F9B0780BE0002804BFED
:2024D000381CB77006D00EF03BF938460EF038F90020B07071787F1CFFB243E60C150020DD
:2024F0000C2A002068100020F40900201F2A0020C1180100F05701008EC2F528B0290020D0
:202510002DE9F8435FEA000920D1002010F0A2FD1CE0484611F054FF7CE1297C012940F01E
:202530007681C078002800F0798178883978400078804900B88839704000B88001213889D4
:20255000000138812977484611F06EFF09F16605687D002800F06881697CDFF82C040029B5
:2025700009F1860709F20F1809F1EC0609F59E74D3D0012939D002292BD003293FD0062940
:2025900000F08080072900F03881082900F0A880092900F0B5800A2900F087800B2900F074
:2025B00090800C2900F0B9800F2900F0D180112900F0F180122900F0C580142900F0F98073
:2025D000F02900F03381FC295BD0FE2900F038819BE7297C01299CD1C078002800F0E2809E
:2025F000484611F021FF162125E1297C012940F03881C078002818BFB972A4D135E1297C95
:20261000012940F03981807840B10021A971A078012803D1A170484611F00EFFB07B01285C
:2026300008D1002131607160B8730621484611F0F3FE8BE7F07B012818D1484611F0F4FEEC
:202650000021B97301202870484611F001FF0120A87100207073717A99F8060006291ABF0E
:2026700000221A21002211F0F7FE6FE798F80000012844D0298B481E288380B2002800F0A3
:202690002781D0E0287C012840F00081B17A012916D1484611F0C8FE002030723073F072FC
:2026B000B073B072F073707350E7287C012840F0FC80F17A012902BF0020B8730B21B5D07D
:2026D000EDE0297C012940F0F9808078002800F0F9800321AAE70022222111F0BDFE50E115
:2026F000287C012840F0FE80307C022809F1FD0240F0018199F80610002011F05DFE22E7A2
:20271000297C012940F003818078002800F00381B9F82210A9F81E1015E7287C012840F0E7
:20273000FD80717E012940F00081B07E0128F3D1318C0091F38B327F99F80610002011F0E2
:2027500037FE00E7297C012940F0FF80807827E0287C012840F0FD806178012909D1207FDA
:202770000F281CBF002010F075FC0020607000215CE7A078012807D10021A17023220F2192
:20279000484611F04DFEE1E62078012840F0E580002121704AE7297C012940F0E480C078B4
:2027B000002822D1298B481E288380B2002896D039E0287C012840F0DA8009F5AF76B07EA8
:2027D000810613D500F0DF000107B0760BD500F0F700B076308B0090B38AF28A718A99F800
:2027F000060011F00DFE00203070ACE6810740F1C28000F0FD00B076F5E7484611F0FCFDF3
:202810000128F2D00FE0002010F024FC0BE0484611F0CAFD2874E88A288304E0B9F80A00F5
:20283000E98B884226D00020BDE8F283407A0028FAD098F80110484611F0B2FD0120F3E794
:20285000A87E0F28DFD1FC21484611F0E5FD608900902389E288A18899F8060011F0E8FD98
:20287000E1E7484611F098FDD4E7B9F80A00B9898842D8D12821DEE7484611F089FD287472
:20289000E88A28830020B073F073CDE7484611F07BFD2874E88A28830020B072C4E7288B51
:2028B000401E288380B298B1BDE7484611F068FD2874E88A28830020F072B5E7484611F086
:2028D0005BFDA7E7288B401E288380B20028AAD1317A99F8060001297FF4FDAE222111F0A3
:2028F000BFFD4EE0484611F043FD2874E88A28830120307497E7288B401E288380B20028FD
:2029100091D199F80610222011F056FD39E0484611F09AFD7EE7288B401E45E70120F076A0
:20293000484611F021FD28747DE7288B401E288380B20028F8D1308C0090F38B327F99F8EF
:202950000610222011F034FD1BE0484611F008FD60E7484611F000FD5CE7288B401E28837C
:2029700080B270B15FE7484611F0F2FC52E748460BF0DAF94EE7288B401E288380B2002851
:20299000F0D1222157E700BF5C4D00202DE9F0434FF0000E44F6E8696FF004087246ADF17B
:2029B000240DC0F20109EC4650F8047F5FB159F80E30FF1A002FD8BFCCF8007005DD7B10FE
:2029D000CCF8003001E0CCF800805CF8043B9342A8BF1A1C50F8047F0EF1040E5FB159F88C
:2029F0000E30FF1A002FD8BFCCF8007005DD7B10CCF8003001E0CCF800805CF8043B934288
:202A1000A8BF1A1C50F8047F0EF1040E5FB159F80E30FF1A002FD8BFCCF8007005DD7B100E
:202A3000CCF8003001E0CCF800805CF8043B9342A8BF1A1C50F8047F0EF1040E5FB159F82B
:202A50000E30FF1A002FD8BFCCF8007005DD7B10CCF8003001E0CCF800805CF8043B934227
:202A7000A8BF1A1C0EF1040EBEF1200F9CDB0025501C2F46009C0246ED19401EA24203DA34
:202A900000F11003A34207DC23461B1A012B18BF002702D1022700E00127019B9A4203DA39
:202AB00000F110069E4208DC1E46361A012E05D1029EBF1CB24204DB08E07F1C029EB2421D
:202AD00004DAB44600F11006664508DC029E361A012E05D1039EBF1CB24204DB08E07F1CB1
:202AF000039EB24204DAB44600F11006664508DC039E361A012E05D1049EBF1CB24204DB7D
:202B100008E07F1C049EB24204DAB44600F11006664508DC049E361A012E05D1059EBF1CA9
:202B3000B24204DB08E07F1C059EB24204DAB44600F11006664508DC059E361A012E05D132
:202B5000069EBF1CB24204DB08E07F1C069EB24204DAB44600F11006664508DC069E361A96
:202B7000012E05D1079EBF1CB24204DB07E07F1C079EB24203DA00F11002B24205DC3246A5
:202B9000121A012A02D1BF1C00E07F1CEA191A2AFFF670AF1A2A04BF3D44401E861CA642DA
:202BB00008DC241A102C0C6006DB10229E420A6004DD0DE000220A609E4209DC1B1A102B4F
:202BD0004B6007DB1023029A4B60964205DD0EE000224A60029A964209DC121A102A8A60C1
:202BF00007DB1023039A8B60964205DD0EE000228A60039A964209DC121A102ACA6007DBA8
:202C10001023049ACB60964205DD0EE00022CA60049A964209DC121A102A0A6107DB102373
:202C3000059A0B61964205DD0EE000220A61059A964209DC121A102A4A6107DB1023069A22
:202C50004B61964205DD0EE000224A61069A964209DC121A102A8A6107DB1023079A8B61F3
:202C7000964205DD0BE000228A61079A964206DC121A102ACA6104DB1022CA6101E0002267
:202C9000CA611A2D80F2A48002240E1F0027234656F8042F022A01DB102A0BDB5DF8072014
:202CB000121A012A0AD1192D08DAAD1C34601A2D06DB59E032686D1C521C32601A2D53DA55
:202CD0003F1D202F50DA56F8042F022A01DB102A0BDB5DF80720121A012A0AD1192D08DA90
:202CF000AD1C34601A2D06DB3EE032686D1C521C32601A2D38DA3F1D202F35DA56F8042F6A
:202D1000022A01DB102A0BDB5DF80720121A012A0AD1192D08DAAD1C33601A2D06DB23E01E
:202D300032686D1C521C32601A2D1DDA3F1D202F1ADA56F8042F022A01DB102A0BDB5DF885
:202D50000720121A012A0AD1192D08DAAD1C33601A2D06DB08E032686D1C521C32601A2D0C
:202D700002DA3F1D202F93DB1A2D31DA091F002251F8040F102802DA401C6D1C08601A2DAE
:202D900026DA521C082A23DA51F8040F102802DA401C6D1C08601A2D1ADA521C082A17DAFD
:202DB00051F8040F102802DA401C6D1C08601A2D0EDA521C082A0BDA51F8040F102802DA22
:202DD000401C6D1C08601A2D02DA521C082ACFDB09B0BDE8F08370472DE9F04FADF13C0D65
:202DF0000C904008C0F00F81C64C2078002800F00A8101208DF81000606904A908F0DCFC56
:202E1000012840F0008104F14402DDF8148094F83E3092F900104546C8B2052B0D90B4F910
:202E300046000B951FFA80F93ED0B74B9246464694F8402058801F46397006EB4202B2429B
:202E500019D9521BD21C971035F9020B09F0B2F8834635F9020B09F0ADF84BEA001B7F1E01
:202E70005FFA8BF006F8010BEED1A748A649B0F9020091F90010AAF802008AF800104046C6
:202E90000590042110F0B3F9A07888F80000A078401CA0700D9F88F8017088F802904FEAB8
:202EB000292688F8036082E094F84000676B002D4FEA40063D4670D000202061A87830BBB5
:202ED00010F0C4FEA8802F78002F0CBF3920A87900214FF42472A87105F61A000BF05EFA62
:202EF0004FF48070C5F81408B74BC5F8AC3A012785F81878B54AC5F8B02A01232B70B4498A
:202F1000C5F8B41A1A46AA7080A7C5F8B87A281D0B900088B04240D8B8F1000F3DD0A8792E
:202F300039283AD8012005F614070090D5F8B06A386805F61A0241467823B047C5F81408B7
:202F5000DDF82C9095F818180026A0EBC10005EB400000F60A1AD7F898C209EB4612384664
:202F7000514608232432E04738793618AAEB001A0F2EF0DB08200090D5F8B46A05F10801AA
:202F90000F22012305F12800B047D5F8C05A4046494639220023A84720614046052110F021
:202FB00026F9A07888F80100A078401CA070A28884491020012305F04BF9474688B1002556
:202FD00003E094F843006D1C3F1894F84100A84207DD94F8431001203A460DF0A9FC00286A
:202FF000EFD007980027029002A9606903970CF06DFF01208DF81000606904A908F0DCFB39
:2030100001283FF400AF0C98400901D309F09CFC0C98C00801D309F009FB0C98394C800954
:2030300025D394F83C00022821D194F83D10A069032917D110F0E8F8606905F09FFA94F8EB
:203050003E20A169207050B10320052A84F83C0003D0042A0BD12FA302E034A300E038A33A
:20307000084600E03DA3072100220FF0AFFA0C9800092ED394F83C00E169012801D041B392
:2030900022E094F83E0001210AAA8DF8280000200DF04EFCA269E169C0B9104607213BA340
:2030B00000220FF093FA94F83E00052805D00020A4F8460084F8440001E00EF0A8FA022021
:2030D000E16984F83C0021B1202001E011B108208847A2690C98800811D31046062135A3C2
:2030F00000220FF073FA11F02FF985B20420E16984F83E0001B18847284611F021F90FB0E1
:20311000BDE8F08FE00F0020E429002043433236585800C0414450434D2053747265616DF0
:20313000205374617274656400C046C06D5342432053747265616D205374617274656400FA
:203150004661696C656420746F207374617274204932532073747265616D00C053746172D5
:203170007465642073747265616D207768656E2041637469766520776173206E6F7420729A
:20319000657175657374656400C046C053656E7420537461727420436D642C20696E6974FD
:2031B00069616C697A696E6720656E636F64657200C046C0493253204572726F722045760F
:2031D000656E7400B17F0110DB6A0000895B00009DDB00002DE9FE4FDFF87483D8F8047041
:2031F0001FB9BDE8F74F11F0A7B83878DFF86493DFF864A3DFF8644301281CBF0228042868
:2032100041F64C5B05D0402818BF802800F0C28097E110F0FBFB0028FAD0387806F06AFA68
:2032300005466E6816B900200FF014FFDFF830134878002800F0868003F034FA10F0F2F958
:2032500001900168009128464F6809F019FC02284CD02978022902D0042921D071E1052126
:20327000217018B911F064F85844B0603069C17E01F0EF01C1763069C17E41F08001C17622
:203290003069C17E01F0F00141F00201C1760221B86882443069C0F820A088F8021077E0F6
:2032B0000621217018B911F043F85844B060AD480168887C11F038F83069C17E01F0EF0141
:2032D000C1763069C17E41F08001C1763069C17E01F0F00141F00201C1760421B8688244B6
:2032F0003069C0F820A088F8021051E000980178802913D108229C4822700178012903D036
:20331000974A5078022803DB38690121C17213E0D9F828103A690878D0720DE092490720A6
:2033300020700A783869012A02D10123C37203E0D9F828104A78C2720198894A8179009893
:203350009170FAE0002D14D02878AF420DD102281ED0042805D183480168887C10F0E4FFCD
:2033700016E000200FF076FE12E0022802D0042804D0E6E005202070022007E0062020708C
:2033900078480168887C10F0CFFF042088F802002846D2E072494878002800F0968003F0C0
:2033B00081F910F03FF90190016800914D686C49887810F037F9029010F02EFB10F0070F55
:2033D00053D098F8020006F095F906460099776809F056FB022848D03178022902D0042981
:2033F0001AD03FE00521217018B910F0A1FF5844B8603869C17E01F0EF01C1763869C17E00
:2034100041F08001C1763869C17E01F0F00141F00201C17602211DE00621217018B910F0DD
:2034300087FF5844B8604F480168887C10F07CFF3869C17E01F0EF01C1763869C17E41F0BA
:203450008001C1763869C17E01F0F00141F00201C1760421A86882443869C0F820A088F8E3
:20347000021069E000200FF0F5FD02980199884229D000980178802913D108223A482270FD
:203490000178012903D0364A5078022803DB28690121C17213E0D9F828102A690878D0721F
:2034B0000DE03149072020700A782869012A02D10123C37203E0D9F828104A78C2720198F9
:2034D000274A81799170009837E010F0A5FA10F0070F3BD098F8020006F00CF9064646F2F0
:2034F000A81530787768022802D004280FD02DE00520207010F01CFF2918B86810F010FF24
:2035100018B910F015FF5844B860022012E00620207010F00DFF2918B86810F001FF18B9FA
:2035300010F006FF5844B8600E480168887C10F0FBFE042088F802003046BDE8FE4F08F000
:203550007BBBBDE8FE4F00200FF084BDBDE8F78FBC290020405B0100F0D8FFFF6F4F002063
:20357000684E0020184F0020734F00202DE9F04FAD2283468A468BF8002000208BF80200F7
:20359000DAF80430DAF80810DAF81000DAF80C200BF104091B0701F00F0100F00F0041EAF5
:2035B000136161F31F1240EA0210010A09F8011B09F8010BDAF81430DAF81820DAF81C1073
:2035D000DAF82080ADF1840D03F00F0302F00F0201F00F0108F00F0843EA001342EA0312A1
:2035F00041EA021148EA01184FEA1820694609F8010B504609F8018BFFF7C8F90098012270
:2036100002FA00F1DAF80400DAF820E0DAF81CC0491EC0F10F031030994002FA00F0DAF856
:20363000187018900198089102FA00F1DAF80800491EC0F10F031030994002FA00F0119081
:20365000DAF80C000991114600F1100201FA02F212920A46DAF81010164601F110033546D7
:20367000144602FA03F31393CEF10F031E930EF1100ECCF10F031D9305FA0EF51F950CF177
:20369000100CC7F10F03079D1C9310373346AA4003FA0CF304FA07F5DDF80CE01693069F32
:2036B0001F9BDDF810C0BC401793059F1C9BC0F10F00C1F10F01BE40521E0127761E07FAED
:2036D0000CF77F1E1A97DAF814701595641E9E40C7F10F0CCDF86CC04FF0010C10370CFACC
:2036F0000EFCDDF808E0CDF864C04FF0010C0CFA0EFCACF1010C4FF0010E0CFA00FC0EFAAC
:2037100007FE19981B9F0D96401ECDF850E088400B901A991D98CDF828C0B94084400C9161
:20373000189F0E941E981097824000200F928646ADF104034FF0000C53F8047FEFB10CEB1F
:203750004E110DEB0C020DEB0C055144126C2E6A4C6AC01908FA07F80F282244A6FB02214F
:2037700041EA080809D9083828FA00F109F8011B083828FA00F109F8011B53F8047F0CF171
:20379000040CEFB10CEB4E110DEB0C020DEB0C055144126C2E6A4C6AC01908FA07F80F2892
:2037B0002244A6FB022141EA080809D9083828FA00F109F8011B083828FA00F109F8011BD2
:2037D00053F8047F0CF1040CEFB10CEB4E110DEB0C020DEB0C055144126C2E6A4C6AC019BF
:2037F00008FA07F80F282244A6FB022141EA080809D9083828FA00F109F8011B083828FA68
:2038100000F109F8011B53F8047F0CF1040CEFB10CEB4E110DEB0C020DEB0C055144126C97
:203830002E6A4C6AC01908FA07F80F282244A6FB022141EA080809D9083828FA00F109F87E
:20385000011B083828FA00F109F8011B0CF1040CBCF1200FFFF670AF0EF1010EBEF10F0FF4
:20387000FFF666AF082819D306094FEA1017C0F3C0010CD0083828FA00F27F1E09F8012B35
:20389000A0F1080028FA00F209F8012BF2D1002904DD083828FA00F109F8011B28B1C0F177
:2038B000080008FA00F809F8018BA9EB0B0021B0BDE8F08F2DE9F047CC4C20780E46F10B88
:2038D000ADF1280DC90340F08480B00871D2E069216A72080ED2F00828BF86F0040680F00D
:2038F0008081700904D30AF093FD86F0100678E1002077E1858861B904F11600BC4A0090B8
:203910004FF6FF710223012010F006FD0146216219B304A800900027019702230293FF222D
:203930000392E28A284608AB03F0D8F958B99DF821009DF82020216A12EB002204D04989A5
:2039500028460DF0AFF9216AE28A08463B464FF6FF7110F0DDFC01462162A069002918BF1D
:2039700086F001062CD168B14368E1695BB18888002201219847A069E7694368B888032108
:2039900000229847E169888810F0BEFC04280BD10DF022FC021C07D0A06928B143681BB191
:2039B000E0698088042198470FF046FB86F0010617E10020014603F081FC18B186F00206CF
:2039D000012102E0022186F00206207808F01AF807E109F091FD5FEA000800F00081054614
:2039F00028784FF0010AB03800F0EE80401E00F0E3801F3840F0ED80A878801F00F0D880DB
:203A1000C01E00F0BE80401E4BD0401E33D0401E00F0C980801E40F0DF80687806281FD1EE
:203A3000B8F8040010F06CFC071C19D0A07B401E12D0401E0ED0401E12D1002140F20940DA
:203A50000A4601F03FFEB8F804103878052210F053FC05E0A988F8E7A888797904F058FE8D
:203A7000A069002800F0B8804368002B00F0B4806A78022182E00FF0B3FE002800F0AC8088
:203A9000A06948B107683FB12869009069892A7B6B7BE81CB8479FE06889514610F028FCE9
:203AB0009AE068780027002858D1A879400855D3E069002852D10DF1120039460E2210F040
:203AD000C1F8A88810F01CFC071C00F08580686948B97879B91D06228DF818000DF112004F
:203AF0000FF08EFC1DE0D5F8149099F81000062209F111018DF818000DF112000FF080FCC2
:203B100007F10C00B91D06220FF07AFCB81D062209F111010FF074FC99F8100040F00200D3
:203B30007871A8799DF81F10C0F3800008438DF81F00A879000905D39DF81F0040F0080097
:203B50008DF81F000DF11200414603F0B7FB20B92078022107F056FF41E01527A069002807
:203B70003AD04368002B37D0A8886A7851469847002F31D0A06903213A464368A88898472F
:203B90002AE0E878291D002208F064FB0A2823DA410001EB800005F10C0225300421C0B220
:203BB00005F05CFF18E0A888297B09F033FD13E0A8880CF0ABFA0FE02F7957B96888E988E4
:203BD0002A890DF06FF804E0297905F1080010F057FCBAF1000F02D028460FF0DBF886F4A1
:203BF0000046B0B20AB0BDE8F087C046F4090020CE5B01002DE9F84FC24DDFF80C83296887
:203C1000DFF808A3887C0FF00DFD2A6800210446517104F12E062868BD4D0CF077FF0120F0
:203C3000607104F5937998F80100401C88F80100182780200AF078FA20606969C160B54875
:203C5000018949007180C079B1884000307049003089B180000130813146204610F044FB3D
:203C70000520A081204610F03BFB286810F034FB062210F8081FC1F3801189F80010811CC9
:203C900004F590700FF0BCFB2968A34D0A680020107141F60202A17928687943425200227A
:203CB000A17979430144001D4A80A179794342500121204610F00CFBA27929687A4311443D
:203CD0008873A1792868794308440021C173A179286879430844807BF072DAF80020A079B8
:203CF000296802EB401278430844026101F11400A1798A4A79434250A07910F0E5FAA27925
:203D1000DAF8001052018850A2795301C85820B90721204610F044FBF0E0DFF804B2DBF821
:203D3000000000EB021010F0CBFAA179DBF80020DAF80000DFF8ECB102EB0112031D4901F4
:203D50005A50021DA3795B0104F16801D2580A60A279520183588B60DBF81410097894F8E8
:203D700006E0CA074CBF102200228B074CBF202300235FEA417C4CBF4FF0400C4FF0000C33
:203D900009074CBF802100211A434CEA020200EB4E100A4342F00F020272DAF80010A07957
:203DB00001EB40110B224A72DAF80000A17900EB411004228272DAF80010A07901EB401054
:203DD00059490A78012A02D10123C37203E0DBF828100A78C272DAF80000A279636A00F109
:203DF0000C0152018B50A17900EB4110A16A0174DAF80000A17900EB4110A16A090A4174A7
:203E1000DAF80000A17900EB4110A16A090C817408214648007807F0F5FD2168A279286809
:203E3000CB687A4302449360CA680A61CA688A6000F10C02A17979430C30525C02F0EF02EE
:203E50004254A0792968784301F10C020C31125C02F07F020A54A0792968784301F10C0276
:203E70000C31125C02F0F00242F002020A54A179286879430844417B01F0F00141F001018C
:203E90004173B688DBF830C0DAF80010A37940F6C4104643DCF8000001F114025B01361A44
:203EB000A6F51676D650A27901EB4210C17C01F0F00141F00401C174A17928684F432168FD
:203ED000C0194860B9F83A001B2804BFB9F83C101B2909D1B9F83E00B0F5A47F04BFB4F81F
:203EF0006611B1F5A47F03D01421204610F0A4FA0F4908200870A17988F80210BDE8F14FDD
:203F1000FFF768B9184F0020684E0020844E0020AC4B0020844C0020804E00205C4D00206D
:203F30008C4E0020405B0100734F00206E4F00206F4F00202DE9F04FADF1240D03930292F0
:203F50000028019108BF012000F08D8140F6E071C2F20001D1F83480D8F8BCCA392208F14E
:203F70000401E047049098F8010000284DD108F22C5000214FF42A720AF010FA0A20C8F836
:203F9000D4074FF0140BC8F8D8B74FF01E0AC8F8DCA74FF0010A88F800A04FF02809C8F845
:203FB000E0970820C8F828053227C8F8E47788F801A03C26C8F8E8674625C8F8EC5750247D
:203FD000C8F8F0474FF05A0EC8F8F4E74FF0640CC8F8F8C76E23C8F8FC377822C8F8002864
:203FF0008221C8F804184FF08C0BC8F808B89621C8F80C184FF0A009C8F810980FF026FECE
:20401000A8F80400049888F806000198002800F02981039800281CBF00210160049800288B
:2040300040F3208108F1040108F2D47E08F5A56005914FF00009CDF800E00599009B01EBA8
:20405000491206914FF0100A079345F2A80102F509721B1FC0F2010153F804CFBCF1010C53
:20407000C3F800C025D54FF09F0CC3F800C0D0F804E0C0F884E2D0F808B0C0F888B2C768EB
:20409000C0F88C720669C0F890624569C0F894528469C0F89842D0F81CC0C0F89CC2D0F8F4
:2040B00020E0C0F8A0E2D0F824B0C0F8A4B2D3F800C0D1F804B0D2F804E00C6815688E686F
:2040D00097680EFB0BFED1F80CB005FB04EED56807FB06EE0F69166905FB0BEE4D69D2F8A5
:2040F00014B006FB07EE8F6996690BFB05EECD69D2F81CB000EB8C0CBAF1010A06FB07EE0B
:2041100001F120010BFB05EE4FEAEE3ECCF804E0A2D1069A079944F6687C4FF0000BC0F2A9
:20413000010C02EB091202F22444079B51F8046BABF1080202F00F02DCF8007053F822301A
:2041500000EB860A00EB830EDCF80420DAF80460DEF80850DCF8A03006926B43DAF80C2014
:20417000069D07FB0633DCF8A460DEF8107005FB0232DCF8083006FB0722DAF81470DEF88D
:204190001860DAF8245003FB0722DCF8A870DCF80C3007FB0622DAF81C70DEF8206003FB52
:2041B0000722DCF8AC70DCF8103007FB0622DCF8B060DEF8287003FB052206FB0722D31311
:2041D00013F5004FAEBF1AB248F20002CFF6FF7247F6FF7E9E45B8BF72460BF1010BBBF14D
:2041F000080F0CF1140C24F8022B9EDB09F10109B9F10F0FFFF621AF0298DDF804C0F028DD
:2042100004D202284FEA500101D226E078214F100229B8BF4FF0000E14DB08F5856021F062
:20423000010E30F9022B0CF8012B12120CF8012B30F9022B7F1E0CF8012B4FEA22230CF8E0
:20425000013BEED1480808D308EB4E08B8F928048CF8000000128CF80100039F17B1490034
:2042700038460160049809B0BDE8F08F2DE9F04F09AFADF13C0D08900A92388809911E46F0
:20429000ADF81800101C08BF002000F07581017800274FF0010B401C4FF0FF39B846DA467C
:2042B0000A9061E1252940F056810178401C0A902D2918BFADF8068004D10178ADF806B04D
:2042D000401C0A9030291CBF4246434604D10178401C5A465B460A902A29CDF800804D46E3
:2042F00017D1049330680A9BCDF80890C01C20F00300001D306050F8044C1978002C009410
:2043100003F101000A9018D5ADF806A06442009413E044460AE0600000EBC4004018A0F12D
:2043300030040A9801780094401C0A90302901DB3A29F0DBCDF8089004932E2929D1017873
:20435000401C2A290A9011D13168CDF80880C91C21F00301091D316051F8045C002D48BFAE
:20437000454601782B46401C0A9011E0454643460AE0680000EBC5004018A0F130050A98FB
:2043900001782B46401C0A90302901DB3A29F0DB02930AB1224604926C2904D04C2918BFC7
:2043B000ADF8048004D10178ADF804A0401C0A900BA8CDF80C800FAB07906429059300F0CD
:2043D000828069297FD0BDF818C075296DD0782969D06F2965D070294ED063293ED07329EE
:2043F00022D00A98401E0A90099801281AD966490C68B5F1FF3F03D0A84288BF6D1C05D8F3
:204410006FF00041814294BF0D1C099D029508A80AA932466B46A04709993F18091A039846
:20443000099165E0454617E03068C01C20F00300001D306050F8040CBCF1010F014608B9BA
:204450004FA0014607910FF01FF90390B5F1FF3F4FD0A8424DD9039528464AE03068C01C1D
:2044700020F00300001D306010F8040C8DF82C005D46039558463CE0082035680490E81C51
:2044900020F00300001D306050F8041C082210230FA80AF0E7FA401E07904021017007988F
:2044B00023E0082302E0102300E00A233068C01C20F00300001D306050F8041CAA42BCBF99
:2044D0002A1C04920DE03068C01C20F00300001D306050F8041CAA42BCBF2A1C04926FF0C5
:2044F00009030FA80AF0BEFA07900599081A0390009C241ABDF8065000945DB906E008A828
:20451000202109AA0EF0B6F87F1C009C641E0094F5D50398401EB0F1FF3F03900FD1BDF8D4
:20453000060001281CD10098401E009018D408A8202109AA0EF09EF800987F1CF4E70798F8
:20455000017809AA08A80EF095F80798401C079003987F1CDEE708A809AA0EF08BF87F1CD8
:204570000A980178401C0A9000297FF49BAE089808B14146017038460FB0BDE8F08FC0467D
:20459000286E756C6C2900C0385B0100BB482DE9F84F0025BA4CB849056094F8E200002824
:2045B00000F06581012800F02F81B64E02283CD0032840F05C8151F8250CD4F8B8100029A3
:2045D000A0F5C060C4F8D400B8BF49420028B8BF4042814226DA4FF08057D7F8A401456869
:2045F000B4F8BC0030214FF47F42082300903046A847D7F8A4014568B4F8C00004214FF4D9
:20461000F802122300903046A847D7F8A401B4F8D070456820214FF440620A2330460097F9
:20463000A847012584F8D8501CE151F8258C0FF09FF92F4600B901273946934F38680028A4
:20465000FCD0B146012609F10409D9F82CA03E6009B10FF093F9CAF30720C4F8BC000FF07E
:2046700087F9AA4600B9B2463B68002BFCD0D9F800B0BAF1000F3E6001D00FF07FF9CBF390
:204690008440C4F8C0000FF073F9AA4600B9B2463B68002BFCD0D9F81C90BAF1000F3E604F
:2046B00001D00FF06BF9C9F38120C4F8D000B8F5C061C4F8B81000F09C8094F8D80068B9EA
:2046D000C4F8D410D4F8C000C4F8C800D4F8BC70C4F8C470D4F8D030C4F8CC30D4F8D410FE
:2046F000D4F8BC30002954BF02206FF0010004F1C802176801EB41014018411000EB917132
:2047100007EBA1001060D4F8C810C4F8C43000291CDD1E293CDDD4F8CC0030B93429B4BF5F
:2047300015391E21C4F8C81025E02A29BABFD4F8C8000B381E20C4F8C800D4F8C4003F28E7
:20475000B4BF401C3F20C4F8C4001FE0D4F8CC00032812D011F10B0FC6BFD4F8C8000B3087
:20477000301CC4F8C800D4F8C4000028C4BF401E051CC4F8C450032508E011F1150FC6BF14
:20479000D4F8C8001530301CC4F8C800C4F8CC504FF08057D7F8A401B4F8C43030214FF4CA
:2047B0007F424568374800930823A847D7F8A40104214FF400321123456832480096A84761
:2047D000B4F8C860D7F8A40104214FF4F802122345682C480096A847D7F8A40120214FF44C
:2047F00040620A23B4F8CC60456826480096A84701E084F8D85040F2FF50404502D8801C61
:2048100040452FD2082030E051F8251C1F4F4BF2F5204843060A3868C0F3814001280CD1CB
:204830001B480068006880470CF030FD0FF0ACF83111C010484306EBE03694F8E50030B9A4
:204850001448006820F07F408019460801E084F8E5501148310C0660012741600F4D876034
:20487000287808B90B2000E0052084F8E400FCF7F7FABDE8F88FC0462D400C402C500C40A0
:204890007C0C002000A00C4000800C40B43F0050EC010010102009403C600C40CD590100E0
:2048B0002DE9FF47B94C0F460646F80B80F04381B80880F03481607ADFF8DC82B90F80F083
:2048D000B680E079390914D2B80BC0F0558104F13C000FF09BF9061C08D0706830B1756874
:2048F000F068B6F9241000222023A84727F4005742E1012800F09680E06870300FF06CF909
:2049100068460DF029F820B1009904F198000EF097FF00254FF00109E5709D4884F8059077
:204930000FF014F8284609F0BAF99A4904F160002A460FF05FF940460068006B8047606162
:20495000A2782169A369401A012A18444FEA1030A06105D163781BB9E169B0EBC12F39D9D0
:20497000DFF8388284F80290A8F1150000686570000A2FD340F60900A08494F8310000F081
:20499000F00040F0010084F8310094F8300000F0F00084F83000A5620FF024F908F6FF725F
:2049B00011686FF0020321F00201116004F12401C8F8FB3F7A4AC8F8EB1F11688908FCD30A
:2049D000C8F8FB3FD8F8FF1F41F00201C8F8FF1F0FF0B6FC25610CF077FC2378714805606E
:2049F0001BB9E06838300FF015F902200DF06CF8112007F067F8307C10B90E2007F062F818
:204A1000207A18B1257205200DF05EF8674965710878A57140B10D7004F1BC0004210FF0B5
:204A300001F901E00020E07127F00807A4E020B104200DF049F800206072B168088840F66C
:204A500002094FF0000A81450AD0B0F5C15F07D00A8B4FF61F60104040F43470088306E0C4
:204A70000A8A4FF61F60104040F4347008822069F0B1D8F85400016804208847C0B1D8F831
:204A900000002569006B8047F168401B728AF060000BF06080188842F06002D209184808F4
:204AB000F06040F6C41181422CBFB0F5FA7FF16094F8310010F00F0F0CD1718C09F10700B8
:204AD000884207D1B56930466FF4807152464FF00073A847344904F1600052460FF08AF818
:204AF000607860B10220ADF8040001A80DF0D8FDBDF80C0084F801A04011A4F8600101202A
:204B1000E07084F804A00BF007F97569514630464FF080630A46A84727F000572CE005F05F
:204B300047FC04F144000FF071F827F0020708B147F0020720E00FF055F8014604F14000A0
:204B50000FF064F8061C12D0356AA8080FD225EA0500306208460FF0F3FB706850B12A468C
:204B7000F068B6F9241075680023A84702E008460FF0E6FB27F4804727B104F1BC00394601
:204B90000FF050F80090BDE8FF87C0461020002051AD0000D92901008C01001015000440B6
:204BB0001010044000000460097F0000172A00202DE9F043B648B74D0178002985B04FF0D3
:204BD0001D0807D0052908D0062900F0A780072918BF082900F0598151E1AF4E3168086843
:204BF00000F10807387810F00F0F1CBF00F00F01062908D000F00F02022A1CBF00F00F00EE
:204C1000012840F042810622B91C68460EF0F8FB3878A24CC0F3801900F00F0001283BD1AE
:204C3000062207F1080102A80EF0EAFB3F78FF0902A938460FF040FBD0B12068807C02285D
:204C500018BF03285DD105F10D0102A80FF030FB002856D021680120C8720622707940F0C9
:204C70000400707102A920680C300EF0C9FB13E029788F4210D10622691C02A80EF07AF801
:204C900050B12878717960F38201717106222068691C0C300EF0B4FB694648460FF00CFB60
:204CB00000282ED070696946001F0FF0FDFA002827D1294668460FF0F3FA01462068807C2D
:204CD000FF291FD008FB01F16C18002818BF02280BD0012818BF032813D16A5C7069611C05
:204CF000001F0FF0D9FA10280BD070696B46E21D2146001F0FF0CCFA06226946E01D0EF0FA
:204D10007FFBC2E0002818BF0228FAD1706901234A466946001F0FF0B7FAB6E0604E30688C
:204D3000016801F10807387810F00F0F1CBF00F00F00012820D10622B91C68460EF060FB33
:204D50003878DFF86091C0F3801400F00F00012846D1062207F1080102A80EF051FB3F7871
:204D7000FF0902A938460FF0A7FA20B3D9F80000C07A022818BF03287CD105F10D000FF0F9
:204D90007FFA002876D105F10D0102A80FF090FA00286FD0D9F80000062202A90C300EF09F
:204DB0002FFB707940F004007071062202A9E81D0EF026FB14E02878874211D10622691CD8
:204DD00002A80DF0D7FF58B12878717960F3820171710622D9F80000691C0C300EF010FB38
:204DF000694620460FF068FA002843D0294668460FF056FAFF283DD0D9F8001008FB00F777
:204E1000887AEC1910BB887C0EF00CFC814699F82601022811BF0328E95D00F00100814208
:204E300028D109F5907506222946601C0DF0A2FF00B3012089F826010622707940F00800F0
:204E50007071694628460EF0DBFA0EE03069EA5D611C001F0FF020FA10280BD030696B4691
:204E7000E21D2146001F0FF013FA06226946E01D0EF0C6FA31680A680020107105E000204E
:204E90000EF0E8F886200FF0F7F905B0BDE8F0836F4F0020AC450020D04B0020144F002015
:204EB000AC4B0020184F00202DE9F04F0768ADF14C0D0E9040688B460F900FF045FA97F806
:204ED0009810012903D10FF03BFA00205CE1012187F898100FF034FA002038639BF80000C7
:204EF0003870DBF804007860DBF80C000BF11001F8600A6807F1100632608988B180DBF8E0
:204F10001600C7F81600BBF81A007883DBF81C00F861DBF820003862DBF824007862DBF855
:204F30002800B862DBF82C00F862DBF83010396300250D712C46FC60FA233B82798A40F297
:204F5000A312114302EA010078824FF49076BE821125BD750124FC751E233B7622467A7680
:204F70007021B9762646FE76397E0026304601F003056D1E03D06D1E08BF081100E00E116D
:204F9000B97D01F003056D1E05D06D1E04BF00EB2110C0B202E006EB2116F6B2BD7E35F084
:204FB0007F050CBF02220322F969002D01FB02F206FB02F814BF032202227E6A51434843AC
:204FD00010904044B6FBF0F0119003281AD3B8F1000F08BF0020109E0EB111994018F96AE2
:204FF000B1EB001F0ED80F98807906F081FE0A2006F07EFE0E9804F0D7FF68B90F9880791E
:2050100006F060FD0FF0A0F9002187F898100FF097F900200E90B6E05D4CB8F1000F04BF46
:205030000020206330D004F1480500212846FBF713FC2563002104F13C052846FBF70CFCA4
:20505000DDF84490002604F12C0000F1580A0560BD6A386A119B05EB061508FB0600E860C7
:20507000F01AB0F1FF3F05D0E06A29460FF000F9012001E0E56106202872B9F1010906F1FE
:2050900001064AF8045BE3D11098002804BF0020A0633FD004F1600500212846FBF7DCFB2D
:2050B00004F154060021A5633046FBF7D5FBB8F1000F666314BF1198002008FB00F60D9677
:2050D000119EA14600254FEA001A04EB800000F18408BC6A10990D983B6A119A544401FB6E
:2050F00005015818E060A81AB0F1FF3F06D0D9F8340021460FF0BCF8012002E0C9F8284028
:2051100006202072761E0AF1100A05F1010548F8044BDED101A80021302208230FF0A4F802
:205130000E980F990690487900240990194A0094097901AB07F134000FF092F801A8242234
:20515000082321460FF088F8012001AA8DF81C00214607F16C000FF07BF8387880B901A8F2
:205170002146242208230FF077F82046214601AA8DF81C0007F150000FF06AF8064801E0E8
:20519000DBF80800B8600E9813B0BDE8F08FC046700E0020F57000002D3B01002DE9F043C4
:2051B000A44C0D4694F83E100128ADF1340D3DD02888012840F0E58068680078042828D0D3
:2051D00005281CD0002840F0DC80A06961B9072100226DA30DF0FAF94FF6FF70E08094F8E5
:2051F0003F0002F061FFCCE0072100226DA30DF0EDF94FF6FF70E08004F0CEFDC1E0A069A8
:2052100071B9052002F050FF0CF001FA6CA3A06907E0A06921B9042002F046FF71A3F6E7C9
:205230006AA3072100220DF0D1F9AAE0E088042928D0052949D16968A26AD4F818C0E66A10
:20525000491C0F78431C03F0FF039F4204BF521CA26238D00B781B1ADBB2D218A2620B782A
:205270001B1ADBB2F618E66200960192097861A3002202910721039060460DF0A7F96968D4
:20529000491C20E06968226AD4F818C0666A0F78431C03F0FF039F4204BF521C226212D075
:2052B0000B781B1ADBB2D21822620978091A5AA3C8B23618666207210096604601920022E1
:2052D0000DF084F969680878E0802078002858D002208DF81800606906A906F06DFA0028EF
:2052F0004FD094F83E00089905283AD06A68D3789078DFF844810D4600EB032000B2A4F86D
:205310004A0094F84010A8F8040053784F00161D791937F001074FFA83FC88F801301BD041
:2053300092F90100491BC91C84F848008F1016F8010B814600F00F0008F026F925F8020B04
:205350004FEA291008F020F97F1E25F8020BEED1B8F9040098F901C0A4F84A0084F848C0C3
:2053700007E094F84020686804F110035200FEF7E1FD0A980027059004A9606904970AF0E4
:20539000A5FD0DB0BDE8F08352656365697665642053746F702C2072652D737461727469B2
:2053B0006E6700C052656365697665642053746F702C2073656E64696E672073746F700041
:2053D0006D5342432053747265616D00416C72656164792073746172746564207374726535
:2053F000616D00C0414450434D2053747265616D00C046C04D697373696E67206672616DB8
:20541000652C205045522025642F25642028256420767320256429004D697373696E6720DD
:205430006672616D652C205045522025642F256400C046C0E00F0020E4290020F0B58E4E3A
:205450008E4C37788E4A8F488F4B90490D2F83B041F2064500F20781DFE817F00D01050108
:205470000501050105010E00490005018900C400C400E200E200E90085494E881E80022E7D
:2054900010602AD940F20440361A24D0761E24D040F2FB30361A17D04FF44060361A1CD094
:2054B000761E18D0761E012E17D9361F13D0761E13D0761E0FD04FF47E70361A0DD0761E99
:2054D00009D0F61E07D00DE0887B4D8025280CBF2720401E88736F483DE000200DF0BAFDDB
:2054F000852076E000200DF0B5FD842071E06A494E881E80022E10602FD940F20440361A48
:2055100028D0761E29D040F2FB30361A1BD04FF44060361A21D0761E1CD0761E012E1CD902
:20553000B61E0ED0B61E15D0761E16D0761E11D04FF47E70361A10D0761E0BD0F61E09D044
:2055500010E0564807E0887B4D8025280CBF2720401E8873524810603DE000200DF07AFD83
:20557000852036E000200DF075FD842031E04D498978FF2953D0106040F204461820414392
:2055900049480068851C6D5A1D80AD1B012D474B71D94FF47F76AD1B11D04FF44066AD1B99
:2055B00011D0AD1E012D84BFED1E012D0BD9AD1E012D60D940F2FD36AD1B06D103E0801CEC
:2055D00041F202454552136005E000200DF042FD85200EF051FE207803B0BDE8F0400121C2
:2055F00006F010BA40F204424888188090421CBF41F2084290423ED041F60402904211D100
:205610002B4C2C4A25682C4800680023CDE9002355F8086F294B0222B04729490880F7BD27
:205630004888188000200DF015FD85201FE04888188002280DD940F20442801A1BD040F674
:20565000FC72801A05D0083815D04FF47F72801AE8D1887B801CC0B2B528A8BF66208873DB
:2056700000204880F7BD00200DF0F4FC8420BDE8FE400EF001BEF7BD6F4F00206E4F0020BE
:20569000204F0020AD3B0100504F0020CC4C00209C4C0020BDE000006C4C0020053C0000CD
:2056B00041E00000684E0020804E0020B1880000F04E002002000080EC4E00200D1B010059
:2056D000424F00207CB5954D144602460026A2F58062182A1AD8DFE812F015010E0106018C
:2056F000FD00F500EF00E700E1001900D500CD00C500BB00AF001900A700850073006C00E3
:2057100057004E0043003A002D002400282880F28980022940F0868021880EF095FD064655
:20573000F9E0012940F0F680002C00F0F3802A461232B7E0102940F0ED80002C00F0EA807A
:2057500028465030102221460DF05AFEE3E0012940F0E080002C00F0DD802A46921DA1E0C7
:20577000262940F0D780002C00F0D4802A4602F160002622E7E7012940F0CC80002C00F038
:20579000C9802A46521D8DE0602900D144B9012940F0C080002C00F0BD802A460D3281E00A
:2057B00005F18600214660220DF02AFE01206873B1E0012940F0AE8020780EF041FDAAE0DC
:2057D000012940F0A7802078022800F3A3802A460C3210702078022814BF301C01200EF032
:2057F0002BFD98E0072940F09580611C684606220DF05AFC20786946324606F02BFD0446B7
:205810000A2C0FDA0EF014FD38B9204604F006F80DF00EF80AF0ACFA7DE02A4601202C3212
:20583000105578E0022676E0012973D12178042970DA2A460E3254E001296BD12A4621784C
:20585000D07B0028D17366D12078012863D1E1E701295FD1217807295CDB10295ADC2A4654
:205870000B323EE0012955D121780A2952DA2A46093236E001294DD1217802294ADA2A4614
:2058900008322EE0002945D10EF0D2FC10B90DF062FEBDE72A460121103222E0012939D1D1
:2058B0002A460A3221781CE0012933D12178022930DA2A46D21D14E010292BD12A4602F1B0
:2058D00040003FE7012925D12178022922DA2A46121D06E001291DD1217804291ADC2A46A9
:2058F000D21C117017E0012914D12178022911DA2A46921CF5E702290CD120882A46143214
:20591000108008E0012905D121780229DCBF2A1C521CE6DD182630467CBDC046F409002019
:205930002DE9F04F8246DAF800600C465FEA0208ADF11C0D14BF00214FF0FF3106F14800FA
:2059500083460DF0D2FE002818BF0B2040F00D8100258848F460B8F1010F057007D0657096
:2059700002200CF045FA06200CF042FA01E0012060702078012840F2AB80801E012868D964
:20599000801E012833D9801E012800F2DF800EF029F906904FF0805000F5EE77D0F8DC0148
:2059B000A378466A009321782846062908BF0120019001200290A068228AE1686368B04758
:2059D000814606980EF0BCFCB9F1000F40F0C080B8F1000F02D00DF0E3FC02E050460CF099
:2059F000B4FB002800F0A4803868806A2AE00EF0F9F806904FF0805000F5EE77D0F8DC0185
:205A1000012306680093A168A27860682478AC46042C08BF9C466346B047814606980EF0FC
:205A30008FFCB9F1000F40F09380B8F1000F02D00DF0B6FC02E050460CF087FB002877D031
:205A50003868406880474A49C1F8B0510D6081467EE00EF0C7F806904FF0805000F5EE768D
:205A7000D0F8DC01E38A87690093E0680190208B0290A0780390207D04900121059122783D
:205A90002846022A08BF081CE1786268A368B847814606980EF054FCB9F1000F58D1B8F106
:205AB000000F02D00DF07CFC02E050460CF04DFB00283DD03068006A80475FEA000947D15C
:205AD0003068C569A168E28A2369E078A847BEE70EF088F806904FF0805000F5EE76D0F8BF
:205AF000DC01E38AC7680093E0680190208B0290A0780390207D29460490012005902578D6
:205B100005B9014608466268A368E178B847814606980EF015FCB9F1000F19D1B8F1000F26
:205B300002D00DF03DFC02E050460CF00EFB08B914201AE03068406980475FEA000907D1AF
:205B5000306802692169E078904780E74FF0FF39B8F1010F05D002200BF0B6FF06200BF01A
:205B7000B3FF58460EF056F8484607B0BDE8F08F504502401E2A00202DE9B0431C4691468F
:205B9000884684424FDCC11000EB117121F00F01411A082951D198F80F5098F80E10430049
:205BB00009EB030241EA052122F8101C98F80C1098F80D5041EA052122F80C1C98F8001079
:205BD00098F8015041EA052122F80A1C98F80A1098F80B5041EA052122F8081C98F802107D
:205BF00098F8035041EA052122F8061C98F8081098F8095041EA052122F8041C98F8041065
:205C100098F8055041EA052122F8021C98F8061098F80720083C083841EA022108F11008C6
:205C300029F8031009E009F5007309EB40019022184606F0C1FF4FF48070102C7CDB2711CD
:205C500009EB400224F00F01A0EB0710641A98F81F3098F81E1041EA032122F8201D98F8E7
:205C70000E1098F80F3041EA0321518098F81C1098F81D3041EA0321918098F8101098F8CE
:205C9000113041EA0321D18098F81A1098F81B3041EA0321118198F8121098F8133041EAED
:205CB0000321518198F8181098F8193041EA0321918198F8141098F8153041EA0321D181C2
:205CD00098F8161098F8173041EA0321118298F8061098F8073041EA0321518298F80C100A
:205CF00098F80D3041EA0321918298F8001098F8013041EA0321D18298F80A1098F80B30ED
:205D100041EA0321118398F8021098F8033041EA0321518398F8081098F8093041EA032148
:205D3000918398F8041098F805307F1E41EA032108F12008D1838AD1082C42D198F80F2014
:205D500098F80E10083809EB400941EA022129F80E1C98F8061098F8072041EA0221A9F823
:205D7000021098F80C1098F80D2041EA0221A9F8041098F8001098F8012041EA0221A9F855
:205D9000061098F80A1098F80B2041EA0221A9F8081098F8021098F8032041EA0221A9F82D
:205DB0000A1098F8081098F8092041EA0221A9F80C1098F8041098F8052041EA0221A9F805
:205DD0000E10BDE8B08370472DE9FE4F05467F48002400680094C0090ED37D48007858B979
:205DF0007D497C4851F8112C104040F0817041F8110C20200AF0F0FE012D40F0E280DFF8FD
:205E10000892D9F8DC00012840F0D8800220C9F8DC000CF00FFF01200AF0DEFE5FEA000869
:205E300005D00120C9F8DC000CF014FFCBE00DF0F5FEA34602906948694DC0F800B0A86AB9
:205E5000016801208847012804D1584609F028F8012000906348644FC0F800B038681120DC
:205E70000DF0A4FD00B1012410200DF09FFD08B144F002040F200DF099FD08B144F004042B
:205E90000B200DF093FD20B12868584E016B308888470A200DF08AFD20B12868544E016B23
:205EB000308888475348012606602868816944F020008847504806600DF072FD00F001012A
:205ED0000191400814D2286A81684C4888478246BAF1040FF7D0BAF1010F04D1286A4268FB
:205EF0004648032190474649086820F003000860584600F0C7FA2B683868986B80470198AA
:205F100001280CD0BAF1010F04D1286A42683B48314690473A49086840F0030008603148C8
:205F3000066028684169204688470B200DF03EFD20B128682D4BC16A188888470A200DF07F
:205F500035FD20B128682A4BC16A18888847294806600322C9F8DC20274BC3F800B0286869
:205F7000416B204688470128F9D1386804200AF033FE044619480660386814480068800950
:205F9000FBD30098012802D1304608F089FF0DF0F5FC08200AF020FE07460298C9F8DC6087
:205FB0000EF042F91748008808F044FC0CF052FE57EA040018BF4FF0FF3804E06FF004084C
:205FD00001E06FF001084046BDE8FE8F14100940640D0020FFFFFCFC150009400C400940C9
:205FF000B8010010000222432C2009402A56010026560100282008608001044300400340D3
:2060100024220840C85901007C0C002010B50B7884074CBF43F0020303F0FD0304064CBFFA
:2060300043F0800303F07F0304074CBF43F0080303F0F70384064CBF43F0200303F0DF0324
:2060500010F0AA0F0B7004D0107840F00C00107010BD18B9117801F0F301117010BD2DE974
:20607000F8430D461646287802281F464FF0000864D1686801784078089C01EB002189B28E
:2060900020001CBFB1F5285F0B205CD14FF42850091A0AD0491E20D0491E49D0491E24D086
:2060B000491E2AD0A23943D048E0DDF82490E8680DF0CAFD214680B2421A4A45ACBF4C463B
:2060D000041BA4B26018162804DA3C802246E86801440EE04FF00D0834E0E868008802219D
:2060F00039803070000A70702CE0062038800622E96830460DF084F924E0E868B0B108211C
:206110003980018831700188090A71704188B1704188090AF170818831718188090A71713F
:20613000C188B171C088000AF0710BE0398009E001203880E8680178317003E0A7F800805F
:206150004FF001084046BDE8F2832DE9F0470F4682B039780024022974D1804678680A9EE0
:206170000178DFF8E8A09146427801EB022189B24FF42850091A1D4608D0491E2BD0491E7A
:2061900050D0491E3BD0A3395AD05BE0F8680DF05BFD80B2B04204D3A819162803DB0D245E
:2061B00051E007244FE0FB682A46494698190DF027F9AD19F868ADB2C5F116020021401947
:2061D0000DF040FDDAF8000000281CBF0268002A39D0002123E08EBB022DE0D199F8000025
:2061F00099F80110FA6800EB01201080DAF8000000281CBF0268002A25D001210FE0EEB9D9
:20621000062DCCD1F868062249460DF0F9F8DAF8000000281CBF0268002A14D003214046A2
:20623000904710E056B9012DB9D199F80000002813BF0128F9680870802404E00B2402E09A
:20625000032400E001242046BDE8F687002A00202DE9F04F0C46E00789B00BD50DF0B8FADA
:2062700028B1002181607948006800B1804784F00100E8E02007764D71D576480168887CFA
:206290000DF0D0F9064606F5907096F826A107904FF000086F4801688A7CC146FF2A04BF95
:2062B00000200CF0D7FE079A514628460DF0B8FF07461D207843009005EB000B079950467D
:2062D0000DF0FAFFA8B1FF2F22D00098285C40F0020A0BF10100079006220AF0010086F8B2
:2062F000260106F5907007990DF08AF80BF107080EE0079950460DF08FFF002818BFFF2F66
:2063100006D00BF10D000DF0BBFF08B14AF0020A50480068C07A022818BF032806D105F1A5
:206330000D000DF0ADFF08B905F10709002006905346F08E000905900022B18E0491708E71
:206350000799009140080390CDF80880CDF804900020B1790DF05CFF84F0080073E0E00624
:2063700010D50020069000210022002302900591049203930191009202200DF049FF84F0B9
:20639000100060E0E00413D5E91D05F10D000DF03BFF31484268314800784FF480510AF06F
:2063B0003DFC10B18E2007F005FE84F480504AE0A00505D50DF0DCFA294901200860FEE787
:2063D000610504D507F0F3FC84F480603BE0600405D5812007F0EEFD84F4804033E0A00465
:2063F00030D5204D286810B100200CF033FE4FF0FF3028600DF004FF1B4D296851F8202FF6
:20641000684690471948016A426A2D68009101921749029100F128014A6809781368C069D2
:2064300003938DF81010ADF812006B462E68114A11491248B0471249086002F099FF84F448
:20645000005000E0002009B0BDE8F08F204F0020AC450020184F0020784E00206E4F002015
:20647000FC002043044F0020F04E002068120020D13701002C4D00206845002088490020E2
:20649000EC4E00202DE9F84FDFF804B20746ABF13500DFF8F0810068800880F0E2807548C3
:2064B0000068006880477E490831D1F8009000254FEA29715FEA995201F101010AD2C0F12F
:2064D0003E0210F10A0F4FEAE202D8BF08229142B8BF111C684BD3F87C21C2F30462162A87
:2064F000A8BF203A1B68C3F30443162BA8BF203B9A465218162A05DA12F10A0FB8BF6FF0ED
:20651000090200E015225D4B5D4E02F01F0141F4F8511980316811F0030F18BF0125C90853
:2065300028BF45F002050FB145F00405434693F90710411A052904DA9979A94208BF9988B2
:206550006FD0DFF844E10F28A0F10F0829DB08EB0011A1F1F0084FEA28210091072984BFF9
:2065700007210091062988BF06215EF821600424774604EB81043C594FEA950CA41BEE0861
:2065900004F0FF0124BFC4F3072631446F08AE0824BFC4F3074631446E0828BF01EB146174
:2065B00004E000214FEA950C6F080091009C5EF824E05FEA5C060EF0FF0424BFCEF3072671
:2065D00034447E0824BFCEF3074634446E0828BF04EB1E64009E89B2A8EB06267143803179
:2065F00004EB1124AAEB02010029D8BF0121342209F0FF074A4391B24FF6FF727943B1FBAA
:20661000F4F18A4238BF111C802889B2998005DA10F1800FB8BF6FF07F0000E07F20D8710D
:206630009D711A4800681F2918604FF0000008D340F2FF128A4206D24908401C8A42FBD36A
:2066500001E01F219980134F0F39090940EAC10047EA0001CBF8FB1F0026CBF8FF6FBDE83E
:20667000F88F0D490D4F434608200F609B1D1870BDE8F88FEC0100103C1100506E62084093
:2066900024220840F42900209C130050082009403500094000E7A48030100940FDFDA400FF
:2066B000AC3F00502DE9FE4FDFF8FC8198F8011011B900200CF0CEFC0DF03AFE05460024E3
:2066D00005F6C4150027794EDFF8E4910EE038460CF0A8FF417939B1316882790A55294687
:2066F000641C0DF089FDE4B27F1CFFB299F800008742ECDB98F80100844205D000200CF03C
:20671000A9FC82200DF0B8FD98F80100012840F0A980002701E07F1CFFB299F800008742AF
:2067300080F29A8038460CF07DFF054668790028F1D03068A979027891421CBF00200CF0B4
:2067500089FCA87986E0306810F809000CF06AFF00684268DAF808109068814204BF3D4612
:2067700009F1010900F08D808FE03068047801210FE0D8F80420435C02F5AD7209FB03F5CF
:2067900009FB04FE555B32F80E20954238BF1C46491CFFB2B942ECDB4FF6FF700DF028FDFD
