:2000000000400020CDA8000001C9011001C9011001C9011001C9011001C9011001C90110E9
:1C00200001C9011001C9011001C9011001C9011001C9011001C901103FC9011089
:20003C002DE9F84FDFF81885DFF8181588F80000002008600821DFF8100501700D21418052
:20005C004FF408718180DFF80405DFF8041501608A7EDFF800050270FF2ACB7E437008BF54
:20007C00FF2B0D7F85704E7FC6708F7F0771C97F417115D1FF2D08BFFF2E11D1FF2F08BF59
:20009C00FF290DD1DFF8D0140A7802704A7842708A788270CA78C2700A7902714979417149
:2000BC00DFF8B81402780A70FF2542784A7082788A70C278CA7002790A714079DFF8A02443
:2000DC0048710021DFF89C04057045708570C570057145711180DFF89004DFF89014466B0B
:2000FC00DFF88C247078087031781170B078DFF884140870B1680879DFF87C14421E0A70E9
:20011C00F078DFF878140870F068DFF87414086008B90CF027FA3069DFF86844206008B926
:20013C000CF020FA2068DFF8607401688847216851F8042F38469047DFF85004DFF8501462
:20015C003862DFF8500478627069086008B90CF009FAB069DFF84014086008B90CF002FA7E
:20017C00DFF838B4DFF838649BF804000CF0F6FC306008B900F045B99BF80500DFF8247462
:20019C000CF0ECFC386008B9306837E19BF80600DFF814440CF0E2FC206020B930680CF0C7
:2001BC00E5FC38682AE19BF80700DFF800940CF0D5FCC9F8000038B930680CF0D7FC38680C
:2001DC000CF0D4FC206819E1DFF8A4130A789BF80000DFF8DCA3921C504380B20CF0BEFC93
:2001FC00CAF8080058B930680CF0C0FC38680CF0BDFC20680CF0BAFCD9F80000FEE0DC4856
:20021C000078002800F00281BBF80210DFF8A4B3484380B20CF0A2FCCBF8040078B93068D5
:20023C000CF0A4FC38680CF0A1FC20680CF09EFCD9F800000CF09AFCDAF80800DEE0CC48A0
:20025C0000780CF08BFCDC49086080B930680CF08DFC38680CF08AFCD9F800000CF086FC33
:20027C00DAF808000CF082FCDBF80400C6E0C0480078182148430CF071FCD04A1060B0B9F1
:20029C0030680CF073FC38680CF070FC20680CF06DFCD9F800000CF069FCDAF808000CF042
:2002BC0065FCDBF804000CF061FCC348A5E0B048007840010CF052FCC1490860D8B930686B
:2002DC000CF054FC38680CF051FC20680CF04EFCD9F800000CF04AFCDAF808000CF046FCD4
:2002FC00DBF804000CF042FCB34800680CF03EFCB249086882E09E48007800010CF02EFCE6
:20031C00B0490860F0B930680CF030FC38680CF02DFC20680CF02AFCD9F800000CF026FC99
:20033C00DAF808000CF022FCDBF804000CF01EFCA14800680CF01AFCA04908680CF016FCF6
:20035C009F485AE08A48007800010CF007FC9E49086018BB30680CF009FC38680CF006FCBD
:20037C0020680CF003FCD9F800000CF0FFFBDAF808000CF0FBFBDBF804000CF0F7FB8E48B0
:20039C0000680CF0F3FB8D4908680CF0EFFB8C4800680CF0EBFB8B4908682FE0744800781E
:2003BC00302148430CF0DAFB884A106070BB30680CF0DCFB38680CF0D9FB20680CF0D6FBD7
:2003DC00D9F800000CF0D2FBDAF808000CF0CEFBDBF804000CF0CAFB774800680CF0C6FB4C
:2003FC00764908680CF0C2FB754800680CF0BEFB744908680CF0BAFB734800680CF0B6FB71
:20041C0000200CF0AFF84FF4804192E03168012008713068057331684D73306885733168C2
:20043C00CD7330680574002031684D743268D072A0223168487103213068C280017207204D
:20045C00316848720020326890722821306841820121C176002031684877326882F85E008A
:20047C00012031680877326882F85D00396808713868057339684D73386885733968CD73AA
:20049C0038680574002039684D743A68D072396848713A6890724FF4207039680022C880E5
:2004BC0008818A7401213A68D17421680D732268557321688D732268D57321680D740021AF
:2004DC00226855742368D9720121226811710021236859712168C880088100208872216836
:2004FC00887405202268D0743948016888472A490A6805461068804727490A6852F8043F5A
:20051C000020984718481D4BC16818780A88314902430A80284630490A6890470C212F4890
:20053C0000F05EF80F4800F05FF800F061F84FF4005198F80000BDE8F44F06F001BD00BFF3
:20055C006E4F0020044F0020604E0020084F0020B63F00502C4E0020E81200503C4E002017
:20057C000C4F0020344E0020E0E300006D4F00207B4F00206B4F0020724F00206C4F002023
:20059C00F04E0020F44E00207C4B002079CB0000F84E002089CB0000FC4E0020BC1D002037
:2005BC00104F0020144F0020184F00201C4F0020C8250020684E0020004F0020804E0020CB
:2005DC00844E0020884E00208C4E0020904E0020DC180020544F0020E0180020F84D0020CB
:2005FC00DFF800F0E5710110DFF800F01D6E0110DFF800F04D7101102DE9F04FD24C04F150
:20061C0018012046ADF1340D09F0DEFDCF4D00264FF6FF700123667032462082294604F11E
:20063C00A4000AF02DF80223324604F1C80029460AF026F80423324604F1EC0029460AF011
:20065C001FF84FF0040A04F1440810224046314684F802A008F0D6FB04F1540910224846B1
:20067C00314608F0CFFB04F11C073E6004F10A052E70E671267207206072CDF80080DFF8C9
:20069C000083022210200346414604F00DFC102003224146CDF80090034604F005FC1020FB
:2006BC00524641460097134604F0FEFB4FF0080B4FF0030905F12A00079005F179000890C7
:2006DC0005F11E00099005F15A000A9024350B9517E06078A28FE18FB4F84050B4F84230A4
:2006FC0006280ED1ADF80A20ADF80C10ADF80E50BA48ADF810300CF0E6FB012002A908F0B6
:20071C00B5F8A069B44A31464FF0FF3300F02CFA071CF6D0059606A80DF11A0105AA0AF017
:20073C0049FF002840F0C081BDF818102078102940F0B6819DF81A10884240F0B181059D1A
:20075C0029884FF6FF728A4200F09F812B78A23B00F082812E3B40F0A381A978B0460029CA
:20077C0000F03E81891E00F00D81491E012940F2D980891E00F09C80491E6FD0491E5CD081
:20079C00083900F05981891E40F05C8194F83A30A888052BADF8080047D001208DF81200AC
:2007BC008E480CF090FB94F83A0001281ED004281CD003280DD002280BD00598C188ADF833
:2007DC000A100189ADF80C104189ADF80E10818927E0A08FE58FADF80A00B4F84030ADF8E7
:2007FC000C50B4F84210ADF80E301AE0A08FE9888842D8BF081CADF80A002989E08F8842E7
:20081C00D8BF081CADF80C006989B4F840008842D8BF081CADF80E00A989B4F84200884250
:20083C0000DC0846ADF8100001E08DF81260AA49102002AA04F038FB04E1A8480CF043FBE0
:20085C006B78002B40F0FE80E88860822889A0826889E08261480CF051F9F3E0AA88B64955
:20087C00102004F021FB07984146062208F0CAFA6682A682E682A879207358480CF023FB2C
:20089C0096480CF020FB4FF001084FF6FF702379208253B9A879082812BF84F801A005209D
:2008BC00607040460CF052F9CCE084F80190C9E06B787BBB291D07980A6802608988818039
:2008DC000623637068892082E8896082288AA082688AE082E878E07294F83A00012818BF7A
:2008FC0002280BD19A4910201F2204F0DDFA4FF47A7180B2414339480AF040FC688900909B
:20091C009249CDF804A0EA7810202D1D2B4604F0CBFA9AE06878312840F08B80E67084F8B1
:20093C0001A092E06B78002B40F08380A878E3896178032818D0E07825794BB9012814BFD9
:20095C002671E6700BE0C046280A002069CB0000054304D07F4819460AF010FC61780729C6
:20097C00DDD10620607070E0062907D0E578002D08BF84F8019068D00220F3E70720F1E7D0
:20099C002DC400006B78002B53D1EB78617893B902291DD007291BD0062902D12079012899
:2009BC0016D1032914D06B480CF0A8F880B901200CF0CCF80CE00BF051F80246A07962497F
:2009DC000090089843460190102004F06DFA68706D78002D2DD135E007000080F00A002088
:2009FC006B7833BB5C485749009002221020034604F05AFA59484A4652490090102003467C
:200A1C0004F052FAED1C099829680160A98801238180207863700BF021F8024601230A9DF6
:200A3C006079494900901020019504F03DFAC0B258B184F801B008E0AA884149102005230A
:200A5C0004F032FAB8F1010F2AD1256A45B32D6835B36078A84723E06879132820D128891A
:200A7C00012808D1607B022805D11C480CF02BFA0AF0BAFD14E036491020052204F014FA7B
:200A9C0081B216480AF07AFB0AE06888C00B07D3334852462B4900901346102004F004FA29
:200ABC00059808B10CF0B8F92579E078790830D355EA00032DD0204600788DB9E179257A41
:200ADC008DF808100B9A8DF8095013680DF10A052B609288AA8005E005160110140B002033
:200AFC008DF80890617A8DF81010A17A8DF811100AF0B4FF1149024602AB102004F0D4F98F
:200B1C0038B1256A84F801B01DB12D680DB15846A847B80803D31349304607F0A7FEF80862
:200B3C00FFF4EFAD607B401E3FF4D3AD401E7FF4E8AD0AF059FDE4E595A1000059440110BB
:200B5C00C1170110D163000009450110C9640000F5840110CC0A00206C0A00207C0A002014
:200B7C00440A0020620A0020DFF800F0F99B01102DE9FF47C44C0F460646F80B80F0598199
:200B9C00B80880F04A81607ADFF808A3B90F80F0CC80E079390914D2B80BC0F06B8104F189
:200BBC003C000CF07EF9061C08D0706830B17568F068B6F9241000222023A84727F40057D9
:200BDC0058E1012800F0AC80E06870300CF051F968460AF061FA20B1009904F198000BF058
:200BFC00CDFF00254FF00108E570A84884F805800CF034F8A6492A4604F160000CF045F944
:200C1C0050460068006B80476061A2782169A369012AA0EB010018444FEA1030A06105D1B4
:200C3C0063781BB9E169B0EBC12F3AD9DFF8689284F80280A9F1150000686570000A30D339
:200C5C0040F60900A08494F8310000F0F00040F0010084F8310094F8300000F0F00084F882
:200C7C003000A5620CF00BF94B4603F6FF7211686FF0020C21F00201116004F12401C3F8E6
:200C9C00FBCF864AC3F8EB1F11688908FCD3C3F8FBCFD3F8FF1F41F00201C3F8FF1F00F095
:200CBC0007F97F4A10687F4920F0020040F400701060032341F8043C41F230038B60404673
:200CDC00086050238B6008604FF4CA638B60086041F80C0C217825612B46136019B9E06899
:200CFC0038300CF0E2F802200AF0C8FB112006F087F9307C10B90E2006F082F9207A18B19D
:200D1C00257205200AF0BAFB674965710878A57140B10D7004F1BC0004210CF0CEF801E049
:200D3C000020E07127F00807A4E020B104200AF0A5FB00206072B168088840F602084FF0D3
:200D5C00000980450AD0B0F5C15F07D00A8B4FF61F60104040F43470088306E00A8A4FF668
:200D7C001F60104040F4347008822069F0B1DAF85400016804208847C0B1DAF800002569A9
:200D9C00006B8047F168401B738AF060020BF26098188842F06002D240184008F06040F6E1
:200DBC00C41181422CBFB0F5FA7FF16094F8310010F00F0F0CD1718C08F10700884207D1CE
:200DDC00B56930466FF480714A464FF00073A847364904F160004A460CF057F8607860B146
:200DFC000220ADF8040001A80AF0AEFFBDF80C0084F801904011A4F860010120E07084F8B3
:200E1C00049009F0B7F87569494630464FF080630A46A84727F000572CE005F04FF904F18A
:200E3C0044000CF03EF827F0020708B147F0020720E00CF024F8014604F140000CF031F84E
:200E5C00061C12D0356AA8080FD225EA05003062084600F02DF8706850B12A46F068B6F9E9
:200E7C00241075680023A84702E0084600F020F827F4804727B104F1BC0039460CF01DF800
:200E9C000090BDE8FF87C046501E00208D670000D1BF00008C010010150004401010044009
:200EBC00000004600C410440F5250020BD460000DFF800F061C001102DE9FF47484C94F86F
:200EDC00E700002876D13D4801273D4D006884F8E770EE7C84F8E6606B68C4F81031C0F37F
:200EFC00801084F8E80068460BF08DFF002604F10C0001966B468DF80060324902963246CE
:200F1C0009F0E6FA304904F130006B46324609F0DFFA2E4904F154006B468146324609F09A
:200F3C00D7FAA96838468847DFF8B08028482A7D08F104030078284D1868C0F3815A22B17A
:200F5C00BAF1030F04D184F8E170BAF1030F17D0BAF1020F14D0BAF1010F0ED002200AF01D
:200F7C00D3FB1C480068016804208847012804D028683221B1FBF0F10DE00AF015F812E00C
:200F9C0002200AF0C1FBBAF1030F0CBF4FF47A7142F210712868B1FBF0F148460BF065FFE8
:200FBC0048460BF064FF40460068C00802D230460AF0AAFB00200090BDE8FF871410094042
:200FDC0084E20000EFB000005978000089930000FD250020E0010010E8250020B03F005064
:040FFC0004170020B6
:20100000B41200001810000015AB0110FDB301106DC00110FDAE011099B5011000000000F7
:08102000000000002D0000009B
:20102800B01200003C100000B1C00110A9BF011067C0011069B80110000000000000000035
:041048003000000074
:20104C00B012000060100000BDC00110CDB30110D9BD01106DB3011000000000000000005B
:04106C00310000004F
:2010700000000000C41D002004000000000000000000000020000000E8C901103000000049
:2010900028100000CC1D00200400000000000000000000000C000000D8CA01101800000024
:2010B0004C100000D41D002004000000000000000000000024000000F0CA011018000000A8
:2010D00000000000DC1D00200400000000000000000000001000000018CA01102C000000B4
:2010F00000100000EC1D0020040000000000000000000000200000006CCA01102400000018
:20111000FFFFFFFFF41D00200400000000000000000000002800000090CA011024000000D7
:20113000FFFFFFFFFC1D00200400000000000000000000001400000008CB01101800000056
:20115000FFFFFFFF041E002004000000000000000000000058000000B4C901103400000023
:20117000FFFFFFFF0C1E00200400000000000000000000001000000020CB011018000000F1
:20119000FFFFFFFF141E00200400000000000000000000001C000000B4CA0110240000001E
:2011B000FFFFFFFF1C1E00200400000000000000000000003800000044CA01102800000046
:2011D000FFFFFFFF241E00200400000000000000000000005400000078C901103C000000BB
:0811F00001000000C8E300004B
:0411F80001000000F2
:0411FC0000000E00E1
:0412000000000F00DB
:0412040032000000B4
:0412080001000000E1
:04120C00D01C0020D2
:0412100000020000D8
:0412140000000000D6
:0412180001C90110F7
:04121C0000000000CE
:0412200000000000CA
:0412240008000000BE
:0412280000002200A0
:04122C00481B00203B
:0412300000000000BA
:0412340000000000B6
:0412380008000000AA
:04123C00901C0020E2
:0412400000000000AA
:0412440000000000A6
:04124800080000009A
:04124C00000000009E
:04125000000000009A
:041254000000000096
:041258000000000092
:04125C00010000008D
:04126000E01B00206F
:041264000600000080
:041268000100000081
:04126C00681A0020DC
:04127000000000007A
:041274000000000076
:041278000002000070
:04127C00000000006E
:02128000290043
:02128200010069
:02128400250043
:02128600300036
:02128800310033
:02128A002D0035
:02128C0001005F
:01128E00015E
:081290000300000060E3000010
:0812980000000000000000004E
:0412A0000000010049
:0412A4000000030043
:0412A80013C401105A
:0412AC001FC9000056
:0412B000B812000070
:0412B400B81200006C
:0412B8000000000032
:0412BC007C1D002075
:0412C00075CA0000EB
:0412C4002000000006
:0412C800B0E2000090
:0412CC005CE10000E1
:0412D00029C101101F
:0412D4004BC4000007
:0412D80077C60000D5
:0412DC00A1C7011095
:0412E000A3C701108F
:0412E4000000000006
:0412E800ABE1000076
:0412EC00D8DF000047
:0412F000F0DF00002B
:0412F400C0DF000057
:0212F8000200F2
:0212FA000900E9
:0212FC000100EF
:0212FE000000EE
:0113000001EB
:0413040015CA000006
:0413080059B30000D5
:04130C00A9C0000074
:041310009DB5000087
:0413140091B3000091
:0413180075A70000B5
:04131C00E590000058
:041320005FCC00009E
:04132400799D0000AF
:0413280015C70110D4
:04132C0025C70110C0
:201330002DE9F04F0F46C34C0168E16241688068ADF11C0DE060CB48A1608047CA48E16A68
:201350000160A168DFF838A34160E168DFF82C938160C649002FA346C16064D03D68E8787F
:201370008DF80C0028798DF80D0003A80CF07CF8A86808B1BE490160E86808B1BD490160DD
:20139000BD4C2878207068786070A878BE68A07031787368E170B26863602E69A2607968D2
:2013B000E6610868E06068692062A8696062287F84F828002A6AE262786886681EB9002018
:2013D0000BF0D6F800E066617868C06818B900200BF0CEF800E0A0617868406818B9002079
:2013F0000BF0C6F800E020612869E061F86881680E6806B9D14ED0494FF001084E60C66817
:2014100081F8018036B900200BF0B2F84D462E68F86801E04D462E6000685446FB68A0611D
:201430005868E06107E000200BF0A2F84D462E684FF001085446361DC6493668621C04F181
:2014500014035020B04710B1286880688047DBF808008047C14E002781463B46BE487770F1
:20147000694620610422337038460AF0DBF80098B0F5801F0CD020B90AF014FC04F088FC05
:2014900008E009F081FA0BF0A9FA0420708001E00AF008FC3846BA4EA0602B68B76098691E
:2014B00080477060AE4880F800803946418014200BF05AFBFF211422A0620BF012FDE01C75
:2014D000FF2102220BF00DFD14200BF04DFBA54F38603868002114220BF003FD0020FEF7A9
:2014F000A5FD404609F0EEFC9F480188FF2906D1022101807822001D00210BF0F2FC0320DA
:201510000BF0AEFF04200BF0A7FF05200BF0A0FF06200BF099FF072008F0F8FB934E0820BB
:20153000307006F124000BF08BFF08F081FD06F1360A05200A2152460AF070FF38B1002054
:20155000C0F10901401C0AF8011B0A28F8DB3078102105F0FBFC2B68854909200DF10E02E4
:201570005E68087001AB10200021B047A06ADBF80C10E2690A260A309DF80E30761E00F81C
:20159000013BF9D1921E4846E261884704F120002B68626A059040461E69DFF8D88104F1AA
:2015B00020034146B04710B1286880688047B8460AF05CFC5FEA000903D006F039FD4FF09A
:2015D000FF3900263AE00298216910F8062CA0F10C07032A03D1002930D088472EE0A16A6F
:2015F0009DF810C00A223046491E11F8013F9C4506D0521E00F10100F7D14FF0FF0A01E01A
:201610005FFA80FA2868BAF1FF0F00F1080013D0387909F045FEB979012904D0022904BFB7
:201630000299887001E002990870029950460AF079FE03E0D4180020006880472868C36997
:2016500004A902AA0DF10F0098470028BBD0D8F800007700C35BABB9761CF6B20A2EF8DB74
:2016700033E0C04641490010F844002080D40000D9BB000021C70000801B0020341E00204E
:20169000401C00200A2E20DADBF808008047D8F80010002231F807A0CA53DBF80C1088473D
:2016B000354850F8262026705146304690470646FF202070DBF808008047D8F800107A5A44
:2016D00016437E52DBF80C1088470AF0CFFB0746B9451AD0DBF8080007B9284FE169B942C3
:2016F00038BF0F1C804781462868016A206A8847626A28681F49059B521C6262C668384694
:20171000B047DBF80C1048468847A768296860691431AFB9D8F800000A270026835B33B177
:201730000969606988472968D8F8000014317F1E06F10206F2D107E0941D002003B6000019
:20175000096988472968143109684FF0FF3088472EE7C0463DC0000081C70000FC1A00201E
:20177000240A0020EC2500207C19002068130020FF250020E9B200000CE100008EC2F52851
:20179000BC250020BB482DE9F84F0025BA4CB849056094F8E200002800F06581012800F0C2
:2017B0002F81B64E02283CD0032840F05C8151F8250CD4F8B8100029A0F5C060C4F8D4007B
:2017D000B8BF49420028B8BF4042814226DA4FF08057D7F8A4014568B4F8BC0030214FF4E0
:2017F0007F42082300903046A847D7F8A4014568B4F8C00004214FF4F802122300903046CE
:20181000A847D7F8A401B4F8D070456820214FF440620A2330460097A847012584F8D850A3
:201830001CE151F8258C0BF031FA2F4600B901273946934F38680028FCD0B146012609F118
:201850000409D9F82CA03E6009B10BF025FACAF30720C4F8BC000BF019FAAA4600B9B24651
:201870003B68002BFCD0D9F800B0BAF1000F3E6001D00BF011FACBF38440C4F8C0000BF015
:2018900005FAAA4600B9B2463B68002BFCD0D9F81C90BAF1000F3E6001D00BF0FDF9C9F3AB
:2018B0008120C4F8D000B8F5C061C4F8B81000F09C8094F8D80068B9C4F8D410D4F8C000DC
:2018D000C4F8C800D4F8BC70C4F8C470D4F8D030C4F8CC30D4F8D410D4F8BC30002954BF64
:2018F00002206FF0010004F1C802176801EB41014018411000EB917107EBA1001060D4F885
:20191000C810C4F8C43000291CDD1E293CDDD4F8CC0030B93429B4BF15391E21C4F8C8103B
:2019300025E02A29BABFD4F8C8000B381E20C4F8C800D4F8C4003F28B4BF401C3F20C4F84C
:20195000C4001FE0D4F8CC00032812D011F10B0FC6BFD4F8C8000B30301CC4F8C800D4F803
:20197000C4000028C4BF401E051CC4F8C450032508E011F1150FC6BFD4F8C8001530301CB9
:20199000C4F8C800C4F8CC504FF08057D7F8A401B4F8C43030214FF47F424568374800939D
:2019B0000823A847D7F8A40104214FF400321123456832480096A847B4F8C860D7F8A401C7
:2019D00004214FF4F802122345682C480096A847D7F8A40120214FF440620A23B4F8CC601B
:2019F000456826480096A84701E084F8D85040F2FF50404502D8801C40452FD2082030E078
:201A100051F8251C1F4F4BF2F5204843060A3868C0F3814001280CD11B48006800688047BD
:201A300009F0D8F90BF03EF93111C010484306EBE03694F8E50030B91448006820F07F4009
:201A50008019460801E084F8E5501148310C0660012741600F4D8760287808B90B2000E089
:201A7000052084F8E40003F095F8BDE8F88FC0462D400C402C500C400417002000A00C4077
:201A900000800C40B43F0050EC010010102009403C600C4099E200002DE9F04FB64D686826
:201AB00085B0019020B905B0BDE8F04F0BF0C4BC0178DFF8C882B24EDFF8C892DFF8C8A257
:201AD00001291CBF0229042946F2A81741F64C5B05D0402918BF802900F09A8043E10BF0DD
:201AF0001DF90028FAD00198007803F07FFE0090446814B900200AF03BFD9AF80100002837
:201B100060D001F03DFE0AF04BFF02900168009801914F6807F078FD022827D000990A7891
:201B3000012ADBD1994B19680A7A19F80230337018B90BF07DFC5844A0602069C17E01F055
:201B5000EF01C1762069C17E41F08001C1762069C17E01F0F00141F00201C1768C48B96893
:201B700041182069C16101210098A0E001980178802913D10822874832700178012903D067
:201B90009AF80100012803DD38690121C17213E0D8F828103A690878D0720DE07D49072069
:201BB00030700A783869012A02D10123C37203E0D8F828104A78C2720298817901988AF86B
:201BD0000210CBE00098002888D00199009A0078914205D101281CBF00200AF0C9FC15E0F3
:201BF000012840F0C080694801680A7A19F8020030700BF01DFC3918A0680BF015FC18B9A1
:201C10000BF016FC5844A0600120A8700098A5E09AF8010000287DD001F0B2FD0AF0C0FE55
:201C300004462068029047689AF802000AF0B8FE03900BF079F810F0070F3DD0A87803F008
:201C5000D5FD0190416801980091029907F0DCFC022831D001990A78012A2AD14B4B196850
:201C70000A7A19F80230337028B90BF0E1FB83440098C0F808B000990869C17E01F0EF0139
:201C9000C17600980069C17E41F08001C17600980069C17E01F0F00141F00201C176009AAD
:201CB000B9683B4841181069C16101210198A97054E000200AF05CFC0398A04228D00298F3
:201CD0000178802913D10822324832700178012903D09AF80100012803DD38690121C172A0
:201CF00013E0D8F828103A690878D0720DE02949072030700A783869012A02D10123C372D4
:201D100003E0D8F828104A78C272A0798AF80200029823E00BF008F810F0070F29D0A8786E
:201D300003F064FD04462078D4F80480012820D116490A68107A19F8001031700BF078FB68
:201D50003918D8F808000BF06FFB20B90BF070FB5844C8F808000120A870204605B0BDE849
:201D7000F04F05F00DBA05B0BDE8F04F00200AF0FFBB05B0BDE8F08FC8250020E0E3000042
:201D90006F4F0020289A0110684E0020104F0020F0D8FFFF734F00202DE9F04F0C46E007F7
:201DB00089B00BD50AF0C0FE28B100218160A448006800B1804784F001003EE1A00710D57B
:201DD000002006900021049000230290009005910393019101223C200BF022FB84F0020078
:201DF0002BE11D256007974E974F40F18A8000200790834695498878FF2804BF00200AF0B6
:201E1000B7FB386890F8A0000AF0CAFD80463868C07A98F82691022818BF032808F5907A5D
:201E300006D106F10D000BF0F7FA08B906F1070B514648460BF0ECFA88B33868807A0028FE
:201E500018BF012804D1314650460BF0DDFA04E05246494630460BF0D3FAFF2834D005FB4A
:201E700000F906EB090506225146E81D0AF098FC16F8090040F00209E81D07900622386852
:201E9000817E01F0010188F8261105F1010A386800F1140108F590700AF082FC14E05146E2
:201EB00048460BF0A9FA78B15246494630460BF0A7FAFF2808D006F10D01454348190BF09C
:201ED000ABFA08B149F0020908F12C004B4601780691418909090591B8F8222007990492F0
:201EF0000122C088029140080390CDF804B0CDF800A0002098F806100BF092FA84F0040056
:201F10009BE0200610D5002006900021049000230290009005910393019101223B200BF044
:201F30007FFA84F0800088E0E0043BD5F11D06F10D000BF05DFA38684179012923D1017A71
:201F5000012918BF04291ED1C17A022918BF032919D1817E00F1140230460BF051FAFF2818
:201F700011D04543354405F10D000BF055FA50B9E91D05F10D000BF03BFA38680622E91D12
:201F900014300AF00DFC324932484A6800784FF4805108F03DFD10B18E2006F0FFFD84F4AC
:201FB00080504AE0A00505D50AF070FE2A4901200860FEE7610504D505F0EFFF84F48060D5
:201FD0003BE0600405D5812006F0E8FD84F4804033E0A00430D5214D286810B100200AF04F
:201FF000C7FA4FF0FF3028600BF0FEF91C4D296851F8202F684690471A48016A426A2D6803
:20201000009101921849029100F128014A6809781368C06903938DF81010ADF812006B4604
:202030002E68124A12491348B0471349086003F009F884F4005000E0002009B0BDE8F08F94
:20205000204F0020AC450020104F0020684E0020784E00206E4F0020FC002043044F0020E6
:20207000F04E0020801B002029CB00002C4D00206845002088490020EC4E00202DE9FE4F2F
:2020900000F094FA9B48A34C4FF0000B00F12506804620699B4A59464FF0FF33FEF76AFDDA
:2020B000071CF6D0CDF804B002A80DF10A0101AA09F086FA002840F08580BDF80810207815
:2020D0004FF00109102976D19DF80A10884272D1019D29884FF6FF728A4244D02B78913B17
:2020F0003AD01F3B67D1697816291ED028797E282CD07F282AD128898349A0802889C01E15
:2021100008806EA00A2107F055FB08F0E3FA824608F0E0FA0AF06CFC81B2504607F04AFBD1
:2021300069A0022107F046FB10E009F09DFC03464846734900906A88102002F0BBFE28B9D8
:20215000484609F02BFDD946E56134E0297905F108000BF045F92EE0687810282BD1082024
:2021700007F07AF927E06888400824D3E56915B3E07805F10803401CE070604900936A8866
:202190002B79102002F096FE5FFA80FABAF1160F11D02078BAF1040F0DD0E56909F064FC77
:2021B000CDF800B056496A880346102002F082FE504609F0F3FC019820B1B9F1000F01D0AC
:2021D0000AF030FEF80837D3A0690BF005F9002832D1A0690BF0FCF88068054660B3A0783A
:2021F000062818BF072827D12878102824D1287A696805F07BFB98B92B7AD8F80C002BB14A
:20221000C018C8F80C007070000A3070A0690AF010FA68680AF006FE284609F0E7F803E07C
:202230002AA0092107F0C6FAA0690BF0D5F818B9206904210BF0C8F8F80F37D331E06069ED
:202250000AF0F7F9051C2CD02B885B1E23D00F3B24D1A978A0784A090CD209091ED306286E
:202270001CD12A49012005F041FBB8B96078401C607013E0062811D140F6480000901E49AF
:20229000E288FB23102002F015FE38B112A0192107F090FA02E0A87803F0E0F8284609F0E7
:2022B000A5F860690BF098F80028C8D07808FFF4F0AE17480AF00BFEEBE6C0464D545520FD
:2022D00053697A653A2000C00A0D00C04E6F7469204641494C00C04644617461206C656EAD
:2022F00067746820757064617465206661696C656400C0469C0F0020D9B00010DDFE00100E
:2023100099B70010050000C00C020020890600202C070020880600202DE9FC41A0F201378D
:2023300014468846022F40F232819B4E9C493F1F0F2F04D9143F4CD0BF1E1CD011E0DFE818
:2023500017F0CF00C9000D01FA00C100B9002601AF00A700100010009D008F007F00740090
:202370006600282880F21381B8F1020F40F00F818849238807E1B8F1010F40F00881F078D9
:20239000012800F00481324620781179107189B9002800F0FC805078012800F0B58004285C
:2023B00000F0B280062800F0AF80052800F0AC80BDE8FC812078002840F0E98050780328E7
:2023D00000F0AF80072800F0AC80052840F0DF80A7E0B8F1010F40F0DA802078012840F00C
:2023F000D68006F1EC000AF08FFB002840F0CF803446002004F13A0106F03EFA002840F019
:20241000C68004F1C8000AF064FDBDE8FC81B8F1020F40F0BC8020880A28C0F2B880B0F59D
:20243000486F00F3B4808E1C17E0B8F1020F40F0AE802088B0F5FA7F80F2A9800E460CE054
:20245000B8F1020F40F0A38020880628C0F29F80B0F5486F00F39B803E363080BDE8FC8108
:20247000B8F1020F40F0938020880628C0F28F80B0F5486F00F38B803C36EEE7B8F1010F5E
:2024900040F085802078062880F28180454E0EE0B8F1010F7BD12078042878DA0A3606E0FC
:2024B000B8F1010F73D12078082870DA09363070BDE8FC81B8F1010F69D12078042866DA05
:2024D0000836F4E7B8F1010F61D1207804285EDCF61DECE7B8F1020F59D120880E36BCE791
:2024F000B8F1010F53D13079012850D032462078D178D07069B9002849D05078012803D03D
:20251000042818BF052842D101200AF025FBBDE8FC81207800283AD15078022818BF05284A
:2025300035D1107809F0A0FA1C490246102002F0C1FCBDE8FC8106F1830500211F2228466D
:2025500006F066FC21464246284605F05DFB44463078B47109F088FA002311E006F1640523
:2025700000211F22284606F053FC21464246284605F04AFB44463078747109F075FA0123FC
:202590000094094901950246102002F093FCBDE8FC81C046BD840110280A002099450110FB
:2025B000680A0020620A0020094501102DE9F043904E06F110013046ADF1640D07F00AFEDB
:2025D0008D4D29680DF156000160A98881808B490DF15602102002F06DFC06F1380006F1BE
:2025F0005C0105F05FFBF06006F144000AF021FB706106F150000AF01CFB41F28832012344
:202610007F49B06106F1A40008F040F807F0C6FADFF8F09110201F220623494602F04AFC96
:202630001020ADF80A0001248DF85E400027ADF8087080468DF85F702146ADF80E700DF17D
:202650005E02ADF80C80C820ADF8100040F20530FFF762FE40F20630022102AAFFF75CFEF8
:2026700006F189024FF442701921FFF755FE06F1280240F207300721FFF74EFE4FF4447065
:2026900021460DF15F02FFF747FE40F2113002210DF10A02FFF740FE40F21230022103AA11
:2026B000FFF73AFE40F2133002210DF10E02FFF733FE4FF44570022104AAFFF72DFE06F12E
:2026D00074003A46152350490090404602F0F2FB494640460622A02302F0ECFB4946404642
:2026F0000722A02302F0E6FB494640460822A02302F0E0FB494640460922A02302F0DAFB72
:2027100001978DF862708DF860408DF8614001A88DF863404FF4816204233C4F00903946B7
:20273000404602F0C7FB18A84FF48062234600903946404602F0BEFB0DF1610040F20242EC
:20275000234600903946404602F0B4FB0DF1620040F20342234600903946404602F0AAFB5E
:202770000DF163000090394640F206422346404602F0A0FB264940464FF0FF3202F09AFBF7
:20279000244940464FF0FF3202F094FB09F0D0FB08F072F80AF0FAF807F0E8FE1E4906F1F8
:2027B0003002404602F086FB307809F05DF91B490246404602F07EFB307809F055F91849FA
:2027D0000246404602F076FB0AF086F941220DF11200A91D05F018FA0DF112000AF008F9F4
:2027F00081B20DF1120006F0E5FF08F0F5F919B0BDE8F0838806002078DF0000A1B500107A
:20281000F9CA0000BD84011001880000092F0000ADBF000095C200004DC400005188011014
:20283000318101102DE9F04F8246DAF800600C465FEA0208ADF11C0D14BF00214FF0FF31A7
:2028500006F1480083460AF004F9002818BF0B2040F00D8100258848F460B8F1010F05700A
:2028700007D06570022008F055FF062008F052FF01E0012060702078012840F2AB80801E31
:20289000012868D9801E012833D9801E012800F2DF800AF0FAFA06904FF0805000F5EE77E6
:2028B000D0F8DC01A378466A009321782846062908BF0120019001200290A068228AE168A6
:2028D0006368B04781460698FEF7F8FAB9F1000F40F0C080B8F1000F02D009F031FF02E01C
:2028F000504609F064F8002800F0A4803868806A2AE00AF0CAFA06904FF0805000F5EE7750
:20291000D0F8DC01012306680093A168A27860682478AC46042C08BF9C466346B047814624
:202930000698FEF7CBFAB9F1000F40F09380B8F1000F02D009F004FF02E0504609F037F80D
:20295000002877D03868406880474A49C1F8B0510D6081467EE00AF098FA06904FF08050D9
:2029700000F5EE76D0F8DC01E38A87690093E0680190208B0290A0780390207D0490012145
:20299000059122782846022A08BF081CE1786268A368B84781460698FEF790FAB9F1000FA8
:2029B00058D1B8F1000F02D009F0CAFE02E0504608F0FDFF00283DD03068006A80475FEAE0
:2029D000000947D13068C569A168E28A2369E078A847BEE70AF059FA06904FF0805000F52C
:2029F000EE76D0F8DC01E38AC7680093E0680190208B0290A0780390207D2946049001200D
:202A10000590257805B9014608466268A368E178B84781460698FEF751FAB9F1000F19D1AC
:202A3000B8F1000F02D009F08BFE02E0504608F0BEFF08B914201AE03068406980475FEA0D
:202A5000000907D1306802692169E078904780E74FF0FF39B8F1010F05D0022008F014FD32
:202A7000062008F011FD58460AF025FA484607B0BDE8F08F50450240FE2500202DE9FE4F7D
:202A900005467F48002400680094C0090ED37D48007858B97D497C4851F8112C104040F06C
:202AB000817041F8110C202007F090FF012D40F0E280DFF80892D9F8DC00012840F0D8806A
:202AD0000220C9F8DC0009F06DFB012007F07EFF5FEA000805D00120C9F8DC0009F072FBE7
:202AF000CBE00AF0ECF9A34602906948694DC0F800B0A86A016801208847012804D15846EB
:202B100006F0B8FD012000906348644FC0F800B0386811200AF0D8F800B1012410200AF0E8
:202B3000D3F808B144F002040F200AF0CDF808B144F004040B200AF0C7F820B12868584EF9
:202B5000016B308888470A200AF0BEF820B12868544E016B308888475348012606602868EA
:202B7000816944F020008847504806600AF0A6F800F001010191400814D2286A81684C48E1
:202B900088478246BAF1040FF7D0BAF1010F04D1286A42684648032190474649086820F0A5
:202BB00003000860584600F0BDFA2B683868986B8047019801280CD0BAF1010F04D1286A98
:202BD00042683B48314690473A49086840F0030008603148066028684169204688470B2063
:202BF0000AF072F820B128682D4BC16A188888470A200AF069F820B128682A4BC16A1888C8
:202C10008847294806600322C9F8DC20274BC3F800B02868416B204688470128F9D138683B
:202C3000042007F0D3FE0446194806603868144800688009FBD30098012802D1304606F0CC
:202C500019FD0AF029F8082007F0C0FE07460298C9F8DC600AF0B4FB1748008806F0E4FA0E
:202C700009F0B0FA57EA040018BF4FF0FF3804E06FF0040801E06FF001084046BDE8FE8FBF
:202C900014100940EC170020FFFFFCFC150009400C400940B8010010000222432C200940E6
:202CB0000EDF00000ADF00002820086080010443004003402422084094E2000004170020F4
:202CD00010B50B7884074CBF43F0020303F0FD0304064CBF43F0800303F07F0304074CBF85
:202CF00043F0080303F0F70384064CBF43F0200303F0DF0310F0AA0F0B7004D0107840F019
:202D10000C00107010BD18B9117801F0F301117010BD2DE9F8430D461646287802281F468E
:202D30004FF0000862D1686801784078089C01EB002189B220001CBFB1F5285F0B205AD19E
:202D50004FF42850091A08D0491E1ED0491E2CD0491E22D0491E2ED048E0DDF82490E86836
:202D70000AF0C1F8214680B2421A4A45ACBF4C46041BA4B26018162804DA3C802246E86892
:202D900001440EE04FF00D0834E0E8680088022139803070000A70702CE006203880062238
:202DB000E968304609F0FCFC24E001203880E868017831701EE0E868B0B1082139800188EA
:202DD00031700188090A71704188B1704188090AF170818831718188090A7171C188B1718A
:202DF000C088000AF07105E0398003E0A7F800804FF001084046BDE8F2832DE9F0470F46E6
:202E100082B039780024022970D1804678680A9E0178DFF8E0A09146427801EB022189B236
:202E30004FF42850091A1D4606D0491E29D0491E4ED0491E39D059E0F8680AF054F880B205
:202E5000B04204D3A819162803DB0D244FE007244DE0FB682A464946981909F0A1FCAD1995
:202E7000F868ADB2C5F11602002140190AF039F8DAF8000000281CBF0268002A37D000217F
:202E900023E08EBB022DE0D199F8000099F80110FA6800EB01201080DAF8000000281CBFF0
:202EB0000268002A23D001210FE0EEB9062DCCD1F8680622494609F073FCDAF8000000287A
:202ED0001CBF0268002A12D00321404690470EE056B9012DB9D199F80000002813BF0128A7
:202EF000F9680870802402E00B2400E001242046BDE8F687E42500207CB5894D14460246D5
:202F10000026A2F58062182A1AD8DFE812F0FE00F800F100E900E200DC00D500D0001900B9
:202F3000C500BE00B700AE00A3001900190080006F00680054004C00420039002C00240002
:202F5000282880F28580022940F0828021880AF033FA0646E1E0012940F0DE80002C00F08C
:202F7000DB801135A6E0102940F0D680002C00F0D380284650301022214609F011FCCCE0B3
:202F9000012940F0C980002C00F0C68029468D1D90E0262940F0C080002C00F0BD8005F185
:202FB00060002622E8E7012940F0B680002C00F0B3806D1D7EE0602900D13CB9012940F01A
:202FD000AB80002C00F0A8800D3573E005F186002146602209F0E4FB012068739DE00129FD
:202FF00040F09A8020780AF0E3F996E0012940F093802078022800F38F800C3528702078F1
:20301000022814BF301C01200AF0CEF985E0072940F08280611C6846062209F0D3FA2078FD
:203030006946324604F06CFB04460A2C10DA0AF0B7F938B9204602F0FFFC08F02BFF06F08E
:20305000F7FF6AE02A46012002F12C05285564E0022662E001295FD1A87B21780028A973E6
:203070005BD12078012858D1E9E7012954D12478072C51DB102C4FDC0B3537E001294BD10C
:2030900024780A2C48DA093530E0012944D12478022C41DA083529E000293DD10AF080F9CA
:2030B00010B909F029FCC8E701240F351EE0012932D10A35247819E001292DD12478022C10
:2030D0002ADAED1D12E0102926D12B4603F1400051E7012920D12478022C1DDA2D1D05E0C8
:2030F000012919D12478042C16DCED1C2C7014E0012911D12478022C0EDAAD1CF6E70229C6
:203110000AD120881435288007E0012904D12478022CD8BF6D1CE9DD182630467CBDC046A2
:20313000681300202DE9F84FDFF804B20746ABF13500DFF8F0810068800880F0E280754815
:203150000068006880477E490831D1F8009000254FEA29715FEA995201F101010AD2C0F1C2
:203170003E0210F10A0F4FEAE202D8BF08229142B8BF111C684BD3F87C21C2F30462162A1A
:20319000A8BF203A1B68C3F30443162BA8BF203B9A465218162A05DA12F10A0FB8BF6FF080
:2031B000090200E015225D4B5D4E02F01F0141F4F8511980316811F0030F18BF0125C908E7
:2031D00028BF45F002050FB145F00405434693F90710411A052904DA9979A94208BF998846
:2031F0006FD0DFF844E10F28A0F10F0829DB08EB0011A1F1F0084FEA28210091072984BF8D
:2032100007210091062988BF06215EF821600424774604EB81043C594FEA950CA41BEE08F4
:2032300004F0FF0124BFC4F3072631446F08AE0824BFC4F3074631446E0828BF01EB146107
:2032500004E000214FEA950C6F080091009C5EF824E05FEA5C060EF0FF0424BFCEF3072604
:2032700034447E0824BFCEF3074634446E0828BF04EB1E64009E89B2A8EB0626714380310C
:2032900004EB1124AAEB02010029D8BF0121342209F0FF074A4391B24FF6FF727943B1FB3D
:2032B000F4F18A4238BF111C802889B2998005DA10F1800FB8BF6FF07F0000E07F20D871A1
:2032D0009D711A4800681F2918604FF0000008D340F2FF128A4206D24908401C8A42FBD3FE
:2032F00001E01F219980134F0F39090940EAC10047EA0001CBF8FB1F0026CBF8FF6FBDE8D2
:20331000F88F0D490D4F434608200F609B1D1870BDE8F88FEC0100103C1100506E62084026
:2033300024220840DC2500209C130050082009403500094000E7A48030100940FDFDA400AE
:20335000AC3F0050F0B57348734A0078734C744B74490D2883B03CD8DFE800F0DB0707072F
:2033700007D3D358D39292B0B0B7146041F204456D494C88AC421FBF4E8BAE424E8EAE424F
:2033900003D11D806948106072E0022C684D1C804FF4A05635D94FF48067E41B1AD0241F1D
:2033B000012C1DD94FF47F77E41B1BD04FF44067E41B0FD0A41E012C0CD9241F0AD0641E7C
:2033D000012C0DD940F2F937E41B012C19D9241F08D096E0022814BF1E80564D156047E0DF
:2033F000554DFBE7554803681C7A012C05D141F20240488048834886F0E74E804E834E8678
:20341000ECE7002009F0B4F883207EE04C488178FF2952D0182041434A48146040F20445EF
:203430000068841C645A1C80641B012C464B70D94FF47F75641B0FD04FF44065641B032C69
:2034500084BF641F012C0BD9A41E012C61D940F2FD35641B06D103E0801C41F20144445215
:20347000136005E0002009F083F8852009F094FF03B0BDE8F04035480078012103F066BD6A
:2034900040F204424888188090421CBF41F2084290423ED041F60402904211D12C4C2D4A52
:2034B00025682D4800680023CDE9002355F8086F2A4B0222B0472A490880F7BD488818802B
:2034D000002009F055F885201FE04888188002280DD940F20442801A1BD040F6FC72801A1F
:2034F00005D0083815D04FF47F72801AE8D1887B801CC0B2B528A8BF66208873002048807D
:20351000F7BD002009F034F88420BDE8FE4009F043BFF7BD6F4F0020204F002059CE0000D8
:20353000504F0020CC4C0020204A002059550110615A0110B1540110755B0110104F0020F9
:20355000684E0020804E0020313901106E4F0020F04E002002000080EC4E0020CDB4000084
:20357000424F00202DE9F04F044677488C4601689B46BCF1000FADF1440D44D0002A42D015
:203590009CF800300120984001423CD01088B0F5C15F2CD1506997696C4DD669DFF8B091EC
:2035B0000E904FF0030E0DF134080F9728681096C0F3036A58F8047FB7B100213D1F0520FA
:2035D0000B4655F8046FB14506D0401E01F1040103F10103F5D107E0052B05DA785820F411
:2035F000702040EA0A407850BEF1010EE2D1C4F804C0A26009F049FC564D8246287820B1E2
:203610005046FDF75BFC00209AE0FDF75BFC5249086840F00200086007A809F06DFA4FF0E1
:20363000050805F1BC0007AA4C49CDF8248007F02BFC07A809F02FFA00264FF0FF0905F1BA
:203650006000192107AB8DF82460454ACDF8209007F082FB07A809F04FFA05F1F00007AA05
:203670004049CDF8248007F00FFC07A809F013FA0127CDF8209005F17C001A2107AB3A4A11
:203690008DF8247007F068FB3849324605F19800134606F023FF364809F0E6FA354A334660
:2036B000042105F14C0008F069FB4FF6FF70A5F86001AE702E716E71AE71EE712E726E72EB
:2036D0002E61C5F81C802B786F70581C28705046FDF7F4FBBBF1000F03D1684609F042F97A
:2036F000EB46DBF800002060DBF80400E0609BF8100067742074BBF8120060821E4DA561F5
:203710006561DBF80C0000B1A061DBF8080000B160613146782204F1200005F079FB04F171
:203730003800314608F024FA0BA809F072FB13490D9404F1700032460BAB06F0CFFE2046E2
:2037500011B0BDE8F08FC046D4210840541300500200F844501E002000200940F9C7000085
:20377000D1BF0000697600009989000059CB00008D67000071A30000879E00005FCE00002A
:203790002DE9FE4FDFF8FC8198F8011011B9002008F0EEFE09F04CFE0546002405F6C4156D
:2037B0000027794EDFF8E4910EE0384609F0F8F8417939B1316882790A552946641C09F0EB
:2037D000E7FDE4B27F1CFFB299F800008742ECDB98F80100844205D0002008F0C9FE822045
:2037F00009F0DAFD98F80100012840F0A980002701E07F1CFFB299F80000874280F29A809C
:20381000384609F0CDF8054668790028F1D03068A979027891421CBF002008F0A9FEA87985
:2038300086E0306810F8090009F0BAF800684268DAF808109068814204BF3D4609F10109BD
:2038500000F08D808FE03068047801210FE0D8F80420435C02F5AD7209FB03F509FB04FE1C
:20387000555B32F80E20954238BF1C46491CFFB2B942ECDB4FF6FF7009F086FD83462046C9
:2038900009F08EF840F6C41500684168CDF800A000204FEA5B076F4382460291CDF804B0D3
:2038B00016E0204609F07CF801680A78802A04BFDBF810305F610978402907D1344A8079CB
:2038D000136803EB401107F5A062CA610AF1010A0098824554DA306810F80A008442F5D02D
:2038F000D8F8043009FB00F2991803F5AD73C9899A5A4B08934203D2009B891A8B42E5DAE8
:2039100009F04EF80068D0F804B0029A0198DBF80810936800EBD0704010A1F6C41105FB72
:20393000003009F081FD0028BBD0306810F80A00BDE8FE8F002008F01BFE822009F02CFD4C
:2039500098F80110306809F01BFD3068007809F027F800250168D1F804A04FF001096F1C16
:20397000A145FFF65EAFEDB2002D1CBFF8B20028A2464FF4C0797FF466AF3068047879E776
:203990002046D5E7684E0020004F00207B4F0020844E00202DE9FE4F0E468246307AC106E4
:2039B00093461C464FF000090CD5584609F0E4FC030000F0EA800A223146504698475FEA5E
:2039D00000094DD13078DDF838800D9D0C9F02281AD170680178407801EB002189B24FF47D
:2039F0002052891A012910D9891E3AD0491E14D0FD397BD0491E00F08280491E6ED0491EAD
:203A100074D0491E00F09780ADE0002D2AD1F068017839800278416889E0002D22D10120D8
:203A30003880F0680178217000217089401C80B209F09EFC398860B10278921C5118398005
:203A5000418961704189090AA17002784168E01C6EE0091D398004220021601C09F041FA8A
:203A700095E0002D68D1F0680588042139802570290A617028460DF1020109F079FC5FEAD9
:203A9000000821D0D8F80C50BDF802204FF6FF766B46314609F068FC50B998F80030D8F842
:203AB00004203C48022109F05BFC08B9ADF80060287802280AD169680222201D08F070FED8
:203AD0003888801C388001E0ADF80050BDF80000A070BDF80000000AE07058E0002D2BD1B7
:203AF000F0680168504608F0CEFF02E025BBF0680088022139802070000A607047E0F06833
:203B100009F0F1F980B229468842B8BF4FF007093DDB814208BF002206D008EB010282422D
:203B3000B2BF4246451BAAB23A80F0680144204608F036FE2BE015B14FF00B0927E0F06854
:203B50000721398001782170417861704188A1704188090AE17001792171C1886171C0886A
:203B7000000AA07113E0584609F0F6FB5FEA00090BD00F980290CDF8048000953B46224672
:203B900031465046C847814601E04FF00E094846BDE8FE8F94E00000F8B57E4F0446386863
:203BB000C16E0025002940F0F180102008F0DCFF39680028C86600F0E7808E6E10222146F1
:203BD00008F0EEFD39680878002840F08E80CA6ED6F8980012F80CCF00F001030CF0010CEB
:203BF000634518BF0023400843EA4000C6F89800C0F34003D2F800C0CCF3400C634506BF10
:203C1000430803F00103002320F0020040EA4300C6F89800C0F38003D2F800C0CCF3800C4F
:203C3000634506BF830803F00103002320F0040040EA8300C6F89800C0F3C003D2F800C04B
:203C5000CCF3C00C634506BFC30803F00103002320F0080040EAC300C6F89800C0F3002346
:203C7000D2F800C0CCF3002C634506BF030A03F00103002320F4807040EA0320C6F8980084
:203C9000C0F34023D2F800C0CCF3402C634506BF430A03F00103002320F4007040EA432064
:203CB000C6F89800C0F38023D2F800C0CCF3802C634506BF830A03F00103002320F480604B
:203CD00040EA8320C6F89800C0F3C0231268C2F3C022934206BFC20A02F00102002220F479
:203CF000006040EAC220C6F898008A6E92F89500030718D5C86E4368C3F3C00098B1C87804
:203D100040F00800C870D6F8981023480140C6F898103868C06EC16821F48071C16049082C
:203D30004900C16003E092F8330001282AD0607800281CBF7178002908D13968CA78130783
:203D500008D5002804BF7078002803D03A68052111711CE06068C0F3800040B996F895004B
:203D700010F0040002D10120087110E00AD00878002819BF307821783178207809F0E8FA1B
:203D9000054604E0182502E0132500E011252846F2BD00BF304F0020FEFEFFFF2DE9F041BB
:203DB0000446764DA178A869ADF1180D891F00F0DE80C91E00F0C980491E5FD0491E48D0CE
:203DD000C91E3CD0481E40F0D580287A697AB8B96878002831D0A08809F0B6FA071C00F012
:203DF000C980A07A40080FD3787968B1E168890A0AD2B91D01AA03F083FC0A2804D1032146
:203E1000A08809F09DFAB5E0287B022802D1A07A0009F4D3A088797904F1080200F082FF31
:203E3000A869002800F0A6804368002B00F0A28000210A46A08898479CE00521E0E7002832
:203E500000F098804368002B00F0948062780221F0E708F071FE002800F08C80A86950B1FF
:203E7000076847B1206900906189227B637BE01C3C46A0477EE060890121C2E767784FF0B8
:203E90000008002F52D1A17949084FD3EF69002F4CD101A841460E2209F023F8A08809F0F2
:203EB00053FA071C66D0606940B97879B91D06228DF80A0001A808F073FC19E06669307C88
:203ED000062206F111018DF80A0001A808F068FC07F10C00B91D062208F062FCB81D0622B8
:203EF00006F1110108F05CFC307C40F002007871A1799DF81120C1F3800010438DF8110095
:203F1000080905D39DF8110040F008008DF8110001A8214600F022F928B92878022103F082
:203F300015F8404627E0A8694FF0150810B3436803B3A088627801219847B8F1000F19D0A2
:203F5000A86943680321424674E7E078211D002203F0D6FB0A280DDA410001EB800004F157
:203F70000C0225300421C0B202F02AFA02E0A08806F008F9012006B0BDE8F0816813002098
:203F90002DE9F04F6C4CE2680746880FADF1140DC0F0CE805068406808B18047E268516836
:203FB000664E886808B9CD6875B13568002DFCD00022326010B18047E0684168C86800B18D
:203FD00080475F4807F0C6FE4FF00008C6F800805C4846F81C0C5C4808F046FE40F60A09F0
:203FF000A4F82490A378A4F82680BD6894F83000C34604F1240A00F0F00084F83000012B3F
:20401000C4F828B094F83100A5F8028000F0F00040F0010084F8310001D17B7CABB1B8681D
:204030000088A9F10801814208D0B0F5C15F05D0298B4FF60F400840288304E0298A4FF6F9
:204050000F400840288287F811804048016883680193C368406B00911022694620F078407F
:2040700040F0805003903A48029303F0CDFD494600E01D466B6813B118888142F9D1C5F876
:2040900004A0687B00F0F000687304F1380008F00EFF80680088CA1F824220D0891F814224
:2040B0001DD03B8CEBB197F82C0097F82D30C7F824B000F0F00087F82C0003F0F00040F0C8
:2040D000010087F82D0007F12002A2629AF80D00A7F8228000F0F0008AF80D0001E0C4F819
:2040F000108030680028FCD0C6F80080B968237A0A8A4FF6FF301040088283B915480068B5
:2041100001680120884701280FD0687B00F0F00040F001006873104808F0A6FD05E006F091
:204130003BFD0028FBD008F0C0FEB86846F81C0C05B0BDE8F08FC046501E00201C1004402B
:204150000100070601010E048D0B00004C13005018000021E0010010ED9A00002DE9F04FE0
:20417000714CDFF8C0A1E56988468146ADF1140D002D4AD1B9F1000F00F09280B8F1000FDD
:2041900000F08E8007F0A4FD06460A2E23DAD8F814702674002F39D0700010216A4600EB96
:2041B00086002330C0B208F039F990B950460778FF211022684608F049FA50B93FB999F84F
:2041D0000600494600F0010009F0B6F801E00120A074E56919E004F1E60B0A27002658466A
:2041F000FF21062208F032FA68B97F1E0BF10E0B06F10106F3D1607C002804BF0A20207429
:204210004ED094F83660267400E0267C0A2E47DA002D35D170000E214A4600EB86002030B6
:20423000C0B202F0CDF8207C06F00CF96846FF21102208F056FE207C10216A467030C0B2D3
:2042500002F0BEF8217C0E220801A0EB410000194946E63008F0A4FAD8F814206AB15046FB
:20427000007840B9107C02F11101002300F0010009F05EF801E00120A074C4F81C804CE02F
:20429000AA68002A3ED12A69002A2FD16A690ABBEA683AB9A07B08B107F0B4FA08F0AFF811
:2042B00001203BE07000102100EB86002430C0B202F086F8E769217CFA68480000EB810067
:2042D000103225300421C0B202F07AF8E1690020C86022E07000102100EB86002330C0B2D1
:2042F00002F06EF8E1690020486116E070001C2100EB86002230C0B202F062F8E1690020B5
:2043100008610AE070001C2100EB86002130C0B202F056F8E16900208860002005B0BDE84D
:20433000F08FC0465A4F00206813002066480178002900D170472DE9F043491E032985B09B
:2043500004D9891F012940F2BC80B4E05F4CDFF880912168DFF87C8108685F4E00F1080591
:20437000062205F1080102A808F01AFA0622A91C684608F015FA2878C1091D2700F00F02FF
:20439000032AC0F3801537D16079C0F3800081421ED12169062202A807F0A4FF00280AD0DA
:2043B0006946284609F034F8002804D03146684609F02AF8FF2879D04743D8F80000807AAB
:2043D000F519002818BF02280AD0012818BF03286CD1F25D691C484608F0A6FF102865D0E8
:2043F0006B46EA1D2946484608F09AFF06226946E81D08F0D5F959E000F00F00052860D12F
:204410006079C0F38000814250D12169062202A807F068FF002849D06946284608F0F8FF95
:20443000002843D03146684608F0EEFFFF283DD04743D8F80000807AF519002818BF012869
:204450000AD0022818BF032830D1F25D691C484608F06AFF102829D040F2024008F05CFF8A
:204470006B46EA1D2946484608F05AFF06226946E81D08F095F9D8F80010F05D8876062271
:20449000D8F80000691C143008F08AF91348144A41F2044141804183418612480180124945
:2044B000124808600121107802F050FD21680A680020107105E0002008F05AF8862008F0B8
:2044D0006BFF05B0BDE8F0836F4F0020F44B0020CC470020104F0020AC450020204A00200B
:2044F0006E4F0020504F0020204F0020595501102DE9F04FADF1240D0790FCF7E3FC61488C
:20451000007807F027FD604D0024012808D90A380FD0801E04D0401E0ED0401E09D006E031
:2045300008F0A2F8022804BF01210C1C06D0696805E005211F2401E0032107246960534A17
:204550001068C0F38150012806D152F80C0C0127020E07FA02F0044308F0B6FA524AFF2315
:204570000818401E471C28607F1E02F8013BFBD1079A1268002702F0FF03FE2B20D0DDF8FF
:204590001CC096463B4601260EF0FF02FF2A10D0904205D3914203D806FA02F2144201D030
:2045B00002206CE017430EF0FF02DFF8FCE00EF802305CF804EF5B1C0EF0FF02FE2AE5D19E
:2045D000092002F039FE07980121A86005F1280007F0CEFA05F19806A8464FF0010A4FF0C8
:2045F000040B0025A9460AFA05F0044216D1074204BF05F0FF0141F4C04104D02A48079945
:20461000405D51F82010224802F0F8FAE8B24FF0FF3107F059FFC6F8009001E0C6F800B031
:20463000D8F800006D1C361D8542DCD904A808F032FA184C184A2078102104AB059008F1A6
:204650000C0006F089FB684608F056FACDF80C906A4660681149029008F1640006F014FCA6
:204670000F4951F80D0C20F4F85040F4005041F80D0C0C4FC1F8FFAF4846C7F800A009B0D6
:20469000BDE8F08FFD250020DC140020B43F0050007FC76774E30000F5C4000069AB000080
:2046B0000D30094008000940201500202DE9FE4F664CE76B07F0E4FF664D002F4AD08108F8
:2046D0001BD207F110020CCA002102400B4008BF002A3FD03A693E6A10403043386207F1AF
:2046F000180696E80C002764194307F11806104386E803004FF4804128E039693E6A07F1F3
:20471000180341F0020108403043386293E800030022002607F1180340EA080046EA0901A0
:2047300083E803003E69E2632B46A3F1100000F108031968B14319607B6901689943016086
:20475000394604F1440005F059FF022104F1BC0008F0B9FBAB4604F13800002601254FF01B
:2047700002094FF0110A0190A846F0B208F024F8071C30D0B87C01282DD1ABF11400797C6C
:204790000368113105FA01F223EA02010160797C4268113105FA01F111434160787C08FA3C
:2047B00000F0C0B207F01CFFF868002107F064FA812808BF87F8129081280CD0787C94F809
:2047D00062110AFA00F0084384F86201002104F1F00008F078FB761C032EC6D3019808F0DA
:2047F00066FB0746E06B70BB47B3684605F078FC30B1009820B1082004F0C8FABDE8FE8F1A
:20481000082007F0EDFE12493869A1F10802136818431060786951F8102C104341F8100C92
:2048300000260E60B86841F81C0C0F68002FFCD0019807F03DFFE063BDE8FE8F04F1BC00EF
:20485000494608F040FBBDE8FE8FC046501E00201C1004401C10044060480178042900D8BA
:2048700070472DE9F84F891F2FD0491E012900F2AA805B4CA078FF2827D008F091F882469A
:204890000AF16C06706808F043FD0746387903281BD1B868017811F0030904D17068BDE87E
:2048B000F24F08F031BD457800F102080AF20F10B9F1030F00900DD045B1307830B90098A6
:2048D0003D21417001210098017084E0454801780129FAD09AF894000AF59A7B58B32D1F9F
:2048F0004346EAB24946504608F00AFD50B900993D204870012000990870BDE8F24F3A480E
:2049100008F0FABC39480168884700904FF4C0709AF80620616842438818002180F8391194
:20493000DBF800109BF80600490804F0DFFF304900980A6890470020B9F1030FB8602ED07C
:204950002C4840690078810708D5C0074CBF03200020EDB2401918F8000000E0812030720D
:204970002549BBF83E000A78904211D3317A802918BF81290FBF7F21204A1078091A49B23D
:2049900000914B46A078EAB2414608F0B1FC11E0A0784B46EAB2414608F0A6FC0AE00F486D
:2049B0000178082903D04146504608F099FC404605F06EFD706808F0A7FC39465046BDE8AD
:2049D000F44F08F089BC002007F0D2FDBDE8F24F862008F0E1BCBDE8F18F00BF6F4F00207E
:2049F000684E0020794F0020AC450020DC180020E0180020E0E300006B4F0020704F002030
:204A10002DE9F04F8346ADF1140D0393BBF1000F02920E9801910F9C049000F0AC80081C0D
:204A300000F0A980101C00F0A680181C00F0A3800498002800F09F80002C00F0A180206A2A
:204A5000002800F09880524D676A281D0068002F00F09180A16A08F03BFC40B2002808BFAE
:204A70006FF0020700F0838084F82C002078618800EB80000918143188B2216A88474349B1
:204A9000086030B92846406808F01EFC4FF0FF376DE08A46628823786088DAF8001026780E
:204AB0009F1800EB0109781800F1040806EB460002EB430786187F18C018761880184018B4
:204AD00000F11005204605F02DFD2078C01C8010C9F800002078C01C8010C8F8000020781A
:204AF0000837C01C8010386020780C36C01C801030602078C01C801028602278594609F1CE
:204B1000040003F081F82278019908F1040003F07BF822780299381D03F076F80095484670
:204B300041463A46334608F0CBFB47B222780398331D194603F068F822780498291D03F088
:204B500063F821786288DAF8000001EB81015218002104F05DF9616ADAF8000088470C4892
:204B7000406808F0B1FBF8B2992808BF002784F82C70384606E01CB16FF0010084F82C002F
:204B90006FF0010005B0BDE8F08FC046884F0020AC1D00202DE9F843614C5A4D5A4EDFF8C2
:204BB00070815E4F94F8E4100846401E0B2864D8DFE800F07B2C4306234306234306766453
:204BD000042907D001220A2945F8212C14BF0220032004E0202045F8210C0120024684F856
:204BF000E200002045F8390C0827C5F8FF7FC5F8F37F45F8392CBDE8F883052914BF09209C
:204C10000620002784F8E400376075E094F8E170383D0120002FC5F81B0004BF0620002167
:204C300002D00021F160032084F8E400032045F8010C3160306880085ED294F8E410334854
:204C5000012703290ED00068456800216022052300914046A84794F8E400062814BF0A2091
:204C70000720CFE700684568002160220523022000904046A8470420C4E7FEE72548264FAA
:204C90000026012506600E203D6002F0BFF9022006F0FAFB84F8E45084F8E360BDE8F88341
:204CB000002038600C25786024E04FF08059D9F8A0010168202088472C3D0F2045F8010C3B
:204CD00041F61D56C5F80360D9F8A401466800214FF4C0720723022540460095B047D9F80C
:204CF000A401C66800214FF4C07207234046B0470120386084F8E45004F1780008F0BDF811
:204D1000BDE8F88339400C4038600C40A401001000A00C402C500C4004800C4034600C40A1
:204D3000041700202DE9F04F88468246ADF1AC0D299208F009FB5C4CE67894F80BB0A57AC3
:204D500094F80C90071C00F0AB8068460021A42208F0C7F82801279A55498DF8046005F02B
:204D7000030300F4807605F00405ADF800A0B9F1020F01EA020143EA01024C4B8DF8A0B0AB
:204D900046EA020100F4C06603EA010246EA020045EA00054FF00000279508BF01208DF8F8
:204DB000370008F089FA412809DB207B00280CBF002008209DF8991008438DF89900607B8C
:204DD000002804BF00208DF8380017D001208DF8380004F1860120220DF1390007F0E0FC6E
:204DF0000DF1590004F1A601202207F0D9FC0DF1790004F1C601202207F0D2FCA07940B15E
:204E10008DF8260004F1500110220DF1270007F0C7FC66793EB104F16000B91D0622054614
:204E300007F060FA68B92079002804BF00208DF8050015D08DF8050004F140010DF1060019
:204E50000BE08DF805600DF1060005F11601102207F0A6FC0DF11600A91D102207F0A0FCF2
:204E7000E07930B1B8F1000F03D0279941F002012791002100B10121A7789DF89900002F41
:204E900041EA00018DF899100CBF002004209DF89910084329998DF89900684608F008FA88
:204EB0002BB0BDE8F08FC04668130020FBF9FFFFFCFEFFFF0FB42DE9F04106AF8046ADF135
:204ED000280D07F061FF3E1D26F00306361D30F0010001D107F0B8FCCDF81A601420ADF8B3
:204EF00016000025CDF80E50FF248DF818407B68CDF81E3008F0D8F9064607F045FF30F0DE
:204F1000010015D007F088FB4D492A468446062031F80C7F4FB14B681B689E4204D0401E2F
:204F300002F10102F4D100E0D4B2604607F097FC404606F075FA0146FF2905D02046032256
:204F50000DF11A0304F006FD08F0AEF906F0CAFBA8460746CDF8008007F016FF30F0010028
:204F700063D0002F61D041F2883001A906F08AFB009C002853D108F093F9019901264518F4
:204F90007868019B41464FF00052FBF7F3FD00282BD00DF122000DF1230102AA04F0CEFDBB
:204FB000B0B99DF8220003A906F084FB38B9029A07F0CCFE00281CBF029C464615D10299A4
:204FD000684606F067FD78684FF0005108F0FCF90198B0F1FF3FD3D00028D1D008F060F927
:204FF000281A02D00199814217D207F043FA07F10805009F07F010FB01463FB13A4652F86C
:205010000C0C40B9286842F80C0C2F60084607F026FC304603E00246F1E70190B0E720B91D
:205030002CB1204607F0FEFE01E007F00DFCDDF81A0000680AB0BDE8F04104B07047C046F1
:205050002819002070B5414C414B2568186855F8183F00224FF0FF3198473E483E4A416BC6
:205070003E4C88683E4D41791170002608F014F93C4808F00DF908F007F93B48026800212D
:205090005171A02301680722CB804A720321026811720021036859770268D176036883F8DE
:2050B0005C10012102681177036883F85D100021006880F85E100EE06068F6B24FF4C071CC
:2050D000714308444279012A04D1304607F068FC08F0D6F8761C2978F0B28842ECD308F018
:2050F000CBF82248224A0178117005F009FF08F0BFF82049204A0020087000211170012033
:205110001E4A10701E4A11701E4A10701B201E4A11701E4A11701E4A11804FF4A4711D4A01
:205130001080FB201C4A11801C4A1D49108040F648000880FB211B4A11801B4A108008F05C
:2051500093F81A490020087070BD00BFF04E0020EC4E0020E0E30000714F0020684E00209C
:205170007B4F0020CC470020104F00206D4F00207A4F0020734F0020744F0020754F002015
:20519000764F0020774F0020784F0020794F0020524F0020444F0020464F0020484F002085
:2051B0004A4F00204C4F00204E4F00206F4F00202DE9FF4104466668A7680D4607F065FEA6
:2051D0003178012903D1FBF779FE00208FE001213170FBF773FE287870706878B0706868AA
:2051F0007060A868B060E868F06028693061287D3075687D7075A87DB075A869B061287FC6
:205210003077687F7077A87FB0774FF00008C6F82080C6F83080454675627563B562B5633F
:2052300086F82C50102386F83C3086F82D5086F83D50786802F000F8204602F009F92046B7
:2052500002F07CFD60B9386806F09CFF786801F0DDFE07F01AFE3570FBF730FE2C4645E072
:20527000684607F018FC0094387B224A0190B9686B4606F1800005F06FFD684607F03CFC9A
:2052900000941D4938696A46029006F19C0005F0FBFDB07830B906F1D000294606F068FC00
:2052B00016483061707830B906F1EC00294606F05FFC1348F060684607F0ABFD01958DF868
:2052D00000501049029406F584700A226B4605F005F9B969FA6906F1400007F0B1FB0A4A0D
:2052F00006F16C000421234606F048FD20460090BDE8FF81B55E000061B100001BCE000049
:2053100013CE00006586000009CC0000F0B5514C20780D46E90BADF11C0DC90372D1A80835
:2053300060D2E069216A6A080ED2E80828BF85F0040580F08C80680904D303F0A3FD85F0E4
:20535000100584E0002083E0868861B904F11600414A00904FF6FF710223012007F080FF82
:205370000146216221B304A800900027019702230293FF220392E28A30460DF11203FEF72A
:2053900009FB58B99DF813009DF81220216A12EB002204D04989304605F05CFB216AE28A70
:2053B00008463B464FF6FF7107F0DEFF01462162A069002918BF85F001051AD168B1436888
:2053D0005BB1E0698088012100229847A069E7694368B88803210022984707F0BBF885F0B5
:2053F000010534E000200146FEF7B8FE18B185F00205012102E0022185F00205207801F000
:20541000A5FD24E002F0C6FF071C1ED038780126B03811D0401E02D01F3808D011E038796D
:2054300078B97888F9883A8905F014FB0AE03846FEF7B4FC064604E0397907F1080007F0FD
:20545000CFFF16B1384606F05DFF85F40045A8B207B0F0BD681300209CE0000090B54B4C68
:205470000746401EADF1240D3AD0401E35D0801E29D0401E1BD0401E5AD104F1A40007F03C
:2054900026FD43491020FFF715FD4249C2B26B46521E1020E280FFF70DFD10B926A00C21A7
:2054B0000AE005A940F2153000F034FAF6E7142006F074FB25A01D2104F07CF922A00221E8
:2054D00004F078F934E02046A43007F002FD142006F064FB25A00F21EEE728A00E21EBE7F7
:2054F0004FF4417007A900F015FA9DF81D308DF801309DF81E208DF8022000218DF804102D
:205510009DF81C008DF803109DF821308DF800009DF820208DF807309DF81F308DF80620A7
:2055300069468DF805301C4B0A681A6049685960A41C09B0277090BD434F4E4E4543544589
:20555000442E2E2E00C046C00A0D00C0444953434F4E4E4543544544204146544552205457
:20557000494D454F55542E2E2E00C046444953434F4E4E45435445442E2E2E00416476653B
:2055900072746973696E672E2E2E00C088060020F17F0110097F0110A31100202DE9F84FB8
:2055B0005FEA00091C46924600917DD0081C7BD0BAF1000F78D0002C7BD0206A002873D094
:2055D0003F4D616A281D006800296DD0A16A07F07FFE40B2002808BF6FF002055FD084F8E0
:2055F0002C002078618800EB400009180C3188B2216A88473149AB46086030B9DBF804003E
:2056100007F062FE4FF0FF3549E08846668865882178D8F800008F192D183F1806EB4106F9
:205630003618204604F07EFF2078C01C8010286020783F1DC01C8010386020780836C01CFF
:205650008010306022784946281D02F0DDFA28463A463346014607F0FFFD45B22278009819
:205670003B1D194602F0D0FA22785046311D02F0CBFA21786288D8F8000001EB4101521887
:20569000002103F0C5FB616AD8F800008847DBF8040007F019FEE8B2992808BF002584F814
:2056B0002C502846BDE8F88F1CB16FF0010084F82C006FF00100BDE8F88FC046884F002066
:2056D000AC1D00202DE9F0470C46814608AF217A38881E461546890928BF082080F0818088
:2056F0002178DFF804814FF0FF0A102935D0022931D161684A78097842F6021701EB022186
:205710008F4261D100285DD1022E59D168782D7805EB002535F001001BD1E16809684846D2
:2057300007F0B1F9854212D0E06804682146484606F0B8FD50B94FF6FF70214606F0B2FDF2
:20575000002808BF112740D0A0F80090857000273BE0802739E0012737E061684A7B097B92
:205770004CF2E103002701EB0221C91A10D0891E2AD138BB032E23D1E0683946032204460E
:2057900003F046FB29463246204602F03DFA1FE0C0B9FC2E14DAE06829463246044602F054
:2057B00033FA3146204604F005F876B141460869801981F824000861000A81F8230004E096
:2057D0000D2702E00B2700E00A27BAF1FF0F07D04146091D086818B1016809B102208847D6
:2057F0003846BDE8F087C0469C0F00202DE9F0410746FF2F1ED107F097FA10F0070F16D0F9
:20581000042005F0DDFC08B104200AE0012005F0D7FC08B1012004E0022005F0D1FC20B163
:205830000220BDE8F04105F0E7BC06F0A1FE0020BDE8F08105F0E0FC8046012FD8F8045012
:20585000334E04D0022F29D0042F3DD0EFE7022005F0B6FC80B1022005F0CEFC074601205A
:205870007C6805F0ADFC28B1A0683118A86807F0DBFD88B13846DBE7042005F0A1FC28B185
:20589000042005F0B9FC0746012026E0012005F097FC08B94FF000084046C9E7042005F0B6
:2058B0008FFC28B1042005F0A7FC0746022014E0012005F085FC28B1012005F09DFC0746E9
:2058D00002200AE00220E2E7012005F079FC88B1012005F091FC074604207C6805F070FCA4
:2058F0000028C7D0A0683118A86807F09DFD0028C0D1D1E7022005F063FC30B1022005F008
:205910007BFC074604207C68E8E70420BFE700BF589EFFFF2DE9F04F0C4645498A7AADF188
:205930002C0D84460592087B0990CD7800954A7AC88ACB89CE7A91F804A091F80180049248
:20595000B1F842E008900A7A888A03928D780790CA79488A0292CF6906908A79088A01926E
:205970004A79E146A9F54079B9F11D0F10D8DFE809F05B5553514F4D4B494643413F3C3A55
:20599000380F3432302D2B2522201E0F1B1A1918BCF1280F49DA274962461020FFF78AFAFF
:2059B0001FE0099EB246D046CDF814801BE00898079007980690DDF818E005E034310868DC
:2059D00020608888A08030E0704608E0B1F8400007E0C88F03E0888F01E091F83A0003464B
:2059F00012E0208021E0059804900498039001E02E31E4E7039802900298009006E0019AC1
:205A100083310DE064310BE01846EAE7009D0BE02831D4E7276008E0543100E0443110220F
:205A3000204602F0F1F800E025700BB0BDE8F08F280A0020F58401102DE9F043454E0546BE
:205A5000307CADF14C0DA84209D13078012105F069FD3078022105F065FD06F07BFD6C00AE
:205A700004EB85040E210FAA04F1200004F120075FFA80F9F8B206F0D1FC002865D10FA831
:205A9000FF21062206F0E2FD00285ED168461C2207F027FA07A8FF21102207F022FA04F175
:205AB000230010210BAAC0B2804606F0B7FC90B929480778FF2110220BA806F0C7FD50B9EB
:205AD0003FB99DF842000FA900F0010007F034FC01E00120B0740FA8FF210E2207F001FAF8
:205AF00048460E210FAA00F06BFC06461C216A4604F12100C0B200F063FC1C216A46064383
:205B100004F12200C0B200F05BFC10216A460643404600F055FC10216A46064304F1240071
:205B3000C0B200F04DFC04F1250704216A460643F8B200F045FC7035102107AA40EA0604D5
:205B5000E8B200F03DFC204300E0002013B0BDE8F083C046681300205A4F00202DE9FC4771
:205B700005466E68D5F80880B76B002F18BF4FF0FF307BD131630024F477171C74631BD0A5
:205B900006F1400907F081F982466946484605F002F900281ED45046FBF790F99DF800008F
:205BB000316B0870306B736B7F1E00F10100306303F101007063E5D17078726B316B01281E
:205BD000A1EB0201316303D1F36828469847726B14464AE0B7635046FBF770F907F055F965
:205BF000244D0746287820B9022005F093FD012028703846FBF762F91D49086840F40070B9
:205C10000860D8F80010886B40F4FA608863707808BB716806F1EC07384606F01AFFB8B15C
:205C3000B4633846214606F014FF88B107F02DF90746287818B1022005F026FC2C703846F0
:205C5000FBF73CF91027716B306BF777401A3063706BBDE8FC8796F82D0030B1706B20B1B9
:205C7000B46306F19C0007F030F92046BDE8FC8730100040F62500202DE9F84F01F02CF88F
:205C90003F48414CDFF804A14FF4877800F1040B8146206900210F224FF0FF33FAF76AFFB5
:205CB0000546E8082DD3A06807F096FB08BBDAF8081007F00FF8E0B988470646A06807F0AB
:205CD0008BFB90B9A06807F0C3FA071C0DD0B8684068E060B9684868498802F03BFAB86838
:205CF00005F084FB384605F081FBDAF80C1030468847A06807F070FB18B92069042107F01E
:205D100063FBA38868082ED306F07CFA60808342ACBFC2B2DAB2D4F814E02270B9F80010EA
:205D300092B1DFF860C017461BF80160491C0CF8016B7F1E89B291FBF8F606FB08F6A1EB96
:205D50000601F1D1A9F80010BEF1000F05D00D497346102098476088A388834203DA2069CA
:205D7000012107F031FBA80893D3A06807F034FB00288ED12069042107F026FB89E7C046C7
:205D9000F01500208402002008020020D41800202DE9FE4305F068FADFF80481814608F128
:205DB000020000880027001F84B2042C5ADBFF254FF6FF7620466946042205F033FCBDF876
:205DD00000309E4237D0002B35D0D80BC2032FD19D422DD0381FDDB280B2042815DBB0F50F
:205DF000805F12DA00F18852126801A90A60BDF804108D4207D0BDF80610401A001F80B28A
:205E10000428ECDA01E0012300E00023BDF802001BBB211A001D8BB282B207F188511846F3
:205E300005F000FCBDF80200C119091D8FB214E0BDF8020011E0BDF8020003466FF30E035A
:205E500063B9011D8C4208DA002006F091FB484606F072FB0020BDE8FE83241A241FA4B298
:205E7000042CA7DA04F090FD3FB10C484FF088513A4606F095FF06F0B1FD484606F05CFBFB
:205E90004246507800281CBF0020011C03D1C7F58054391DA0B25180BDE8FE8304E001007A
:205EB000FC1A00202DE9F8438146D9F808703868066CD9F8045046646A6CAB6CA86B16F450
:205ED000F06F0146A2EB03082ED1F00919D2700961D389B195F83C40641EA14298BF0C1CBD
:205EF0004846214605F091FDA86B001BA86352D105F19C0006F0E9FF4846414605F0DEFF67
:205F100049E00029F8D0484605F07FFD95F82D10A86311B900283ED101E00020A86305F180
:205F30009C0006F0D2FF36E0F20A19D24FF00008444602E0A86B401EA86340B3484601211F
:205F500005F063FD3868446814F00F04C0F80480F0D0286B401E2863686B401E686316E00F
:205F7000386844680022202904F00F044260CCBF20270F1C4846394605F047FDC7F120078F
:205F9000B845C8BFB8464846414605F097FFEC77484603F043FCB0090BD3A96A49B10F46B3
:205FB000484605F049FDA86218B94846391D04F089F9BDE8F8832DE9FE430E468146308889
:205FD0007188814201D3010001D1012074E00021ADF80410029100244FF6FF7827E00294EF
:205FF000287802283AD1BDF8007001218DF80610BF082878022861D1698904F8011B0222E9
:206010006889000A04F8010B2046696806F0C8FBA41CBDF80400401CADF80400B9B2BDF8DF
:20603000040088424AD26889404547D0401C0021009100237188002280B207F011F9050055
:206050003CD0BDF8040010BB6B4642460521484607F0FAF80400C2D111202DE002208DF84E
:2060700006001221BDF8000090FBF1F72978102924D1688904F8010B10226889000A04F8BE
:20609000010B2046696806F08BFB1034C1E79DF806000128EAD1ACE701A9484607F0D0F83C
:2060B00048B101AB05221621484607F0C5F810B1029804F0EDF90020BDE8FE83BDF8040057
:2060D0000028E9D10A20F7E72DE9F0413C4C243C04F14408404606F0EAFE071C6DD0B86872
:2060F00040F603022026531C02E04068761EF6B260B15EB101888A4218BF8B42F5D1F9689A
:206110002CC820312CC149C881E849003A6A00253D627868D0B197F8270042F002020023A2
:2061300000F00700401E09D0401E04D0801E08D14FF0805304E04FF0804301E04FF000530D
:206150002A467E68F868B7F92410B04706F09DFE0646B4F94A00401C6FF31F30A4F84A00D7
:20617000606C80F82750404606F0A2FA3046FAF7A5FEF868B0F99410B4F94A2091421CD1AE
:2061900090F89670A7B9076897B1E2680D4912680968B2F1FF3F10D0B7FBF1F2012A8CBFF3
:2061B000B7FBF1F10121703006F0EEFCBDE8F08180F89650082002F0E9FDBDE8F081C04609
:2061D000741E0020E82500202DE9FE4F8A4606460CAF97E80300984691460746019106F08A
:2061F00054FE374D8346082005F5B47494F8273033F07F0357D106F1700006F040FEB5F9AD
:206210004800401C6FF31F30A5F84800C4F808A0019A84F82690294BC4F80480B5F848005A
:206230002021114004F11002A08403EA07000027E660B84604F1180382E8030021466A469E
:2062500084F8277005F1380083E8800104F0D6F900282CD096F89630A08C012BA6F894003C
:2062700004BF86F896706F709DF8006094F8270040F0800084F827003EB1A87928B1E878A4
:2062900018B10120E871AF716F705846FAF716FE9DF8000018B1E86B08B903F071FEB4F988
:2062B0002400BDE8FE8F401E04F128049ED15846FAF704FE6FF00100BDE8FE8FF1EFFF9FE9
:2062D000501E00202DE9F04707467D68D7F8089090460E4606F0D9FD8246A86A002864D10D
:2062F00005F5847006F0CBFD0024EC772E6250466C62FAF7E3FD06F0C8FD2F4E33788246EB
:2063100023B9022005F006FA012030705046FAF7D5FD2A49086840F48070086038464146EC
:2063300005F08AFBA862C0B93846414603F0CAFFA878D0B9A96805F1D00006F08AFBE8B1FB
:20635000AC621020E8774946284602F013FE06F09CFD8246307840B323E0D9F80010886BC7
:2063700040F020008863A87810B12046BDE8F087A96805F1D00006F06CFB10B9686ABDE8FB
:20639000F0873846414603F09DFF1020AC624946E877284602F0EEFD06F077FD8246307891
:2063B00018B1022005F070F834705046FAF786FD4FF0FF30BDE8F087F72500203010004091
:2063D0002DE9FE4F3B4D4FF0000A93460290884685F801A003F000FE071C1BD0B8F1000F6B
:2063F00008BF544614D0ABF1010946465446384601A9012205F016F99DF8041019F8010F63
:20641000884205D17F1C761E04F10104BFB2EED1A0454CD06F8808F103004FF6FC7440F694
:20643000FC7104EA0006B819814204DA06F0B4FBFFF7AEFC6F88E41C46F40040ADF80040DE
:20645000BB19ADF80200694601229CB2204602F0CBFFBDF80200694601226FF3DF30ADF8D0
:206470000200204602F0C0FFB0105946C2B2384602F0BAFF02986946012240F40040ADF872
:206490000000204602F0B0FFBDF80000694601226FF3DF30ADF80000204602F0A5FF68786C
:2064B00020B968888019001D688000E082465046BDE8FE8FFC1A00202DE9F0410C461646CA
:2064D0000546984600210622ADF1300D09A802F09FFC2846214609AA01F012F905460A2D1B
:2064F00043DA05F0FFFC07464346294630463A4602F0B6FD68460021142206F0F2FC6C004A
:2065100004EB850404F1240010216A46C0B205F085FF88B96846FF21102206F097F858B937
:20653000253404AA0421E0B205F078FF304607F001016A4606F07CFE05F17000102105AA4C
:20655000C0B205F06BFF68B905A805F049FF042404AF37F8041F19B1BA78304605F0E1FDDD
:20657000641EF6D1284603F06DFFB8F1040F12D10B4A507802280ED1D079002100B10121F3
:20659000907808B141F00401107B08B141F00801304606F049FE0CB00020BDE8F081C046CB
:2065B000681300202DE9F8430446994690460E1C44BF0020011C67D406F081FC05468021DC
:2065D000304605F037F9071C04D097F8271031F07F0103D1284606F0F3FE53E097F82700A0
:2065F00010F0070F46D10020022107F1180640EA090941EA080896E8030008EA000019EA18
:20661000010608BF002820D0284606F0D9FE07F1180003C804F1680604F1680508EA0008AF
:2066300009EA010986E8000395E80C0007F1180696E8030007F118059943904385E8030088
:20665000683494E80300BDE8F88310487968884202D079682166786004F1580080E8000322
:20667000284606F0ADFE04F138004FF0FF3106F0F0F9E5E7284606F0A3FE97F8270010F0F9
:20669000070FFAD102200021BDE8F883D59D00002DE9F04F054685B068888946904606F0D4
:2066B000BFFD871EBFB2DFF8C8A0DFF8C8B0324E3189B81E88424CDB5FEA090049D104A851
:2066D00000902B7B6989288905F10D0206F0C8FD04003ED060892881BDF81020217A6888FD
:2066F00006F09AFD5FEA000933D12879DAF80030BDF8102003900021B81E80B2029001913F
:20671000CDF800B021466888FDF744F95FEA00091FD16389BBF80020DAF80010688806F0A3
:2067300077FD5FEA000914D128894FF6FF7188421CBF401C2881BBD10BE05FEA0900288914
:20675000A8F8000008BF4FF00A09484605B0BDE8F08F30890028F0D0718890FBF1F0308053
:206770003146688806F050FD0028EFD01620EDE7E04E00203E4F0020FC4C0020B0B5324C28
:206790000D46A80842D2E8085DD301250420657204F0C0FF2D480068006B8047206104F159
