:2000000000400020BDEF000001C9011001C9011001C9011001C9011001C9011001C90110B2
:1C00200001C9011001C9011001C9011001C9011001C9011001C901103FC9011089
:20003C002DE9F04FC34C04F110012046ADF16C0D0EF0FEFAC0491020FB2240F6480307F0F9
:20005C005BFB04F148050021284600F0C3FE4FF0FF30002165610DF071FE0021ADA30A462A
:20007C00A06010F04FFBB54D05F1180005F10C010BF012FBB249A86011F060FCB14EA86890
:20009C004FF4E0213246521E0FF02EFEA8684FF4E02132460FF028FEAB4EA8684FF0C051A3
:2000BC003246521E0FF020FEA8684FF0C05132460FF01AFEA54905F12400C82200230EF01D
:2000DC0087FDA3481F220223A24E68603146102007F012FB08270020ADF81E0001258DF80F
:2000FC002B50B946ADF820704FF47A73ADF822908046ADF826300DF12B028DF82C80294622
:20011C00ADF8248040F2053004F0F0FA40F2063002210DF11E0204F0E9FA04F164024FF417
:20013C004270122104F0E2FA04F1200240F20730072104F0DBFA4FF444700BAA294604F06E
:20015C00D5FA40F21130022108AA04F0CFFA40F2123002210DF1220204F0C8FA40F21330CB
:20017C00022109AA04F0C2FA4FF4457002210DF1260204F0BBFA04F1760042461523764909
:20019C000090102007F0B8FA314610200622A02307F0B2FA314610200722A02307F0ACFA75
:2001BC00314610203A46A02307F0A6FA314610200922A02307F0A0FA8DF82D5028468DF887
:2001DC002E500DF12D078DF83000644D8DF82F804FF48062034600972946102007F08CFA98
:2001FC000DF12E0040F20242012300902946102007F082FA0DF12F0040F203420123009023
:20021C002946102007F078FA0CA840F20642012300902946102007F06FFA5149102007F018
:20023C006BFA207810F0E2F84E490246102007F063FA4D4910204FF0FF3207F05DFA4B4950
:20025C0010204FF0FF3207F057FA494D6F782878AFB904F11C01296210F0C8F805F1540767
:20027C00CDF80080024605F14400019005F11C06029740490396AB78102007F03DFA3E492F
:20029C0004F12802102007F037FA207810F0AEF83A490246102007F02FFA207810F0A6F83C
:2002BC0037490246102007F027FA3649102007F023FAA068414618A30A4610F023FA04F1A3
:2002DC003C0004F130010BF0E7F9E34DE060E34FEF61A068A861E248686110F0BBFF0EF017
:2002FC00ADFFE04E06F10807384611F003FA4546012030743946357228460EF0BFFF706016
:20031C00002841D0284611F0CAFB012001460DF0F7F940E00C00C046417564696F20506506
:20033C00726970686572616C207769746820444C4500C0460802002021B100103412002001
:20035C008DF900000E0005800E000010A51501007F1A0100BD840110D5C50000C1520000F6
:20037C0009C20000E9190100AD0A01007D0D01006806002097F10000550F010051880110EB
:20039C003181011041B10010B348806906212A46D3A310F0B7F9284611F081FB1B20294646
:2003BC000DF0AEF9284611F07AFB042003210DF0A7F90520F1210DF0A3F906202B210DF075
:2003DC009FF9072029460DF09BF90B2088210DF097F90C2081210DF093F90D2001210DF03E
:2003FC008FF90E2080210DF08BF912208C210DF087F9132082210DF083F9142080210DF08C
:20041C007FF9012011F04BFB012049460DF078F9022001210DF074F9472032210DF070F9F4
:20043C007B2001210DF06CF9284611F038FB3C2002210DF065F92C2011F031FB0120042146
:20045C000DF05EF9012011F02AFB142025210DF057F90C2049460DF053F90D2049460DF061
:20047C004FF9092030210DF04BF9102029460DF047F9112029460DF043F9284611F00FFB2F
:20049C00412080210DF03CF9422080210DF038F9284611F004FB3F20D6210DF031F9402090
:2004BC0029460DF02DF9484611F0F9FA012004210DF026F9284611F0F2FA3D2002210DF0D2
:2004DC001FF9012011F0EBFA332040210DF018F9342029460DF014F9362004210DF010F9D1
:2004FC00372004210DF00CF9392040210DF008F93A2004210DF004F93B2029460DF000F971
:20051C003C2029460DF0FCF8284611F0C8FA532068210DF0F5F8542068210DF0F1F828469B
:20053C0011F0BDFA5120C0210DF0EAF8522029460DF0E6F8AD4E3078800011F02AFBAC4FB6
:20055C000146AC4D7960C9B14FF6FF700FF098FB3078800011F01DFB0146B96071B14FF69E
:20057C00FF700FF08DFB102007F1700207230090B549019507F0C0F8C0B230B13648806918
:20059C0006214246B8A310F0BDF8261D129605F11C000E9005F12C070F9704F15403139324
:2005BC0004F18C021492B8490D9105F10C0611962069B64A00214FF0FF3300F00FFC00286A
:2005DC001590F5D0002006900DF12A0106AA07A80FF05AFC002840F03082BDF81C1020787F
:2005FC00102940F026829DF82A10884240F02182069D29884FF6FF728A4200F0E981297891
:20061C00B02940F01682A1781695022940F0D7816978162908D128790090A068042100222D
:20063C00B5A310F06FF820780D998F78002F40F095818446084600784FF00008401E00F000
:20065C006581401E00F02481401E00F08C80401E40F0708108E0C04674100020891A010096
:20067C006C37010050140020604610902879A84608F1080905285BD1FFE7A87A012814BFFA
:20069C004FF0120B4FF0040BB9F800700025AF4209DC98F80410A06805294CD198F80120D0
:2006BC001A2A48D149E00D98D9F8046090F801A0BE4902227019801C10F00EFA002834D110
:2006DC000D994F680BFB05F0BAF1010FC0B213D08119305C497800EB0120F88123E0C04621
:2006FC004661696C3A2043616E2774206F70656E20636F64656300C08119305C49780023A1
:20071C0000EB01200D99388110984B700FF06EFE798900910190AD49BB89B8F80220102024
:20073C005B1C06F0E9FFB9F800706D1CEDB2AEE7A06898F8041001290BD10D9949680F89C9
:20075C003FB1CF892FB10D9900224FF001080A7001E06FF00208B8F1010F40F0EC800D9986
:20077C0001228A70E7E04046A946CDF85CC02E79189009F10807092E10D1B9F808602EB1BB
:20079C00A87AB7F800B01990C34535DC99F80400092803D199F801001A2803D099F8040024
:2007BC00012820D10D984568EF88BFB1AE89AEB18046042088F8000017980FF017FEA988D6
:2007DC00009101908149B9F802207F1C3B46102006F092FF012088F8010004E00021017053
:2007FC006FF002071897DDF86080A3E0694F0020240E00209C3401000D9B1998D7F804A0C7
:20081C005E680E99102200FB08F0C5B20AEB0503581D109010F060F9C0B110980F99102255
:20083C0010F05AF9D8B970887081786829184978405D00EB0120B080786840190179C07829
:20085C0000EB0120B08108E0F50201000AEB05000179C07800EB0120F080B7F800B008F1DF
:20087C0001005FFA80F88FE74661696C3A2043616E27742061646420417564696F2053655E
:20089C00727669636500C046E4140020010000C029796046072915D10D992F894E685FB1C2
:2008BC00E9684A78097801EB02213180E968CA78897801EB022171802979072902D16978AE
:2008DC001A2904D02979012934D10D994E6837882FB90D9841466FF0020801702AE00D9A5A
:2008FC00032111700FF082FD71883B460091B849019010201BE0C04641545420527370208D
:20091C0064726F7070656420256400C029796046032918BF7F290DD10D9A022111700FF049
:20093C0065FD10210091119B01900846AF496A8806F0E2FEA068B8F1010F10D10521002242
:20095C00BFA30FF0DFFE169DB4F85C1068880DF007F9B4F8621068880DF002F9A068169DC4
:20097C00B4F8602029791B390CD0891E02D062391ED024E06F7817BB6A88C349102006F07A
:20099C00BBFE1CE02889824205D0B4F85A10814215D1002000E001206989ADF81010E96854
:2009BC00059104A903F052FD09E0C046F238010029890022BBA3009104210FF0A3FE297952
:2009DC0005F1080000F00EFA33E0C0461D160100688800092DD3A7695FB3607807F10806BF
:2009FC00401C6070AE4900967A883B79102006F083FE5FFA80F8B8F1160F12D02078B8F103
:200A1C00040F0ED0A5690FF0F1FC03460020A34900906A88102006F06FFE40460CF00CFFD8
:200A3C0007E060780090A06805210022A1A30FF069FE069808B111F06CF81598C00FFFF426
:200A5C00B7AD606900F0D2F900287FF4B1AD6569284600F0CFF9854208BF002502D0856833
:200A7C000EF038FA002DECD02988A068491E74D0491E4AD0891E2CD00C3903D0103900F068
:200A9C00058106E1AE78E178B14220D0D0498A884FF6FF77974215D0CB491020012306F069
:200ABC002BFE70B1182E09D0300903D270090ED3042000E0052006F04DFD08E008F032FBD3
:200ADC0005E0A068022100227FA30FF01BFEE670DFE069680F7837B1BC49002282A300915C
:200AFC0004210FF00FFE40F20E300AA907F0CAFFB6480023BDF82820B2490090102006F0F7
:200B1C00FBFD68680EF0E6F9C3E06968AF780E7805210A4610F0E8FEC7B17F1E0ED07F1E07
:200B3C0005D07F1EEDD1002EEBD173A30FE0A068002E08BF73A30BD077A305E0A068002E57
:200B5C0008BF7BA304D07EA3009601E081A3A068022100220FF0D6FDD3E7A978491E7DD056
:200B7C00491E6AD0891E43D0491E33D0491E0AD0491E06D0491E1CBF022100225AD179A348
:200B9C007DE07AA37BE00220A07004A940F2153007F078FF129940F20E3007F073FFA088F4
:200BBC008B498880A068002276A302210FF0AAFDA66804A80DF08CFD0346032100223046EC
:200BDC000FF0A0FD0D9801210170139F476060E04B07010014200CF02FFEA068022100228F
:200BFC006BA30FF08FFD08F09DFA20E001D50000149810F0EAFF14200CF01EFEA0680221CF
:200C1C00002266A30FF07EFD08F08CFA0D99002217460A703B468B704868028047803E46FD
:200C3C008680C380078146818381C7814E60A0680321052210F058FE2BE05CA31FE0C0464E
:200C5C005365727669636520446973636F7665727920436F6D706C65746500C04FF44170C2
:200C7C0004A907F00FFFA66804A80DF031FD03460121002230460FF045FDA0684EA3022161
:200C9C0000220FF03FFD04E0C1050100A87801F079FD28460EF01EF9D3E6C04699B7001007
:200CBC00DDFE00104D54552053697A653A20256400C046C05273702073656E642072657469
:200CDC0072793A20256400C0436F6E6E656374696F6E20726571756972656420666F722052
:200CFC0073747265616D00C050617373636F64653A20256400C046C0426F6E6420536176E4
:200D1C00656400C0426F6E642073617665207375636365737300C046426F6E6420736176D0
:200D3C0065206661696C65643A20256400C046C050616972696E6720737563636573730021
:200D5C0050616972696E67206661696C3A20256400C046C050616972696E672073746172A4
:200D7C00746564004572726F7200C046436F6E6E6563746564204164766572746973696E3E
:200D9C006700C046436F6E6E656374656400C04654696D6564204F757400C046446973635D
:200DBC006F6E6E656374656400C046C04164766572746973696E6700496E697469616C694E
:200DDC007A656400D9FE0000B17F011040E2010074100020DFF800F0A1B60110DFF800F0DF
:200DFC00F99B0110DFF800F089840110DFF800F04FBF0110DFF800F019BD01102DE9F04F64
:200E1C006C4CE2680746880FADF1140DC0F0CE805068406808B18047E2685168664E88688C
:200E3C0008B9CD6875B13568002DFCD00022326010B18047E0684168C86800B180475F4868
:200E5C000FF0CAFC4FF00008C6F800805C4846F81C0C5C4810F04EFD40F60A09A4F824909A
:200E7C00A378A4F82680BD6894F83000C34604F1240A00F0F00084F83000012BC4F828B0A0
:200E9C0094F83100A5F8028000F0F00040F0010084F8310001D17B7CABB1B8680088A9F135
:200EBC000801814208D0B0F5C15F05D0298B4FF60F400840288304E0298A4FF60F4008402A
:200EDC00288287F811804048016883680193C368406B00911022694620F0784040F08050BC
:200EFC0003903A4802930AF089FB494600E01D466B6813B118888142F9D1C5F804A0687BD4
:200F1C0000F0F000687304F1380010F04CFE80680088CA1F824220D0891F81421DD03B8C57
:200F3C00EBB197F82C0097F82D30C7F824B000F0F00087F82C0003F0F00040F0010087F8A1
:200F5C002D0007F12002A2629AF80D00A7F8228000F0F0008AF80D0001E0C4F81080306816
:200F7C000028FCD0C6F80080B968237A0A8A4FF6FF301040088283B91548006801680120F8
:200F9C00884701280FD0687B00F0F00040F001006873104810F0AEFC05E00EF0AFF90028DA
:200FBC00FBD010F0FEFDB86846F81C0C05B0BDE8F08FC046882000201C10044001000706A4
:200FDC0001010E04E52E00004C13005018000021E0010010DDDB0000014801210FF08ABA8F
:040FFC00C0290020E8
:20100000B41200001810000015AB0110FDB301106DC00110FDAE011099B5011000000000F7
:08102000000000002D0000009B
:20102800B01200003C100000B1C00110A9BF011067C0011069B80110000000000000000035
:041048003000000074
:20104C00B012000060100000BDC00110CDB30110D9BD01106DB3011000000000000000005B
:04106C00310000004F
:20107000000000001415002004000000000000000000000020000000E8C901103000000001
:20109000281000001C1500200400000000000000000000000C000000D8CA011018000000DC
:2010B0004C1000002415002004000000000000000000000024000000F0CA01101800000060
:2010D000000000002C1500200400000000000000000000001000000018CA01102C0000006C
:2010F000001000003C150020040000000000000000000000200000006CCA011024000000D0
:20111000FFFFFFFF441500200400000000000000000000002800000090CA0110240000008F
:20113000FFFFFFFF4C1500200400000000000000000000001400000008CB0110180000000E
:20115000FFFFFFFF5415002004000000000000000000000058000000B4C9011034000000DC
:20117000FFFFFFFF5C1500200400000000000000000000001000000020CB011018000000AA
:20119000FFFFFFFF641500200400000000000000000000001C000000B4CA011024000000D7
:2011B000FFFFFFFF6C1500200400000000000000000000003800000044CA011028000000FF
:2011D000FFFFFFFF741500200400000000000000000000005400000078C901103C00000074
:0811F000010000004C38010071
:0411F80001000000F2
:0411FC0000000E00E1
:0412000000000F00DB
:0412040032000000B4
:0412080001000000E1
:04120C006814002042
:0412100000020000D8
:0412140000000000D6
:0412180001C90110F7
:04121C0000000000CE
:0412200000000000CA
:0412240008000000BE
:0412280000002200A0
:04122C00C8120020C4
:0412300000000000BA
:0412340000000000B6
:0412380008000000AA
:04123C00101400206A
:0412400000000000AA
:0412440000000000A6
:04124800080000009A
:04124C00000000009E
:04125000000000009A
:041254000000000096
:041258000000000092
:04125C00010000008D
:0412600060130020F7
:041264000600000080
:041268000100000081
:04126C00E811002065
:04127000000000007A
:041274000000000076
:041278000002000070
:04127C00000000006E
:02128000290043
:02128200010069
:02128400250043
:02128600300036
:02128800310033
:02128A002D0035
:02128C0001005F
:01128E00015E
:0812900003000000E437010037
:0812980000000000000000004E
:0412A0000000010049
:0412A4000000030043
:0412A80013C401105A
:0412AC0077150100B1
:0412B000B812000070
:0412B400B81200006C
:0412B8000000000032
:0412BC00D01400202A
:0412C000CD16010046
:0412C4002000000006
:0412C80034370100B6
:0412CC007C3501006C
:0412D00029C101101F
:0412D4009BFC00007F
:0412D800D7FE00003D
:0412DC00A1C7011095
:0412E000A3C701108F
:0412E4000000000006
:0412E8005B3701006F
:0412EC00E8330100E2
:0412F00000340100C5
:0412F400D0330100F2
:0212F8000200F2
:0212FA000900E9
:0212FC000100EF
:0212FE000000EE
:0113000001EB
:041304006D16010061
:041308002DFC0000B8
:04130C00F10B0100E0
:0413100071FE00006A
:0413140065FC000074
:041318000DED0000D7
:04131C00ADD0000050
:04132000F7180100B9
:0413240039E00000AC
:0413280015C70110D4
:04132C0025C70110C0
:201330002DE9F84FDFF81885DFF8181588F80000002008600821DFF8100501700D2141804B
:201350004FF408718180DFF80405DFF8041501608A7EDFF800050270FF2ACB7E437008BF4D
:20137000FF2B0D7F85704E7FC6708F7F0771C97F417115D1FF2D08BFFF2E11D1FF2F08BF52
:20139000FF290DD1DFF8D0140A7802704A7842708A788270CA78C2700A7902714979417142
:2013B000DFF8B81402780A70FF2542784A7082788A70C278CA7002790A714079DFF8A0243C
:2013D00048710021DFF89C04057045708570C570057145711180DFF89004DFF89014466B04
:2013F000DFF88C247078087031781170B078DFF884140870B1680879DFF87C14421E0A70E2
:20141000F078DFF878140870F068DFF87414086008B90FF04DFE3069DFF86844206008B9F2
:201430000FF046FE2068DFF8607401688847216851F8042F38469047DFF85004DFF850142E
:201450003862DFF8500478627069086008B90FF02FFEB069DFF84014086008B90FF028FE1D
:20147000DFF838B4DFF838649BF8040010F0B8F9306008B900F045B99BF80500DFF8247498
:2014900010F0AEF9386008B9306837E19BF80600DFF8144410F0A4F9206020B9306810F036
:2014B000A7F938682AE19BF80700DFF8009410F097F9C9F8000038B9306810F099F93868C0
:2014D00010F096F9206819E1DFF8A4130A789BF80000DFF8DCA3921C504380B210F080F906
:2014F000CAF8080058B9306810F082F9386810F07FF9206810F07CF9D9F80000FEE0DC4806
:201510000078002800F00281BBF80210DFF8A4B3484380B210F064F9CBF8040078B930680B
:2015300010F066F9386810F063F9206810F060F9D9F8000010F05CF9DAF80800DEE0CC488D
:20155000007810F04DF9DC49086080B9306810F04FF9386810F04CF9D9F8000010F048F920
:20157000DAF8080010F044F9DBF80400C6E0C04800781821484310F033F9D04A1060B0B964
:20159000306810F035F9386810F032F9206810F02FF9D9F8000010F02BF9DAF8080010F02B
:2015B00027F9DBF8040010F023F9C348A5E0B0480078400110F014F9C1490860D8B930681F
:2015D00010F016F9386810F013F9206810F010F9D9F8000010F00CF9DAF8080010F008F9FE
:2015F000DBF8040010F004F9B348006810F000F9B249086882E09E480078000110F0F0F897
:20161000B0490860F0B9306810F0F2F8386810F0EFF8206810F0ECF8D9F8000010F0E8F88A
:20163000DAF8080010F0E4F8DBF8040010F0E0F8A148006810F0DCF8A049086810F0D8F8E7
:201650009F485AE08A480078000110F0C9F89E49086018BB306810F0CBF8386810F0C8F870
:20167000206810F0C5F8D9F8000010F0C1F8DAF8080010F0BDF8DBF8040010F0B9F88E489E
:20169000006810F0B5F88D49086810F0B1F88C48006810F0ADF88B4908682FE074480078CE
:2016B0003021484310F09CF8884A106070BB306810F09EF8386810F09BF8206810F098F8C4
:2016D000D9F8000010F094F8DAF8080010F090F8DBF8040010F08CF87748006810F088F839
:2016F0007649086810F084F87548006810F080F87449086810F07CF87348006810F078F85E
:2017100000200FF0D5FC4FF4804192E03168012008713068057331684D733068857331688E
:20173000CD7330680574002031684D743268D072A0223168487103213068C2800172072046
:20175000316848720020326890722821306841820121C176002031684877326882F85E0083
:20177000012031680877326882F85D00396808713868057339684D73386885733968CD73A3
:2017900038680574002039684D743A68D072396848713A6890724FF4207039680022C880DE
:2017B00008818A7401213A68D17421680D732268557321688D732268D57321680D740021A8
:2017D000226855742368D9720121226811710021236859712168C88008810020887221682F
:2017F000887405202268D0743948016888472A490A6805461068804727490A6852F8043F53
:201810000020984718481D4BC16818780A88314902430A80284630490A6890470C212F4889
:2018300010F0CCFC0F4810F0C5FC10F0BFFC4FF4005198F80000BDE8F44F08F0FDBE00BF7F
:201850006E4F0020044F0020604E0020084F0020B63F00502C4E0020E81200503C4E002010
:201870000C4F0020344E0020643801006D4F00207B4F00206B4F0020724F00206C4F002042
:20189000F04E0020F44E00207C4B0020F1170100F84E002001180100FC4E00200C1500205D
:2018B000104F0020144F0020184F00201C4F00200C2A0020684E0020004F0020804E00207B
:2018D000844E0020884E00208C4E0020904E0020C80F0020544F0020CC0F0020F84D0020FE
:2018F0002DE9F04FD24C04F118012046ADF1340D0CF0A4FECF4D00264FF6FF700123667084
:2019100032462082294604F1A4000DF067F90223324604F1C80029460DF060F9042332467A
:2019300004F1EC0029460DF059F94FF0040A04F1440810224046314684F802A00BF010FA18
:2019500004F154091022484631460BF009FA04F11C073E6004F10A052E70E6712672072082
:201970006072CDF80080DFF80083022210200346414605F0C7FE102003224146CDF80090D7
:20199000034605F0BFFE1020524641460097134605F0B8FE4FF0080B4FF0030905F12A0095
:2019B000079005F17900089005F11E00099005F15A000A9024350B9517E06078A28FE18F79
:2019D000B4F84050B4F8423006280ED1ADF80A20ADF80C10ADF80E50BA48ADF8103010F016
:2019F000FAF8012002A90AF031FEA069B44A31464FF0FF33FFF7F8F9071CF6D0059606A8E8
:201A10000DF11A0105AA0EF045FA002840F0C081BDF818102078102940F0B6819DF81A1044
:201A3000884240F0B181059D29884FF6FF728A4200F09F812B78A23B00F082812E3B40F079
:201A5000A381A978B046002900F03E81891E00F00D81491E012940F2D980891E00F09C806F
:201A7000491E6FD0491E5CD0083900F05981891E40F05C8194F83A30A888052BADF808005B
:201A900047D001208DF812008E4810F0A4F894F83A0001281ED004281CD003280DD00228CE
:201AB0000BD00598C188ADF80A100189ADF80C104189ADF80E10818927E0A08FE58FADF865
:201AD0000A00B4F84030ADF80C50B4F84210ADF80E301AE0A08FE9888842D8BF081CADF82A
:201AF0000A002989E08F8842D8BF081CADF80C006989B4F840008842D8BF081CADF80E005F
:201B1000A989B4F84200884200DC0846ADF8100001E08DF81260AA49102002AA05F0F2FD61
:201B300004E1A84810F057F86B78002B40F0FE80E88860822889A0826889E08261480FF095
:201B50000FFEF3E0AA88B649102005F0DBFD0798414606220BF004F96682A682E682A87988
:201B70002073584810F037F8964810F034F84FF001084FF6FF702379208253B9A879082852
:201B900012BF84F801A00520607040460FF018FECCE084F80190C9E06B787BBB291D079857
:201BB0000A680260898881800623637068892082E8896082288AA082688AE082E878E07273
:201BD00094F83A00012818BF02280BD19A4910201F2205F097FD4FF47A7180B241433948E7
:201BF0000DF020FF688900909249CDF804A0EA7810202D1D2B4605F085FD9AE0687831287D
:201C100040F08B80E67084F801A092E06B78002B40F08380A878E3896178032818D0E07883
:201C300025794BB9012814BF2671E6700BE0C04668060020D1170100054304D07F4819465F
:201C50000DF0F0FE61780729DDD10620607070E0062907D0E578002D08BF84F8019068D0F0
:201C70000220F3E70720F1E79D0601006B78002B53D1EB78617893B902291DD007291BD0C8
:201C9000062902D12079012816D1032914D06B480FF066FD80B901200FF092FD0CE00EF092
:201CB000ABFB0246A07962490090089843460190102005F027FD68706D78002D2DD135E0D2
:201CD00007000080300700206B7833BB5C485749009002221020034605F014FD59484A469D
:201CF000524900901020034605F00CFDED1C099829680160A98801238180207863700EF0D7
:201D10007BFB024601230A9D6079494900901020019505F0F7FCC0B258B184F801B008E0F1
:201D3000AA8841491020052305F0ECFCB8F1010F2AD1256A45B32D6835B36078A84723E020
:201D50006879132820D12889012808D1607B022805D11C480FF03FFF0EF0CEF814E0364900
:201D70001020052205F0CEFC81B216480DF05AFE0AE06888C00B07D3334852462B490090C1
:201D90001346102005F0BEFC059808B10FF0C7FE2579E078790830D355EA00032DD02046C2
:201DB00000788DB9E179257A8DF808100B9A8DF8095013680DF10A052B609288AA8005E000
:201DD00005160110540700208DF80890617A8DF81010A17A8DF811100EF00EFB1149024645
:201DF00002AB102005F08EFC38B1256A84F801B01DB12D680DB15846A847B80803D3134932
:201E100030460AF023FCF808FFF4EFAD607B401E3FF4D3AD401E7FF4E8AD0EF06DF8E4E516
:201E3000FDE5000059440110C1170110058E00000945011041990000F58401100C07002090
:201E5000AC060020BC06002084060020A20600202DE9F04F0F46CD4C0168616441688068CA
:201E7000ADF11C0DE060CE48A1608047CD48616C0160A168DFF83CB34160E168DFF83083E7
:201E90008160C949002FA146C16064D03D68E8788DF80C0028798DF80D0003A810F082F9E5
:201EB000A86808B1C1490160E86808B1CD490160CD4C2878207068786070A878BE68A0700F
:201ED00031787368E170B26863602E69A2607968E6610868E06068692062A8696062287F02
:201EF00084F828002A6AE262786886681EB900200FF0DEF800E066617868C06818B900201C
:201F10000FF0D6F800E0A0617868406818B900200FF0CEF800E020612869E061F868816849
:201F30000E6806B9B24EB1494FF0010A4E60C66881F801A036B900200FF0BAF845462E6841
:201F5000F86801E045462E6000685C46FB68A0615868E06107E000200FF0AAF845462E68DF
:201F70004FF0010A5C46361DCF493668621C04F114035020B04710B1286880688047D9F89A
:201F90000800804783460023CF4ECD48CD4F2061984633714246B370380BF270C7B2401C00
:201FB000C1B2377018467170B94280F28F8198B9B8F1000F08D130780EF0DCFD0420F08046
:201FD00031790020A1B912E086F802800EF0B4F8404607F033FC07E0B8F1000F02D040468E
:201FF0000CF020FE0EF0A8F83179002001B9504610B900200FF05CF80020D14E2B68A060F1
:202010000746B760986980477060C54880F800A03946418014200FF0E3FBFF211422A062E6
:202030000FF0E1FDE01CFF2102220FF0DCFD14200FF0D6FBBB4F38603868002114220FF0FF
:20205000D2FD0020FFF76CF950460DF04FFBB6480188FF2906D1022101807822001D002147
:202070000FF0C1FD032010F099F8042010F092F8052010F08BF8062010F084F807200BF0C5
:20209000A5FFAA4E0820307006F1240010F076F80CF05AF906F1360805200A2142460EF0E9
:2020B000F5FA38B10020C0F10901401C08F8011B0A28F8DB3078102108F0BEFA2B689C49DF
:2020D00009200DF10E025E68087001AB10200021B047A06AD9F80C10E2690A260A309DF846
:2020F0000E30761E00F8013BF9D1921E5846E261884704F12000DFF83C822B68626A1E6910
:2021100005904146504604F12003B04710B1286880688047B8460EF005FC5FEA000B03D0CA
:2021300009F03CFC4FF0FF3B002647E00298216910F8062CA0F10C07032A03D100293DD05F
:2021500088473BE0A16A9DF810C00A223046491E11F8013F9C4506D0521E00F10100F7D1E2
:202170004FF0FF0A01E05FFA80FA2868BAF1FF0F00F1080020D038790DF0FCFCB97901291F
:2021900006D0022904BF0299887003E0C00F002002990870029950460EF048FE0EE0C0468A
:2021B00041490010F8440020D42101006905010088150020C0130020006880472868C36919
:2021D00004A902AA0DF10F0098470028AED0D8F800007700C35B6BB9761CF6B20A2EF8DB36
:2021F0002BE0C0463113010000130020FC140020ABE500000A2E20DAD9F808008047D8F8E4
:202210000010002231F807A0CA53D9F80C108847494850F8262026705146304690470646EE
:20223000FF202070D9F808008047D8F800107A5A16437E52D9F80C1088470EF073FB0746ED
:20225000BB451AD0D9F8080007B93C4FE169B94238BF0F1C804782462868016A206A884716
:20227000626A28683349059B521C6262C6683846B047D9F80C1050468847A7682968606946
:2022900014319FB9D8F800000A270026835B33B10969606988472968D8F8000014317F1E5B
:2022B00006F10206F2D105E03D0B0100096988472968143109684FF0FF3088472BE7C04641
:2022D000D913010000D001002C2A0020384600216A4604230DF028FE009BB078B3F5801F17
:2022F0000ED043B9B8F1000F03D040460CF09AFCB078B84610E038460CF094FCB0780BE01E
:20231000002804BF381CB77006D00CF08BFC38460CF088FC0020B07071787F1CFFB243E652
:202330007C1200205C2A0020FC100020880A00206F2A0020BDFB00002C3501008EC2F5281B
:20235000002A00202DE9F0434FF0000E42F624496FF004087246ADF1240DC0F20109EC4608
:2023700050F8047F5FB159F80E30FF1A002FD8BFCCF8007005DD7B10CCF8003001E0CCF8CA
:2023900000805CF8043B9342A8BF1A1C50F8047F0EF1040E5FB159F80E30FF1A002FD8BF4E
:2023B000CCF8007005DD7B10CCF8003001E0CCF800805CF8043B9342A8BF1A1C50F8047F83
:2023D0000EF1040E5FB159F80E30FF1A002FD8BFCCF8007005DD7B10CCF8003001E0CCF824
:2023F00000805CF8043B9342A8BF1A1C50F8047F0EF1040E5FB159F80E30FF1A002FD8BFEE
:20241000CCF8007005DD7B10CCF8003001E0CCF800805CF8043B9342A8BF1A1C0EF1040EDC
:20243000BEF1200F9CDB0025501C2F46009C0246ED19401EA24203DA00F11003A34207DC5C
:2024500023461B1A012B18BF002702D1022700E00127019B9A4203DA00F110069E4208DC80
:202470001E46361A012E05D1029EBF1CB24204DB08E07F1C029EB24204DAB44600F110064F
:20249000664508DC029E361A012E05D1039EBF1CB24204DB08E07F1C039EB24204DAB44669
:2024B00000F11006664508DC039E361A012E05D1049EBF1CB24204DB08E07F1C049EB24217
:2024D00004DAB44600F11006664508DC049E361A012E05D1059EBF1CB24204DB08E07F1CB3
:2024F000059EB24204DAB44600F11006664508DC059E361A012E05D1069EBF1CB24204DB7D
:2025100008E07F1C069EB24204DAB44600F11006664508DC069E361A012E05D1079EBF1CA9
:20253000B24204DB07E07F1C079EB24203DA00F11002B24205DC3246121A012A02D1BF1C6B
:2025500000E07F1CEA191A2AFFF670AF1A2A04BF3D44401E861CA64208DC241A102C0C605B
:2025700006DB10229E420A6004DD0DE000220A609E4209DC1B1A102B4B6007DB1023029A03
:202590004B60964205DD0EE000224A60029A964209DC121A102A8A6007DB1023039A8B60C6
:2025B000964205DD0EE000228A60039A964209DC121A102ACA6007DB1023049ACB609642B7
:2025D00005DD0EE00022CA60049A964209DC121A102A0A6107DB1023059A0B61964205DDC9
:2025F0000EE000220A61059A964209DC121A102A4A6107DB1023069A4B61964205DD0EE0DA
:2026100000224A61069A964209DC121A102A8A6107DB1023079A8B61964205DD0BE00022C6
:202630008A61079A964206DC121A102ACA6104DB1022CA6101E00022CA611A2D80F2A4806C
:2026500002240E1F0027234656F8042F022A01DB102A0BDB5DF80720121A012A0AD1192DEA
:2026700008DAAD1C34601A2D06DB59E032686D1C521C32601A2D53DA3F1D202F50DA56F8F0
:20269000042F022A01DB102A0BDB5DF80720121A012A0AD1192D08DAAD1C34601A2D06DB74
:2026B0003EE032686D1C521C32601A2D38DA3F1D202F35DA56F8042F022A01DB102A0BDB0D
:2026D0005DF80720121A012A0AD1192D08DAAD1C33601A2D06DB23E032686D1C521C32606A
:2026F0001A2D1DDA3F1D202F1ADA56F8042F022A01DB102A0BDB5DF80720121A012A0AD196
:20271000192D08DAAD1C33601A2D06DB08E032686D1C521C32601A2D02DA3F1D202F93DBB6
:202730001A2D31DA091F002251F8040F102802DA401C6D1C08601A2D26DA521C082A23DA4C
:2027500051F8040F102802DA401C6D1C08601A2D1ADA521C082A17DA51F8040F102802DA70
:20277000401C6D1C08601A2D0EDA521C082A0BDA51F8040F102802DA401C6D1C08601A2D44
:2027900002DA521C082ACFDB09B0BDE8F08370472DE9F04FADF13C0D0C904008C0F00F811B
:2027B000C64C2078002800F00A8101208DF81000606904A907F01AFE012840F0008104F1B2
:2027D0004402DDF8148094F83E3092F900104546C8B2052B0D90B4F946000B951FFA80F9AE
:2027F0003ED0B74B9246464694F8402058801F46397006EB4202B24219D9521BD21C971066
:2028100035F9020B08F0F0F9834635F9020B08F0EBF94BEA001B7F1E5FFA8BF006F8010BE1
:20283000EED1A748A649B0F9020091F90010AAF802008AF800104046059004210EF0F7FC3F
:20285000A07888F80000A078401CA0700D9F88F8017088F802904FEA292688F8036082E0D0
:2028700094F84000676B002D4FEA40063D4670D000202061A87830BB0FF0B9F9A8802F780F
:20289000002F0CBF3920A87900214FF42472A87105F61A000AF064FA4FF48070C5F8140828
:2028B000B74BC5F8AC3A012785F81878B54AC5F8B02A01232B70B449C5F8B41A1A46AA70D7
:2028D00080A7C5F8B87A281D0B900088B04240D8B8F1000F3DD0A87939283AD8012005F6EB
:2028F00014070090D5F8B06A386805F61A0241467823B047C5F81408DDF82C9095F818183F
:202910000026A0EBC10005EB400000F60A1AD7F898C209EB46123846514608232432E047B9
:2029300038793618AAEB001A0F2EF0DB08200090D5F8B46A05F108010F22012305F12800BC
:20295000B047D5F8C05A4046494639220023A8472061404605210EF06AFCA07888F80100DD
:20297000A078401CA070A28884491020012304F0C9FE474688B1002503E094F843006D1C97
:202990003F1894F84100A84207DD94F8431001203A460CF03FFA0028EFD007980027029041
:2029B00002A9606903970BF051FD01208DF81000606904A907F01AFD01283FF400AF0C98C7
:2029D000400901D308F036FD0C98C00801D308F0A3FB0C98394C800925D394F83C0002282D
:2029F00021D194F83D10A069032917D10EF02CFC606905F01DF894F83E20A169207050B161
:202A10000320052A84F83C0003D0042A0BD12FA302E034A300E038A3084600E03DA3072143
:202A300000220DF075FE0C9800092ED394F83C00E169012801D041B322E094F83E00012158
:202A50000AAA8DF8280000200CF0E4F9A269E169C0B9104607213BA300220DF059FE94F8E0
:202A70003E00052805D00020A4F8460084F8440001E00CF065FF0220E16984F83C0021B10D
:202A9000202001E011B108208847A2690C98800811D31046062135A300220DF039FE0FF087
:202AB00069FB85B20420E16984F83E0001B1884728460FF05BFB0FB0BDE8F08F7410002078
:202AD000342A002043433236585800C0414450434D2053747265616D205374617274656422
:202AF00000C046C06D5342432053747265616D2053746172746564004661696C656420745F
:202B10006F207374617274204932532073747265616D00C0537461727465642073747265D9
:202B3000616D207768656E2041637469766520776173206E6F74207265717565737465649B
:202B500000C046C053656E7420537461727420436D642C20696E697469616C697A696E674C
:202B700020656E636F64657200C046C0493253204572726F72204576656E7400B17F011024
:202B90006F5F0000F54B000039C400002DE9F04FAD2283468A468BF8002000208BF8020015
:202BB000DAF80430DAF80810DAF81000DAF80C200BF104091B0701F00F0100F00F0041EADF
:202BD000136161F31F1240EA0210010A09F8011B09F8010BDAF81430DAF81820DAF81C105D
:202BF000DAF82080ADF1840D03F00F0302F00F0201F00F0108F00F0843EA001342EA03128B
:202C100041EA021148EA01184FEA1820694609F8010B504609F8018BFFF794FB009801228B
:202C300002FA00F1DAF80400DAF820E0DAF81CC0491EC0F10F031030994002FA00F0DAF840
:202C5000187018900198089102FA00F1DAF80800491EC0F10F031030994002FA00F011906B
:202C7000DAF80C000991114600F1100201FA02F212920A46DAF81010164601F110033546C1
:202C9000144602FA03F31393CEF10F031E930EF1100ECCF10F031D9305FA0EF51F950CF161
:202CB000100CC7F10F03079D1C9310373346AA4003FA0CF304FA07F5DDF80CE01693069F1C
:202CD0001F9BDDF810C0BC401793059F1C9BC0F10F00C1F10F01BE40521E0127761E07FAD7
:202CF0000CF77F1E1A97DAF814701595641E9E40C7F10F0CCDF86CC04FF0010C10370CFAB6
:202D10000EFCDDF808E0CDF864C04FF0010C0CFA0EFCACF1010C4FF0010E0CFA00FC0EFA95
:202D300007FE19981B9F0D96401ECDF850E088400B901A991D98CDF828C0B94084400C914B
:202D5000189F0E941E981097824000200F928646ADF104034FF0000C53F8047FEFB10CEB09
:202D70004E110DEB0C020DEB0C055144126C2E6A4C6AC01908FA07F80F282244A6FB022139
:202D900041EA080809D9083828FA00F109F8011B083828FA00F109F8011B53F8047F0CF15B
:202DB000040CEFB10CEB4E110DEB0C020DEB0C055144126C2E6A4C6AC01908FA07F80F287C
:202DD0002244A6FB022141EA080809D9083828FA00F109F8011B083828FA00F109F8011BBC
:202DF00053F8047F0CF1040CEFB10CEB4E110DEB0C020DEB0C055144126C2E6A4C6AC019A9
:202E100008FA07F80F282244A6FB022141EA080809D9083828FA00F109F8011B083828FA51
:202E300000F109F8011B53F8047F0CF1040CEFB10CEB4E110DEB0C020DEB0C055144126C81
:202E50002E6A4C6AC01908FA07F80F282244A6FB022141EA080809D9083828FA00F109F868
:202E7000011B083828FA00F109F8011B0CF1040CBCF1200FFFF670AF0EF1010EBEF10F0FDE
:202E9000FFF666AF082819D306094FEA1017C0F3C0010CD0083828FA00F27F1E09F8012B1F
:202EB000A0F1080028FA00F209F8012BF2D1002904DD083828FA00F109F8011B28B1C0F161
:202ED000080008FA00F809F8018BA9EB0B0021B0BDE8F08F2DE9FF47C44C0F460646F80BAF
:202EF00080F05981B80880F04A81607ADFF808A3B90F80F0CC80E079390914D2B80BC0F0A9
:202F10006B8104F13C000EF054FE061C08D0706830B17568F068B6F9241000222023A84715
:202F300027F4005758E1012800F0AC80E06870300EF025FE68460CF0C9FC20B1009904F1BA
:202F500098000EF05DFC00254FF00108E570A84884F805800EF0D4FCA6492A4604F160003D
:202F70000EF01BFE50460068006B80476061A2782169A369012AA0EB010018444FEA1030FD
:202F9000A06105D163781BB9E169B0EBC12F3AD9DFF8689284F80280A9F1150000686570F8
:202FB000000A30D340F60900A08494F8310000F0F00040F0010084F8310094F8300000F06A
:202FD000F00084F83000A5620EF0DFFD4B4603F6FF7211686FF0020C21F00201116004F109
:202FF0002401C3F8FBCF864AC3F8EB1F11688908FCD3C3F8FBCFD3F8FF1F41F00201C3F84C
:20301000FF1F0FF0B3F87F4A10687F4920F0020040F400701060032341F8043C41F23003A4
:203030008B604046086050238B6008604FF4CA638B60086041F80C0C217825612B461360CA
:2030500019B9E06838300EF0B8FD02200CF06CFE112007F051FB307C10B90E2007F04CFB4E
:20307000207A18B1257205200CF05EFE674965710878A57140B10D7004F1BC0004210EF06B
:20309000A4FD01E00020E07127F00807A4E020B104200CF049FE00206072B168088840F67A
:2030B00002084FF0000980450AD0B0F5C15F07D00A8B4FF61F60104040F43470088306E081
:2030D0000A8A4FF61F60104040F4347008822069F0B1DAF85400016804208847C0B1DAF8E7
:2030F00000002569006B8047F168401B738AF060020BF26098188842F06002D24018400862
:20311000F06040F6C41181422CBFB0F5FA7FF16094F8310010F00F0F0CD1718C08F1070072
:20313000884207D1B56930466FF480714A464FF00073A847364904F160004A460EF02DFD38
:20315000607860B10220ADF8040001A80DF04AFBBDF80C0084F801904011A4F86001012083
:20317000E07084F804900BF097F87569494630464FF080630A46A84727F000572CE006F0A1
:20319000E1F904F144000EF014FD27F0020708B147F0020720E00EF0F8FC014604F1400076
:2031B0000EF007FD061C12D0356AA8080FD225EA0500306208460EF0D9FF706850B12A46B6
:2031D000F068B6F9241075680023A84702E008460EF0CCFF27F4804727B104F1BC003946D2
:2031F0000EF0F3FC0090BDE8FF87C04688200020F19C0000D10A01008C01001015000440EA
:2032100010100440000004600C410440652A00201D7200002DE9F04FADF1240D03930292B9
:203230000028019108BF012000F08D8141F27401C2F20001D1F83480D8F8BCCA392208F15A
:203250000401E047049098F8010000284DD108F22C5000214FF42A7209F082FD0A20C8F8EF
:20327000D4074FF0140BC8F8D8B74FF01E0AC8F8DCA74FF0010A88F800A04FF02809C8F872
:20329000E0970820C8F828053227C8F8E47788F801A03C26C8F8E8674625C8F8EC575024AA
:2032B000C8F8F0474FF05A0EC8F8F4E74FF0640CC8F8F8C76E23C8F8FC377822C8F8002891
:2032D0008221C8F804184FF08C0BC8F808B89621C8F80C184FF0A009C8F810980EF087FC9D
:2032F000A8F80400049888F806000198002800F02981039800281CBF0021016004980028B9
:2033100040F3208108F1040108F2D47E08F5A56005914FF00009CDF800E00599009B01EBD5
:20333000491206914FF0100A079342F6E45102F509721B1FC0F2010153F804CFBCF1010CF3
:20335000C3F800C025D54FF09F0CC3F800C0D0F804E0C0F884E2D0F808B0C0F888B2C76818
:20337000C0F88C720669C0F890624569C0F894528469C0F89842D0F81CC0C0F89CC2D0F821
:2033900020E0C0F8A0E2D0F824B0C0F8A4B2D3F800C0D1F804B0D2F804E00C6815688E689C
:2033B00097680EFB0BFED1F80CB005FB04EED56807FB06EE0F69166905FB0BEE4D69D2F8D2
:2033D00014B006FB07EE8F6996690BFB05EECD69D2F81CB000EB8C0CBAF1010A06FB07EE38
:2033F00001F120010BFB05EE4FEAEE3ECCF804E0A2D1069A079942F6A44C4FF0000BC0F2CD
:20341000010C02EB091202F22444079B51F8046BABF1080202F00F02DCF8007053F8223047
:2034300000EB860A00EB830EDCF80420DAF80460DEF80850DCF8A03006926B43DAF80C2041
:20345000069D07FB0633DCF8A460DEF8107005FB0232DCF8083006FB0722DAF81470DEF8BA
:203470001860DAF8245003FB0722DCF8A870DCF80C3007FB0622DAF81C70DEF8206003FB7F
:203490000722DCF8AC70DCF8103007FB0622DCF8B060DEF8287003FB052206FB0722D3133E
:2034B00013F5004FAEBF1AB248F20002CFF6FF7247F6FF7E9E45B8BF72460BF1010BBBF17A
:2034D000080F0CF1140C24F8022B9EDB09F10109B9F10F0FFFF621AF0298DDF804C0F0280A
:2034F00004D202284FEA500101D226E078214F100229B8BF4FF0000E14DB08F5856021F090
:20351000010E30F9022B0CF8012B12120CF8012B30F9022B7F1E0CF8012B4FEA22230CF80D
:20353000013BEED1480808D308EB4E08B8F928048CF8000000128CF80100039F17B1490061
:2035500038460160049809B0BDE8F08F2DE9F04F09AFADF13C0D08900A92388809911E461D
:20357000ADF81800101C08BF002000F07581017800274FF0010B401C4FF0FF39B846DA46A9
:203590000A9061E1252940F056810178401C0A902D2918BFADF8068004D10178ADF806B07A
:2035B000401C0A9030291CBF4246434604D10178401C5A465B460A902A29CDF800804D4610
:2035D00017D1049330680A9BCDF80890C01C20F00300001D306050F8044C1978002C00943D
:2035F00003F101000A9018D5ADF806A06442009413E044460AE0600000EBC4004018A0F15B
:2036100030040A9801780094401C0A90302901DB3A29F0DBCDF8089004932E2929D10178A0
:20363000401C2A290A9011D13168CDF80880C91C21F00301091D316051F8045C002D48BFDB
:20365000454601782B46401C0A9011E0454643460AE0680000EBC5004018A0F130050A9828
:2036700001782B46401C0A90302901DB3A29F0DB02930AB1224604926C2904D04C2918BFF4
:20369000ADF8048004D10178ADF804A0401C0A900BA8CDF80C800FAB07906429059300F0FA
:2036B000828069297FD0BDF818C075296DD0782969D06F2965D070294ED063293ED073291B
:2036D00022D00A98401E0A90099801281AD966490C68B5F1FF3F03D0A84288BF6D1C05D820
:2036F0006FF00041814294BF0D1C099D029508A80AA932466B46A04709993F18091A039874
:20371000099165E0454617E03068C01C20F00300001D306050F8040CBCF1010F014608B9E7
:203730004FA0014607910DF08FFF0390B5F1FF3F4FD0A8424DD9039528464AE03068C01CD6
:2037500020F00300001D306010F8040C8DF82C005D46039558463CE0082035680490E81C7E
:2037700020F00300001D306050F8041C082210230FA809F0ADFD401E0790402101700798F4
:2037900023E0082302E0102300E00A233068C01C20F00300001D306050F8041CAA42BCBFC6
:2037B0002A1C04920DE03068C01C20F00300001D306050F8041CAA42BCBF2A1C04926FF0F2
:2037D00009030FA809F084FD07900599081A0390009C241ABDF8065000945DB906E008A88D
:2037F000202109AA0CF0E8FF7F1C009C641E0094F5D50398401EB0F1FF3F03900FD1BDF8CB
:20381000060001281CD10098401E009018D408A8202109AA0CF0D0FF00987F1CF4E70798EE
:20383000017809AA08A80CF0C7FF0798401C079003987F1CDEE708A809AA0CF0BDFF7F1C97
:203850000A980178401C0A9000297FF49BAE089808B14146017038460FB0BDE8F08FC046AA
:20387000286E756C6C2900C058380100BB482DE9F84F0025BA4CB849056094F8E200002854
:2038900000F06581012800F02F81B64E02283CD0032840F05C8151F8250CD4F8B8100029D0
:2038B000A0F5C060C4F8D400B8BF49420028B8BF4042814226DA4FF08057D7F8A401456896
:2038D000B4F8BC0030214FF47F42082300903046A847D7F8A4014568B4F8C00004214FF406
:2038F000F802122300903046A847D7F8A401B4F8D070456820214FF440620A233046009727
:20391000A847012584F8D8501CE151F8258C0EF009F82F4600B901273946934F3868002869
:20393000FCD0B146012609F10409D9F82CA03E6009B10DF0FDFFCAF30720C4F8BC000DF03F
:20395000F1FFAA4600B9B2463B68002BFCD0D9F800B0BAF1000F3E6001D00DF0E9FFCBF3DF
:203970008440C4F8C0000DF0DDFFAA4600B9B2463B68002BFCD0D9F81C90BAF1000F3E600E
:2039900001D00DF0D5FFC9F38120C4F8D000B8F5C061C4F8B81000F09C8094F8D80068B9A9
:2039B000C4F8D410D4F8C000C4F8C800D4F8BC70C4F8C470D4F8D030C4F8CC30D4F8D4102B
:2039D000D4F8BC30002954BF02206FF0010004F1C802176801EB41014018411000EB91715F
:2039F00007EBA1001060D4F8C810C4F8C43000291CDD1E293CDDD4F8CC0030B93429B4BF8D
:203A100015391E21C4F8C81025E02A29BABFD4F8C8000B381E20C4F8C800D4F8C4003F2814
:203A3000B4BF401C3F20C4F8C4001FE0D4F8CC00032812D011F10B0FC6BFD4F8C8000B30B4
:203A5000301CC4F8C800D4F8C4000028C4BF401E051CC4F8C450032508E011F1150FC6BF41
:203A7000D4F8C8001530301CC4F8C800C4F8CC504FF08057D7F8A401B4F8C43030214FF4F7
:203A90007F424568374800930823A847D7F8A40104214FF400321123456832480096A8478E
:203AB000B4F8C860D7F8A40104214FF4F802122345682C480096A847D7F8A40120214FF479
:203AD00040620A23B4F8CC60456826480096A84701E084F8D85040F2FF50404502D8801C8E
:203AF00040452FD2082030E051F8251C1F4F4BF2F5204843060A3868C0F3814001280CD1F9
:203B10001B480068006880470BF096FD0DF016FF3111C010484306EBE03694F8E50030B9FD
:203B30001448006820F07F408019460801E084F8E5501148310C0660012741600F4D876061
:203B5000287808B90B2000E0052084F8E40004F039F8BDE8F88FC0462D400C402C500C408C
:203B7000100D002000A00C4000800C40B43F0050EC010010102009403C600C40F136010077
:203B90002DE9F04FB64D686885B0019020B905B0BDE8F04F0EF0E6BA0178DFF8C882B24E7D
:203BB000DFF8C892DFF8C8A201291CBF0229042946F2A81741F64C5B05D0402918BF802993
:203BD00000F09A8043E10DF0F5FE0028FAD00198007804F0C9FE0090446814B900200DF0D3
:203BF00067FA9AF80100002860D001F0A5FF0DF003FD02900168009801914F6809F042FCC4
:203C1000022827D000990A78012ADBD1994B19680A7A19F80230337018B90EF09FFA5844AE
:203C3000A0602069C17E01F0EF01C1762069C17E41F08001C1762069C17E01F0F00141F008
:203C50000201C1768C48B96841182069C16101210098A0E001980178802913D1082287484F
:203C700032700178012903D09AF80100012803DD38690121C17213E0D8F828103A6908786C
:203C9000D0720DE07D49072030700A783869012A02D10123C37203E0D8F828104A78C272FD
:203CB0000298817901988AF80210CBE00098002888D00199009A0078914205D101281CBF17
:203CD00000200DF0F5F915E0012840F0C080694801680A7A19F8020030700EF03FFA391862
:203CF000A0680EF037FA18B90EF038FA5844A0600120A8700098A5E09AF8010000287DD082
:203D100001F01AFF0DF078FC04462068029047689AF802000DF070FC03900DF051FE10F029
:203D3000070F3DD0A87804F01FFE0190416801980091029909F0A6FB022831D001990A783F
:203D5000012A2AD14B4B19680A7A19F80230337028B90EF003FA83440098C0F808B0009968
:203D70000869C17E01F0EF01C17600980069C17E41F08001C17600980069C17E01F0F00120
:203D900041F00201C176009AB9683B4841181069C16101210198A97054E000200DF088F9D0
:203DB0000398A04228D002980178802913D10822324832700178012903D09AF80100012866
:203DD00003DD38690121C17213E0D8F828103A690878D0720DE02949072030700A78386954
:203DF000012A02D10123C37203E0D8F828104A78C272A0798AF80200029823E00DF0E0FD67
:203E100010F0070F29D0A87804F0AEFD04462078D4F80480012820D116490A68107A19F80C
:203E3000001031700EF09AF93918D8F808000EF091F920B90EF092F95844C8F80800012098
:203E5000A870204605B0BDE8F04F06F00FBD05B0BDE8F04F00200DF02BB905B0BDE8F08F06
:203E70000C2A0020643801006F4F0020289A0110684E0020104F0020F0D8FFFF734F002091
:203E90002DE9F04F0768ADF14C0D0E9040688B460F900EF06FF997F89810012903D10EF008
:203EB00065F900205CE1012187F898100EF05EF9002038639BF800003870DBF804007860F4
:203ED000DBF80C000BF11001F8600A6807F1100632608988B180DBF81600C7F81600BBF8C9
:203EF0001A007883DBF81C00F861DBF820003862DBF824007862DBF82800B862DBF82C00E3
:203F1000F862DBF83010396300250D712C46FC60FA233B82798A40F2A312114302EA010012
:203F300078824FF49076BE821125BD750124FC751E233B7622467A767021B9762646FE7606
:203F5000397E0026304601F003056D1E03D06D1E08BF081100E00E11B97D01F003056D1E83
:203F700005D06D1E04BF00EB2110C0B202E006EB2116F6B2BD7E35F07F050CBF02220322D6
:203F9000F969002D01FB02F206FB02F814BF032202227E6A5143484310904044B6FBF0F0BF
:203FB000119003281AD3B8F1000F08BF0020109E0EB111994018F96AB1EB001F0ED80F987F
:203FD000807906F0AFFC0A2006F0ACFC0E9805F0B7F968B90F98807906F08EFB0EF0CAF824
:203FF000002187F898100EF0C1F800200E90B6E05D4CB8F1000F04BF0020206330D004F1A2
:20401000480500212846FCF7EBFE2563002104F13C052846FCF7E4FEDDF84490002604F1F2
:204030002C0000F1580A0560BD6A386A119B05EB061508FB0600E860F01AB0F1FF3F05D0FD
:20405000E06A29460EF082F8012001E0E56106202872B9F1010906F101064AF8045BE3D110
:204070001098002804BF0020A0633FD004F1600500212846FCF7B4FE04F154060021A56365
:204090003046FCF7ADFEB8F1000F666314BF1198002008FB00F60D96119EA14600254FEA4F
:2040B000001A04EB800000F18408BC6A10990D983B6A119A544401FB05015818E060A81A1A
:2040D000B0F1FF3F06D0D9F8340021460EF03EF8012002E0C9F8284006202072761E0AF108
:2040F000100A05F1010548F8044BDED101A80021302208230EF026F80E980F990690487954
:2041100000240990194A0094097901AB07F134000EF014F801A82422082321460EF00AF8F6
:20413000012001AA8DF81C00214607F16C000DF0FDFF387880B901A82146242208230DF0D7
:20415000F9FF2046214601AA8DF81C0007F150000DF0ECFF064801E0DBF80800B8600E9846
:2041700013B0BDE8F08FC046040F00206D670000D31A01002DE9F04F0C46E00789B00BD5A6
:204190000DF0FEFA28B100218160A448006800B1804784F001003EE1A00710D5002006909D
:2041B0000021049000230290009005910393019101223C200DF0B6FF84F002002BE11D2542
:2041D0006007974E974F40F18A8000200790834695498878FF2804BF00200CF069FF3868F6
:2041F00090F8A0000DF008FA80463868C07A98F82691022818BF032808F5907A06D106F1A0
:204210000D000DF08BFF08B906F1070B514648460DF080FF88B33868807A002818BF012892
:2042300004D1314650460DF071FF04E05246494630460DF067FFFF2834D005FB00F906EB26
:20425000090506225146E81D0DF0D6F816F8090040F00209E81D079006223868817E01F00B
:20427000010188F8261105F1010A386800F1140108F590700DF0C0F814E0514648460DF006
:204290003DFF78B15246494630460DF03BFFFF2808D006F10D01454348190DF03FFF08B1F4
:2042B00049F0020908F12C004B4601780691418909090591B8F82220079904920122C088DF
:2042D000029140080390CDF804B0CDF800A0002098F806100DF026FF84F004009BE0200681
:2042F00010D5002006900021049000230290009005910393019101223B200DF013FF84F05A
:20431000800088E0E0043BD5F11D06F10D000DF0F1FE38684179012923D1017A012918BFBF
:2043300004291ED1C17A022918BF032919D1817E00F1140230460DF0E5FEFF2811D0454312
:20435000354405F10D000DF0E9FE50B9E91D05F10D000DF0CFFE38680622E91D14300DF002
:204370004BF8324932484A6800784FF480510AF0A5FE10B18E2008F07BFB84F480504AE0CB
:20439000A00505D50DF0CEFA2A4901200860FEE7610504D508F0D1F884F480603BE0600411
:2043B00005D5812008F064FB84F4804033E0A00430D5214D286810B100200CF079FE4FF096
:2043D000FF3028600DF092FE1C4D296851F8202F684690471A48016A426A2D680091019240
:2043F0001849029100F128014A6809781368C06903938DF81010ADF812006B462E68124A33
:2044100012491348B0471349086003F025FE84F4005000E0002009B0BDE8F08F204F0020D1
:20443000AC450020104F0020684E0020784E00206E4F0020FC002043044F0020F04E002013
:2044500000130020811701002C4D00206845002088490020EC4E00202DE9F043A44C0D4643
:2044700094F83E100128ADF1340D3DD02888012840F0E58068680078042828D005281CD04A
:20449000002840F0DC80A06961B9072100226DA30CF03EF94FF6FF70E08094F83F0003F0D6
:2044B0005FF8CCE0072100226DA30CF031F94FF6FF70E08004F03CFEC1E0A06971B905202E
:2044D00003F04EF80BF03CFA6CA3A06907E0A06921B9042003F044F871A3F6E76AA3072107
:2044F00000220CF015F9AAE0E088042928D0052949D16968A26AD4F818C0E66A491C0F7864
:20451000431C03F0FF039F4204BF521CA26238D00B781B1ADBB2D218A2620B781B1ADBB2A1
:20453000F618E66200960192097861A3002202910721039060460CF0EBF86968491C20E03C
:204550006968226AD4F818C0666A0F78431C03F0FF039F4204BF521C226212D00B781B1A6F
:20457000DBB2D21822620978091A5AA3C8B236186662072100966046019200220CF0C8F82A
:2045900069680878E0802078002858D002208DF81800606906A905F029FF00284FD094F84B
:2045B0003E00089905283AD06A68D3789078DFF844810D4600EB032000B2A4F84A0094F88F
:2045D0004010A8F8040053784F00161D791937F001074FFA83FC88F801301BD092F90100D9
:2045F000491BC91C84F848008F1016F8010B814600F00F0007F05CFC25F8020B4FEA291034
:2046100007F056FC7F1E25F8020BEED1B8F9040098F901C0A4F84A0084F848C007E094F8D7
:204630004020686804F110035200FEF7F3FD0A980027059004A96069049709F007FF0DB0D0
:20465000BDE8F08352656365697665642053746F702C2072652D7374617274696E6700C0C9
:2046700052656365697665642053746F702C2073656E64696E672073746F70006D534243DE
:204690002053747265616D00416C726561647920737461727465642073747265616D00C039
:2046B000414450434D2053747265616D00C046C04D697373696E67206672616D652C205092
:2046D00045522025642F25642028256420767320256429004D697373696E67206672616D86
:2046F000652C205045522025642F256400C046C074100020342A00202DE9FC41A0F20137AC
:2047100014468846022F40F232819B4E9C493F1F0F2F04D9143F4CD0BF1E1CD011E0DFE814
:2047300017F0CF00C9000D01FA00C100B9002601AF00A700100010009D008F007F0074008C
:204750006600282880F21381B8F1020F40F00F818849238807E1B8F1010F40F00881F078D5
:20477000012800F00481324620781179107189B9002800F0FC805078012800F0B580042858
:2047900000F0B280062800F0AF80052800F0AC80BDE8FC812078002840F0E98050780328E3
:2047B00000F0AF80072800F0AC80052840F0DF80A7E0B8F1010F40F0DA802078012840F008
:2047D000D68006F1EC000CF0CBFF002840F0CF803446002004F13A0107F038FF002840F0D3
:2047F000C68004F1C8000DF0F6F9BDE8FC81B8F1020F40F0BC8020880A28C0F2B880B0F509
:20481000486F00F3B4808E1C17E0B8F1020F40F0AE802088B0F5FA7F80F2A9800E460CE050
:20483000B8F1020F40F0A38020880628C0F29F80B0F5486F00F39B803E363080BDE8FC8104
:20485000B8F1020F40F0938020880628C0F28F80B0F5486F00F38B803C36EEE7B8F1010F5A
:2048700040F085802078062880F28180454E0EE0B8F1010F7BD12078042878DA0A3606E0F8
:20489000B8F1010F73D12078082870DA09363070BDE8FC81B8F1010F69D12078042866DA01
:2048B0000836F4E7B8F1010F61D1207804285EDCF61DECE7B8F1020F59D120880E36BCE78D
:2048D000B8F1010F53D13079012850D032462078D178D07069B9002849D05078012803D039
:2048F000042818BF052842D101200CF069FFBDE8FC81207800283AD15078022818BF0528FD
:2049100035D110780BF078FD1C490246102002F0F9FEBDE8FC8106F1830500211F22284652
:2049300008F01EFA21464246284606F06DFE44463078B4710BF060FD002311E006F1640576
:2049500000211F22284608F00BFA21464246284606F05AFE4446307874710BF04DFD01234F
:204970000094094901950246102002F0CBFEBDE8FC81C046BD840110680600209945011081
:20499000A8060020A2060020094501102DE9F04F8246DAF800600C465FEA0208ADF11C0D57
:2049B00014BF00214FF0FF3106F1480083460CF07CFE002818BF0B2040F00D810025884829
:2049D000F460B8F1010F057007D0657002200BF03BFB06200BF038FB01E001206070207888
:2049F000012840F2AB80801E012868D9801E012833D9801E012800F2DF800DF0C6F80690DD
:204A10004FF0805000F5EE77D0F8DC01A378466A009321782846062908BF0120019001204A
:204A30000290A068228AE1686368B047814606980DF09CFBB9F1000F40F0C080B8F1000F3B
:204A500002D00CF0A9FC02E050460BF062FC002800F0A4803868806A2AE00DF096F8069011
:204A70004FF0805000F5EE77D0F8DC01012306680093A168A27860682478AC46042C08BF83
:204A90009C466346B047814606980DF06FFBB9F1000F40F09380B8F1000F02D00CF07CFCBE
:204AB00002E050460BF035FC002877D03868406880474A49C1F8B0510D6081467EE00DF0E8
:204AD00064F806904FF0805000F5EE76D0F8DC01E38A87690093E0680190208B0290A078A9
:204AF0000390207D04900121059122782846022A08BF081CE1786268A368B8478146069879
:204B10000DF034FBB9F1000F58D1B8F1000F02D00CF042FC02E050460BF0FBFB00283DD015
:204B30003068006A80475FEA000947D13068C569A168E28A2369E078A847BEE70DF025F865
:204B500006904FF0805000F5EE76D0F8DC01E38AC7680093E0680190208B0290A0780390B2
:204B7000207D2946049001200590257805B9014608466268A368E178B847814606980DF050
:204B9000F5FAB9F1000F19D1B8F1000F02D00CF003FC02E050460BF0BCFB08B914201AE0D5
:204BB0003068406980475FEA000907D1306802692169E078904780E74FF0FF39B8F1010F60
:204BD00005D002200BF0B0F806200BF0ADF858460CF0F3FF484607B0BDE8F08F5045024099
:204BF0006E2A00202DE9B0431C469146884684424FDCC11000EB117121F00F01411A082901
:204C100051D198F80F5098F80E10430009EB030241EA052122F8101C98F80C1098F80D5059
:204C300041EA052122F80C1C98F8001098F8015041EA052122F80A1C98F80A1098F80B502A
:204C500041EA052122F8081C98F8021098F8035041EA052122F8061C98F8081098F8095012
:204C700041EA052122F8041C98F8041098F8055041EA052122F8021C98F8061098F807202A
:204C9000083C083841EA022108F1100829F8031009E009F5007309EB40019022184606F058
:204CB000B3FC4FF48070102C7CDB271109EB400224F00F01A0EB0710641A98F81F3098F84E
:204CD0001E1041EA032122F8201D98F80E1098F80F3041EA0321518098F81C1098F81D30BA
:204CF00041EA0321918098F8101098F8113041EA0321D18098F81A1098F81B3041EA03213F
:204D1000118198F8121098F8133041EA0321518198F8181098F8193041EA0321918198F8C9
:204D3000141098F8153041EA0321D18198F8161098F8173041EA0321118298F8061098F824
:204D5000073041EA0321518298F80C1098F80D3041EA0321918298F8001098F8013041EA83
:204D70000321D18298F80A1098F80B3041EA0321118398F8021098F8033041EA03215183CC
:204D900098F8081098F8093041EA0321918398F8041098F805307F1E41EA032108F12008B9
:204DB000D1838AD1082C42D198F80F2098F80E10083809EB400941EA022129F80E1C98F8DA
:204DD000061098F8072041EA0221A9F8021098F80C1098F80D2041EA0221A9F8041098F8F9
:204DF000001098F8012041EA0221A9F8061098F80A1098F80B2041EA0221A9F8081098F8E1
:204E1000021098F8032041EA0221A9F80A1098F8081098F8092041EA0221A9F80C1098F8B8
:204E3000041098F8052041EA0221A9F80E10BDE8B08370472DE9FE4F05467F4800240068FC
:204E50000094C0090ED37D48007858B97D497C4851F8112C104040F0817041F8110C20209F
:204E70000AF00AF9012D40F0E280DFF80892D9F8DC00012840F0D8800220C9F8DC000BF0DC
:204E900035FF01200AF0F8F85FEA000805D00120C9F8DC000BF03AFFCBE00CF092FEA3468B
:204EB00002906948694DC0F800B0A86A016801208847012804D1584608F0BCFB012000901A
:204ED0006348644FC0F800B0386811200CF048FD00B1012410200CF043FD08B144F00204B5
:204EF0000F200CF03DFD08B144F004040B200CF037FD20B12868584E016B308888470A20C9
:204F10000CF02EFD20B12868544E016B308888475348012606602868816944F0200088479F
:204F3000504806600CF016FD00F001010191400814D2286A81684C4888478246BAF1040F3E
:204F5000F7D0BAF1010F04D1286A42684648032190474649086820F003000860584600F01D
:204F7000BDFA2B683868986B8047019801280CD0BAF1010F04D1286A42683B483146904732
:204F90003A49086840F0030008603148066028684169204688470B200CF0E2FC20B12868BF
:204FB0002D4BC16A188888470A200CF0D9FC20B128682A4BC16A1888884729480660032268
:204FD000C9F8DC20274BC3F800B02868416B204688470128F9D1386804200AF04DF8044676
:204FF000194806603868144800688009FBD30098012802D1304608F01DFB0CF099FC08204C
:205010000AF03AF807460298C9F8DC600DF06AF81748008808F0B4F80BF078FE57EA0400D0
:2050300018BF4FF0FF3804E06FF0040801E06FF001084046BDE8FE8F14100940F80D002031
:20505000FFFFFCFC150009400C400940B8010010000222432C200940663301006233010062
:2050700028200860800104430040034024220840EC360100100D002010B50B7884074CBF59
:2050900043F0020303F0FD0304064CBF43F0800303F07F0304074CBF43F0080303F0F70354
:2050B00084064CBF43F0200303F0DF0310F0AA0F0B7004D0107840F00C00107010BD18B936
:2050D000117801F0F301117010BD2DE9F8430D461646287802281F464FF0000862D168688B
:2050F00001784078089C01EB002189B220001CBFB1F5285F0B205AD14FF42850091A08D04F
:20511000491E1ED0491E2CD0491E22D0491E2ED048E0DDF82490E8680CF067FD214680B20F
:20513000421A4A45ACBF4C46041BA4B26018162804DA3C802246E86801440EE04FF00D0873
:2051500034E0E8680088022139803070000A70702CE0062038800622E96830460CF04CF9D3
:2051700024E001203880E868017831701EE0E868B0B108213980018831700188090A7170A0
:205190004188B1704188090AF170818831718188090A7171C188B171C088000AF07105E02C
:2051B000398003E0A7F800804FF001084046BDE8F2832DE9F0470F4682B039780024022968
:2051D00070D1804678680A9E0178DFF8E0A09146427801EB022189B24FF42850091A1D4644
:2051F00006D0491E29D0491E4ED0491E39D059E0F8680CF0FAFC80B2B04204D3A8191628EF
:2052100003DB0D244FE007244DE0FB682A46494698190CF0F1F8AD19F868ADB2C5F116029D
:20523000002140190CF0DFFCDAF8000000281CBF0268002A37D0002123E08EBB022DE0D150
:2052500099F8000099F80110FA6800EB01201080DAF8000000281CBF0268002A23D001218F
:205270000FE0EEB9062DCCD1F868062249460CF0C3F8DAF8000000281CBF0268002A12D09F
:205290000321404690470EE056B9012DB9D199F80000002813BF0128F9680870802402E0B5
:2052B0000B2400E001242046BDE8F687502A00207CB5894D144602460026A2F58062182AFE
:2052D0001AD8DFE812F0FE00F800F100E900E200DC00D500D0001900C500BE00B700AE00CF
:2052F000A3001900190080006F00680054004C00420039002C002400282880F28580022915
:2053100040F0828021880CF0E9FE0646E1E0012940F0DE80002C00F0DB801135A6E010297E
:2053300040F0D680002C00F0D38028465030102221460CF061F8CCE0012940F0C980002C11
:2053500000F0C68029468D1D90E0262940F0C080002C00F0BD8005F160002622E8E70129CF
:2053700040F0B680002C00F0B3806D1D7EE0602900D13CB9012940F0AB80002C00F0A88068
:205390000D3573E005F18600214660220CF034F8012068739DE0012940F09A8020780CF05A
:2053B00099FE96E0012940F093802078022800F38F800C3528702078022814BF301C0120C4
:2053D0000CF084FE85E0072940F08280611C684606220BF097FE20786946324605F054FD90
:2053F00004460A2C10DA0CF06DFE38B9204603F0E1FB0BF0ABFA08F0A7FF6AE02A4601208D
:2054100002F12C05285564E0022662E001295FD1A87B21780028A9735BD12078012858D1BD
:20543000E9E7012954D12478072C51DB102C4FDC0B3537E001294BD124780A2C48DA09350C
:2054500030E0012944D12478022C41DA083529E000293DD10CF036FE10B90CF079F8C8E776
:2054700001240F351EE0012932D10A35247819E001292DD12478022C2ADAED1D12E0102989
:2054900026D12B4603F1400051E7012920D12478022C1DDA2D1D05E0012919D12478042C3D
:2054B00016DCED1C2C7014E0012911D12478022C0EDAAD1CF6E702290AD12088143528804E
:2054D00007E0012904D12478022CD8BF6D1CE9DD182630467CBDC046880A00202DE9F84F24
:2054F000DFF804B20746ABF13500DFF8F0810068800880F0E28075480068006880477E49CC
:205510000831D1F8009000254FEA29715FEA995201F101010AD2C0F13E0210F10A0F4FEAA9
:20553000E202D8BF08229142B8BF111C684BD3F87C21C2F30462162AA8BF203A1B68C3F3CF
:205550000443162BA8BF203B9A465218162A05DA12F10A0FB8BF6FF0090200E015225D4BCC
:205570005D4E02F01F0141F4F8511980316811F0030F18BF0125C90828BF45F002050FB1EA
:2055900045F00405434693F90710411A052904DA9979A94208BF99886FD0DFF844E10F28D3
:2055B000A0F10F0829DB08EB0011A1F1F0084FEA28210091072984BF07210091062988BFEC
:2055D00006215EF821600424774604EB81043C594FEA950CA41BEE0804F0FF0124BFC4F3B2
:2055F000072631446F08AE0824BFC4F3074631446E0828BF01EB146104E000214FEA950CD3
:205610006F080091009C5EF824E05FEA5C060EF0FF0424BFCEF3072634447E0824BFCEF35D
:20563000074634446E0828BF04EB1E64009E89B2A8EB06267143803104EB1124AAEB02010E
:205650000029D8BF0121342209F0FF074A4391B24FF6FF727943B1FBF4F18A4238BF111C40
:20567000802889B2998005DA10F1800FB8BF6FF07F0000E07F20D8719D711A4800681F2972
:2056900018604FF0000008D340F2FF128A4206D24908401C8A42FBD301E01F219980134F9E
:2056B0000F39090940EAC10047EA0001CBF8FB1F0026CBF8FF6FBDE8F88F0D490D4F4346C8
:2056D00008200F609B1D1870BDE8F88FEC0100103C1100506E62084024220840442A0020E9
:2056F0009C130050082009403500094000E7A48030100940FDFDA400AC3F0050F0B57348DF
:20571000734A0078734C744B74490D2883B03CD8DFE800F0DB07070707D3D358D39292B03A
:20573000B0B7146041F204456D494C88AC421FBF4E8BAE424E8EAE4203D11D806948106085
:2057500072E0022C684D1C804FF4A05635D94FF48067E41B1AD0241F012C1DD94FF47F776F
:20577000E41B1BD04FF44067E41B0FD0A41E012C0CD9241F0AD0641E012C0DD940F2F9377F
:20579000E41B012C19D9241F08D096E0022814BF1E80564D156047E0554DFBE755480368E4
:2057B0001C7A012C05D141F20240488048834886F0E74E804E834E86ECE700200BF078FCBE
:2057D00083207EE04C488178FF2952D0182041434A48146040F204450068841C645A1C8042
:2057F000641B012C464B70D94FF47F75641B0FD04FF44065641B032C84BF641F012C0BD911
:20581000A41E012C61D940F2FD35641B06D103E0801C41F201444452136005E000200BF095
:2058300047FC85200CF04AFC03B0BDE8F04035480078012104F000BF40F2044248881880FC
:2058500090421CBF41F2084290423ED041F60402904211D12C4C2D4A25682D4800680023C1
:20587000CDE9002355F8086F2A4B0222B0472A490880F7BD4888188000200BF019FC8520FF
:205890001FE04888188002280DD940F20442801A1BD040F6FC72801A05D0083815D04FF409
:2058B0007F72801AE8D1887B801CC0B2B528A8BF6620887300204880F7BD00200BF0F8FB14
:2058D0008420BDE8FE400CF0F9BBF7BD6F4F0020204F0020531B0100504F0020CC4C0020FA
:2058F000204A002059550110615A0110B1540110755B0110104F0020684E0020804E002049
:20591000313901106E4F0020F04E002002000080EC4E00206DFD0000424F00202DE9F04F75
:20593000044677488C4601689B46BCF1000FADF1440D44D0002A42D09CF80030012098407A
:2059500001423CD01088B0F5C15F2CD1506997696C4DD669DFF8B0910E904FF0030E0DF1D9
:2059700034080F9728681096C0F3036A58F8047FB7B100213D1F05200B4655F8046FB145FB
:2059900006D0401E01F1040103F10103F5D107E0052B05DA785820F4702040EA0A40785068
:2059B000BEF1010EE2D1C4F804C0A2600CF0EDF8564D8246287820B150460CF0D7FB0020A3
:2059D0009AE002F0A7FE5249086840F00200086007A80BF0BDFE4FF0050805F1BC0007AAED
:2059F0004C49CDF8248009F063FE07A80BF07FFE00264FF0FF0905F16000192107AB8DF8E4
:205A10002460454ACDF8209009F05EFD07A80BF09FFE05F1F00007AA4049CDF8248009F0D1
:205A300047FE07A80BF063FE0127CDF8209005F17C001A2107AB3A4A8DF8247009F044FD33
:205A50003849324605F19800134609F013F836480BF056FF354A3346042105F14C000AF02B
:205A7000D5FE4FF6FF70A5F86001AE702E716E71AE71EE712E726E722E61C5F81C802B786C
:205A90006F70581C287050460CF070FBBBF1000F03D168460BF09CFDEB46DBF800002060B9
:205AB000DBF80400E0609BF8100067742074BBF8120060821E4DA5616561DBF80C0000B13F
:205AD000A061DBF8080000B160613146782204F1200007F045F904F1380031460AF010FD62
:205AF0000BA80CF00AF813490D9404F1700032460BAB08F0BFFF204611B0BDE8F08FC0464E
:205B1000D4210840541300500200F844882000200020094051140100D10A010049AD0000DA
:205B30006DC70000C1170100F19C000075E8000037D00000591B01002DE9FE4FDFF8FC812B
:205B500098F8011011B900200BF0B2FA0CF006FB0546002405F6C4150027794EDFF8E49189
:205B70000EE038460BF048FD417939B1316882790A552946641C0CF09DFAE4B27F1CFFB26E
:205B900099F800008742ECDB98F80100844205D000200BF08DFA82200CF090FA98F801004D
:205BB000012840F0A980002701E07F1CFFB299F80000874280F29A8038460BF01DFD05463B
:205BD00068790028F1D03068A979027891421CBF00200BF06DFAA87986E0306810F8090057
:205BF0000BF00AFD00684268DAF808109068814204BF3D4609F1010900F08D808FE030688E
:205C1000047801210FE0D8F80420435C02F5AD7209FB03F509FB04FE555B32F80E2095425D
:205C300038BF1C46491CFFB2B942ECDB4FF6FF700CF03CFA834620460BF0DEFC40F6C4152A
:205C500000684168CDF800A000204FEA5B076F4382460291CDF804B016E020460BF0CCFC5E
:205C700001680A78802A04BFDBF810305F610978402907D1344A8079136803EB401107F5FA
:205C9000A062CA610AF1010A0098824554DA306810F80A008442F5D0D8F8043009FB00F205
:205CB000991803F5AD73C9899A5A4B08934203D2009B891A8B42E5DA0BF09EFC0068D0F839
:205CD00004B0029A0198DBF80810936800EBD0704010A1F6C41105FB00300CF03BFA002875
:205CF000BBD0306810F80A00BDE8FE8F00200BF0DFF982200CF0E2F998F8011030680CF08C
:205D1000D1F9306800780BF077FC00250168D1F804A04FF001096F1CA145FFF65EAFEDB2D5
:205D3000002D1CBFF8B20028A2464FF4C0797FF466AF3068047879E72046D5E7684E002021
:205D5000004F00207B4F0020844E00202DE9F04F4FF4004842F6E473C4460527ADF11C0D7C
:205D7000E6464446C0F201036546E146F34605907646B3F90000B1F900A000FB0A66B1F940
:205D900002A0B3F9020000FB0A66B1F904A0B3F9040000FB0ABAB1F906B0B3F9060000FB6E
:205DB0000BABB1F908A0B3F9080000FB0A99B1F90AA0B3F90A0000FB0A99B3F90C00B1F96F
:205DD0000CA000FB0AEEB1F90EA0B3F90E0000FB0AEEB1F910A0B3F9100000FB0A55B1F9F5
:205DF00012A0B3F9120000FB0A55B3F91400B1F914A000FB0A44B1F916A0B3F9160000FB45
:205E10000A44B3F91800B1F918A000FB0ACCB1F91AA0B3F91A0000FB0ACCB3F91C00B1F9C0
:205E30001CA000FB0A88B1F91EA0B3F91E007F1E00FB0A8801F1200103F1200399D13714CE
:205E50002D144FEA29464FEA2E4E00204FEA2B4BADF800704FEA2C4CADF808504FEA24495C
:205E7000ADF806E00346ADF802B00146ADF80A909A46ADF80CC04FEA2847ADF8046043F22A
:205E900084050491EE46ADF80E70D046C0F201059946D3460427BEF90260B5F900403EF94E
:205EB00004CB0CFB04BBB5F9024006FB04BBB5F904400CFB0488B5F9064006FB0488B5F9D9
:205ED00008400CFB0499B5F90A4006FB0499B5F90C400CFB04AAB5F90E4006FB04AAB5F928
:205EF00010400CFB0411B5F9124006FB0411B5F918400CFB04330693B5F91C30049C0CFB92
:205F10000300B5F914300CFB0343B5F91A40B5F916C006FB0C33DDF818C0049306FB04C357
:205F3000B5F91E407F1E06FB040005F12005B2D11161D061C2F800B0C2F80480C2F8089068
:205F50000499C2F80CA045F66F7E936105985161C0F2000E07B0C0F898E2BDE8F08F2DE9E0
:205F7000F04F4FF4004843F20413C4460527ADF11C0DE6464446C0F201036546E146F34687
:205F900005907646B3F90000B1F900A000FB0A66B1F902A0B3F9020000FB0A66B1F904A08C
:205FB000B3F9040000FB0ABAB1F906B0B3F9060000FB0BABB1F908A0B3F9080000FB0A99FB
:205FD000B1F90AA0B3F90A0000FB0A99B3F90C00B1F90CA000FB0AEEB1F90EA0B3F90E00F6
:205FF00000FB0AEEB1F910A0B3F9100000FB0A55B1F912A0B3F9120000FB0A55B3F91400FA
:20601000B1F914A000FB0A44B1F916A0B3F9160000FB0A44B3F91800B1F918A000FB0ACC67
:20603000B1F91AA0B3F91A0000FB0ACCB3F91C00B1F91CA000FB0A88B1F91EA0B3F91E0068
:206050007F1E00FB0A8801F1200103F1200399D137142D144FEA29464FEA2E4E00204FEA30
:206070002B4BADF800704FEA2C4CADF808504FEA2449ADF806E00346ADF802B00146ADF81A
:206090000A909A46ADF80CC04FEA2847ADF8046043F2A4150491EE46ADF80E70D046C0F2B2
:2060B00001059946D3460427BEF90260B5F900403EF904CB0CFB04BBB5F9024006FB04BB24
:2060D000B5F904400CFB0488B5F9064006FB0488B5F908400CFB0499B5F90A4006FB04997A
:2060F000B5F90C400CFB04AAB5F90E4006FB04AAB5F910400CFB0411B5F9124006FB041106
:20611000B5F918400CFB04330693B5F91C30049C0CFB0300B5F914300CFB0343B5F91A40A7
:20613000B5F916C006FB0C33DDF818C0049306FB04C3B5F91E407F1E06FB040005F12005B6
:20615000B2D11161D061C2F800B0C2F80480C2F808900499C2F80CA045F65D5E9361059885
:206170005161C0F2000E07B0C0F898E2BDE8F08F2DE9FE4F0E468246307AC10693461C4665
:206190004FF000090CD558460BF088FF030000F0EA800A223146504698475FEA00094DD1C1
:2061B0003078DDF838800D9D0C9F02281AD170680178407801EB002189B24FF42052891A87
:2061D000012910D9891E3AD0491E14D0FD397BD0491E00F08280491E6ED0491E74D0491E0F
:2061F00000F09780ADE0002D2AD1F068017839800278416889E0002D22D101203880F0686C
:206210000178217000217089401C80B20BF042FF398860B10278921C5118398041896170C9
:206230004189090AA17002784168E01C6EE0091D398004220021601C0BF0D5FC95E0002DE3
:2062500068D1F0680588042139802570290A617028460DF102010BF01DFF5FEA000821D0D1
:20627000D8F80C50BDF802204FF6FF766B4631460BF00CFF50B998F80030D8F804203C48E2
:2062900002210BF0FFFE08B9ADF80060287802280AD169680222201D0BF0AEF83888801C39
:2062B000388001E0ADF80050BDF80000A070BDF80000000AE07058E0002D2BD1F06801684A
:2062D00050460BF00CFA02E025BBF0680088022139802070000A607047E0F0680BF085FC34
:2062F00080B229468842B8BF4FF007093DDB814208BF002206D008EB01028242B2BF424610
:20631000451BAAB23A80F068014420460BF074F82BE015B14FF00B0927E0F0680721398029
:2063300001782170417861704188A1704188090AE17001792171C1886171C088000AA07128
:2063500013E058460BF09AFE5FEA00090BD00F980290CDF8048000953B46224631465046CF
:20637000C847814601E04FF00E094846BDE8FE8FF8380100F8B57E4F04463868C16E002557
:20639000002940F0F18010200BF02AFA39680028C86600F0E7808E6E102221460BF02CF8D2
:2063B00039680878002840F08E80CA6ED6F8980012F80CCF00F001030CF0010C634518BF47
:2063D0000023400843EA4000C6F89800C0F34003D2F800C0CCF3400C634506BF430803F049
:2063F0000103002320F0020040EA4300C6F89800C0F38003D2F800C0CCF3800C634506BF19
:20641000830803F00103002320F0040040EA8300C6F89800C0F3C003D2F800C0CCF3C00C25
:20643000634506BFC30803F00103002320F0080040EAC300C6F89800C0F30023D2F800C03F
:20645000CCF3002C634506BF030A03F00103002320F4807040EA0320C6F89800C0F34023F0
:20647000D2F800C0CCF3402C634506BF430A03F00103002320F4007040EA4320C6F898001C
:20649000C0F38023D2F800C0CCF3802C634506BF830A03F00103002320F4806040EA8320CC
:2064B000C6F89800C0F3C0231268C2F3C022934206BFC20A02F00102002220F4006040EAB4
:2064D000C220C6F898008A6E92F89500030718D5C86E4368C3F3C00098B1C87840F008004E
:2064F000C870D6F8981023480140C6F898103868C06EC16821F48071C16049084900C160F3
:2065100003E092F8330001282AD0607800281CBF7178002908D13968CA78130708D50028E0
:2065300004BF7078002803D03A68052111711CE06068C0F3800040B996F8950010F0040044
:2065500002D10120087110E00AD00878002819BF30782178317820780BF08CFD054604E03F
:20657000182502E0132500E011252846F2BD00BF304F0020FEFEFFFF2DE9F0410446764DD5
:20659000A178A869ADF1180D891F00F0DE80C91E00F0C980491E5FD0491E48D0C91E3CD0E0
:2065B000481E40F0D580287A697AB8B96878002831D0A0880BF05AFD071C00F0C980A07AF1
:2065D00040080FD3787968B1E168890A0AD2B91D01AA04F059FC0A2804D10321A0880BF0A7
:2065F00041FDB5E0287B022802D1A07A0009F4D3A088797904F1080201F0ACFBA869002844
:2066100000F0A6804368002B00F0A28000210A46A08898479CE00521E0E7002800F098805B
:206630004368002B00F0948062780221F0E70BF0AFF8002800F08C80A86950B1076847B15D
:20665000206900906189227B637BE01C3C46A0477EE060890121C2E767784FF00008002FE0
:2066700052D1A17949084FD3EF69002F4CD101A841460E220BF0B7FAA0880BF0F7FC071C71
:2066900066D0606940B97879B91D06228DF80A0001A80AF0B1FE19E06669307C062206F18F
:2066B00011018DF80A0001A80AF0A6FE07F10C00B91D06220AF0A0FEB81D062206F1110142
:2066D0000AF09AFE307C40F002007871A1799DF81120C1F3800010438DF81100080905D36B
:2066F0009DF8110040F008008DF8110001A8214600F020F928B92878022103F09DFF404644
:2067100027E0A8694FF0150810B3436803B3A088627801219847B8F1000F19D0A869436871
:206730000321424674E7E078211D002204F0ACFB0A280DDA410001EB800004F10C022530D1
:206750000421C0B202F056FB02E0A08807F04EFF012006B0BDE8F081880A00202DE9F84F05
:2067700081467348001DDFF8C481D9F80060D9F80470056850F8041C0D408560A80949D304
:2067900044462068401C0228206000D100BFB0F5967F00D100BF6169E069884205D0206BBA
